:1019000012C024C023C022C021C020C01FC01EC0DE
:101910001DC01CC01BC01AC019C018C017C016C0FB
:1019200015C014C013C011241FBECFE5D2E0DEBF26
:10193000CDBF10E0A0E6B0E0EEEEFEE102C0059003
:101940000D92A636B107D9F78CD0CFC2D9CF8F92DE
:101950009F92AF92BF92CF92DF92EF92FF92CF937E
:10196000DF93EC01F62E6CE070E080E090E03AD27C
:101970004B015C0160E170E080E090E016D21882DB
:1019800019821A821B821C821D821E821F82198666
:1019900018862F2D30E040E050E0281539054A0523
:1019A0005B0528F5BC0180E090E047D26B017C012B
:1019B000685F7F4F8F4F9F4F15D2688379838A83EB
:1019C0009B83C701B601645F7F4F8F4F9F4F0AD241
:1019D0006C837D838E839F83C701B601605F7F4FD9
:1019E0008F4F9F4FE2D19987888781E001C080E0C7
:1019F000DF91CF91FF90EF90DF90CF90BF90AF90AD
:101A00009F908F9008950F931F93CF93DF93CDB73F
:101A1000DEB728970FB6F894DEBF0FBECDBF8C019E
:101A20009E012F5F3F4F44E060E070E0CB0195D115
:101A300044E050E060E670E0CE01019617D2892BB9
:101A400021F461E0C80183DF01C080E028960FB671
:101A5000F894DEBF0FBECDBFDF91CF911F910F91E4
:101A600008952F923F924F925F926F927F928F9242
:101A70009F92AF92BF92CF92DF92EF92FF920F931D
:101A80001F93CF93DF93CDB7DEB7CE54D1090FB6F6
:101A9000F894DEBF0FBECDBF14BE0FB6F894A89564
:101AA00081B5886181BD11BC0FBEF89489E38BBB01
:101AB0008EEC8ABB18BA8FEF87BB1AD13BD11E01BF
:101AC00021E4220E311CC1019EDF882309F4F3C0FA
:101AD0008CEF91E0DFD16B017C01F10140815181FC
:101AE0006281738184819581A681B781840F951F5E
:101AF000A61FB71FBC01CD0164507109810991096E
:101B000071D12B013C01C616D706E806F90609F487
:101B1000D2C04FEF5FEFBA018CEF91E0C0D1E199F5
:101B2000FECFE0E4F0E083E080935700E895E05CCE
:101B3000FF4FE11529E1F207B1F7F10104811581A9
:101B400004501109812C912C54012FEF3FEF2F9657
:101B50003FAF2EAF2F972D969FAE8EAE2D970115CE
:101B6000110509F478C020EC821628E19206A10440
:101B7000B10409F470C078010134110518F030E4A3
:101B8000E32EF12CF10180819181A281B381BC010E
:101B9000CD01680D791D8A1D9B1D9E012F5F3F4F52
:101BA00069014E2DDAD08E2D803451F040E450E0A2
:101BB0004E195F096FEF70E0C6018E0D9F1D63D156
:101BC0002D968EAD9FAD2D97892B81F489819A81B9
:101BD0009F708F579C409F7CFC01F06C2F96FFAF4D
:101BE000EEAF2F978FE789838CEC8A83D60111960D
:101BF0008C91119790E0982F88272C91822B07B613
:101C000000FCFDCFE199FECF2D96EEADFFAD2D97F7
:101C1000EC19FD09EA0FFB1F21E00C01209357008E
:101C2000E895112412962A163B0609F707B600FC20
:101C3000FDCFE199FECF85E02D96EEADFFAD2D975E
:101C400080935700E8950E191F09F0E48F0E911C40
:101C5000A11CB11C80CFE0ECF8E1EE3F29F42F96F7
:101C60008EAD9FAD2F9702C08FEF9FEF07B600FCA0
:101C7000FDCFE199FECF21E00C0120935700E895BC
:101C800011243296E11539E1F30739F707B600FC64
:101C9000FDCFE199FECFE0ECF8E185E080935700BD
:101CA000E89507B600FCFDCFB301A2018CEF91E0EF
:101CB000F6D0E199FECF23CE80E090E0C25BDF4F0B
:101CC0000FB6F894DEBF0FBECDBFDF91CF911F914D
:101CD0000F91FF90EF90DF90CF90BF90AF909F90CB
:101CE0008F907F906F905F904F903F902F900895CE
:101CF00081E081BB8AE18DB9D29AD19AD098DB9AE2
:101D0000D39A0895DB980895DB9A08958FB91EB889
:101D1000689A689A689A689A689A689A689A689AB3
:101D2000689A689A689A689A689A689A689A689AA3
:101D30008FB108958DE08A95F1F70000E3DF8BEA1B
:101D4000E5DF8FEFE3DF8FEFE1DF8FEFDFDFDCDF5A
:101D50008DE08A95F1F700000895EF92FF920F93BE
:101D60001F93CF93DF93EB01E82E142FF22E032F56
:101D7000C9DF83E0CBDF8E2DC9DF8D2FC7DF8C2F2E
:101D8000C5DFCF2DD02FCE01810F911D8C01C01743
:101D9000D10721F08FEFBADF8993F9CFDF91CF918F
:101DA0001F910F91FF90EF90AFCF1F93CF93DF93D1
:101DB000EB01182FA7DF83E0A9DF812FA7DF8D2F8D
:101DC000A5DF8C2FA3DF8FEFA1DFC82FD0E0DC2FA2
:101DD000CC278FEF9BDFC82B97DFCE01DF91CF9110
:101DE0001F910895CF92DF92EF92FF92CF93DF93EE
:101DF000EB01F82E87DF83E089DF8F2D87DF8D2FC2
:101E000085DF8C2F83DFC0E0D0E0C12CD12C7601A0
:101E1000FE2CED2CDC2CCC248FEF78DFC82A219609
:101E2000C430D105A9F770DFC701B601DF91CF91AA
:101E3000FF90EF90DF90CF900895EE27FF27AA271D
:101E4000BB2708C0A20FB31FE41FF51F220F331FCB
:101E5000441F551F969587957795679598F3704021
:101E6000A9F7009799F7BD01CF010895FB01DC01A7
:101E700004C08D910190801921F441505040C8F761
:101E8000881B990B0895DC0101C06D9341505040AF
:101E9000E0F70895A6E1B0E044E050E00AC0242F46
:101EA00017D0252F15D000C012D0272F11C0DC016C
:101EB000CB01FC01E199FECF06C0FFBBEEBBE09A6F
:101EC00031960DB20D9241505040B8F70895262F2B
:101ED000E199FECF1CBA9FBB8EBB2DBB0FB6F89409
:0E1EE000E29AE19A0FBE01960895F894FFCFA2
:061EEE004953504C0000B6
:0400000300001900E0
:00000001FF
