:100000007DCE97CE96CE95CE94CE93CE92CE91CEF7
:1000100090CE8FCE8FCE8DCE8CCE8BCE8ACEA09230
:100020007F7B7A807A63677E8B90878090988572D9
:10003000686D807D6F788A989B85778284796C6102
:10004000728D8C83848B9893756871797D746C83C1
:100050009A978C7E7C8A8269636D808F837B8C9873
:1000600095836B6C7E7C706E77929F8C7F83888982
:10007000755E687F87857C819A9D85736E788373B2
:1000800064748A99957F7E908D7A6660778A80778E
:100090008091A09374707C80786666859991857F45
:1000A0008A978366637183857476919F97806E7A51
:1000B00087796665779497827E8C958E715E6F8264
:1000C00080767184A19D8376798584685D738B9435
:1000D0008879879C937965677F85726D7F98A28CFC
:1000E000747B8985715D678893857C83989E816622
:1000F0006A7A8478667495A0927C778A8F745F633D
:100100007C9389767F979F8E6D647B8577676B8AFA
:10011000A3967D7A889281605D788C8A797692A5A3
:1001200093756875887D6466819B9C8276899687C5
:100130006A5A6E8B89767488A39F7C697685826AF9
:100140005D76979A8778829A93705D68828C786CD6
:10015000829EA28A6D7188876E5D698D9E8A788184
:10016000969B7F5E627D897D6B7599A79075708384
:100170008E765B63829991787A969F89675E778B9A
:100180007D696E8DA79A7971848F7F60597A959079
:100190007B778FA5936E60718883686586A29F8246
:1001A0007081958665586E90937A738AA39D796065
:1001B0006F87846C60789EA287747E95916D566778
:1001C00087927F6E82A2A384676A85896E5D6E9333
:1001D000A48E757D949779595F8190806E799BAAE2
:1001E0008E6C6A808C765A648AA1947978939E8307
:1001F0005F5A7790836B7193AA9A74687F8F7D5E44
:100200005A7E9F977C768DA3906658708B876D6819
:1002100089A9A17F6A7A9185635671969B807288BD
:10022000A29B745868878970637BA3A8876D7790B9
:100230008F6C52668D9B867080A2A4805E62828DD8
:10024000735E7199AB927074909576555B849A88C1
:1002500070799BAB8C64617C8D7A5D6590A999788F
:10026000718D9C805A5677968C6F7295AC996E5EA4
:10027000798F7F605B81A79F7C71889F8E61516FB2
:10028000909073698AADA37A61728F886355749E6A
:10029000A5836E84A1996F50648B9175657EA7AD1F
:1002A00084646F8C8F6C506795A48B707CA0A37A4C
:1002B000565D82937960749FB0926A6B8B9374538E
:1002C0005B89A48F72789AAA895B597B907F61675A
:1002D00096B19B746A859A7E55547B9E96747195EF
:1002E000AC966854729183635F86AFA67A6A829AED
:1002F0008C5E4B6F98987A6B89AFA373586A8C8C1D
:1003000066567AA6AC87697C9D95694C60909C7C0A
:100310006880A8AE825A66898F6F52699EAE8F6FD1
:100320007699A1754E59839A846475A3B291645FDE
:10033000849474545D8DAE98717495A58655507AE9
:100340009687696A97B69C6E617C9581555481A6A3
:100350009F796D90AA91624F6D948B67648BB1A960
:1003600078617B95885E4C71A1A07D6E87ABA06B98
:1003700050688C8F6C5A7FADAD8665739892644CD3
:100380006394A5836A82A7A97E525E8890725A6D93
:10039000A2B5906B71909B744A5888A08D6C74A222
:1003A000B18B5E587C9579576492B29F706C909F28
:1003B00081544C7A9F8E6E6F96B69C665877918367
:1003C0005A5587AFA37C6A87A68D5A4B6C96966F59
:1003D000678FB2A87757709387605173A8AB816D10
:1003E00083A29C6847638E9578627FB1B082606912
:1003F0008D91664C6999AC8E6B7CA3A2784E568524
:1004000097796275A3B79164688893754D598FA9E0
:100410009373749BAD8556547895835E6999B49FA8
:10042000716385997C54517BA69A747294AD9862DD
:100430004F729085655D89B5A77B687C9A8B594A18
:100440006F999F7C6A8CB0A17352648E8C665979C7
:10045000A9B387677B999369465F939D816C7FAB56
:10046000B07E5761849170516DA1B1946D72999E67
:10047000724C5483A1866779A2B4925D5B829176B7
:10048000555C92B499747291A5834F4F79988D6A97
:100490006B9CB79C6D5B78967E545681ACA5796D4C
:1004A00090A6905E476C968D6D668BB7AB755E744B
:1004B000918A5D4974A4A6856B84AB9E694B5F8C61
:1004C00096705D80ADB4885E6D938F684A5F99AC1D
:1004D000886E7EA3AB7B4C5A84937A5A6FA7B792EF
:1004E0006B698C9A704A5988A7936D77A2AD8A5927
:1004F000517C947A5D6695B99F6F6B899A804F4C59
:100500007EA094756F97B69763546F91855B5B8AF5
:10051000B1A97D6684A0885B486A9C9A756D8DB18F
:10052000A972526C8D88655277ADAD866C7B9F99B0
:100530006447618D9C7E6483AFAE835A618B8F6804
:1005400051699CB3906D7B9C9F77495486978068D6
:1005500075A6B88F63638192744D5D91AB9A757384
:100560009BA881554F769884636F9AB6A16D608180
:10057000927B555080AB9C7A7491AD935B4E6F8E9D
:100580008A686190B6A77C63789885574D709FA460
:100590007E6E8EAB9E6E4B648D8A6B5E7DAFB28439
:1005A0006876929164466595A1876D81ACA97A556C
:1005B0005C83926F5773A2B4956A719495714C5491
:1005C00088A2886F7BA0B38C595B7D8E7958629826
:1005D000B39B766E8DA07C5051789B926E729CB2CC
:1005E0009A695676917C5B5B84B0A57A708A9F8D00
:1005F0005A48709591756A8EB5A4745D6E8D885D4C
:10060000527AA4A9876D85A394694C5F8D9475690E
:1006100083AAB0845F6D89896A4F679BA88D757CBA
:100620009EA275505B7E937E6278A5B1936A6588C1
:10063000916F525C8AAA94727B9BA68756527B90DC
:100640007F656A99B79B716981957D505380A19AA6
:10065000797197AD9063526E908462658CB0A97B7E
:10066000678195845D4B709D9A7C728BADA16C54B3
:100670006A8889695A80ABAA886B79998F624D64C0
:100680008F9F806C87A8A87F5762878A6D5A6FA05A
:10069000B18E70789399724B5B8698876D79A5AF10
:1006A0008A635F7D9074566691AD9B7474949C7E52
:1006B00056507998876F7497B39A6A60798C7E5A8E
:1006C0005886A89E7F728BA38A5D526C8F8F6F6C49
:1006D00091ADA47B60748E81605674A1A4827488ED
:1006E000A0986B4F66888C766782ACAA8469708B01
:1006F0008B65516C93A38C7283A29D78575C828E1C
:100700007465799FB0906C718A8D72515D8B9F8DED
:10071000777C9CA8835D5D788C7C606E98AC9B77C1
:100720006D88947758577A9D92757A96A8946758F1
:1007300075897E666389ADA07E728196865C5271F2
:1007400091957C718FAA9B765D6A898365607CA197
:10075000A8877082968D6A50658D927D7284A6A757
:100760007E626B82876D58729BA48F757C999670A0
:10077000565E80947E6C80A0A98E68688488715BC8
:10078000648EA792797C929D80585A798D846D727F
:1007900099AD9674677C8E795A5F809F9B7C779227
:1007A0009F8B6655708D846E6E8BABA17A6B7B8B45
:1007B000826155779999837689A4956D5B6985895E
:1007C0006E6785A4A5876C798F85685769919B8230
:1007D00076879E9F7A5B6781857464779FA78C7507
:1007E000778C8F6E566584968974819EA186666229
:1007F0007C8874647091A79578798B907B5B5B7D26
:100800009188797A95A78F6E6676867C626789A0D3
:100810009A8176899681645B708D8B76788FA39BA5
:10082000796676857D68607B9C9B857A85978E6AE4
:100830005A6B838A7A7087A29F846D718683695F01
:1008400071909E8A79859793785C6480887A707DB0
:100850009CA68B72738287715B6989988F7C7F9766
:100860009A7F646277887B6B7894A3967872848889
:100870007661617F968E7E7F919D8B696375827EA6
:100880006D6F8DA2988175808D7D6360758D907E72
:100890007B909D92766470837D6D6C819C9D857943
:1008A000828C856B5C6E878C817A889E997D6B6E5D
:1008B0007E816E667A949D8E7A808F8A7260658062
:1008C0008C807884989F896E6E7D8074656E8D9B18
:1008D00090807E8D927A6364778783757D959E90F4
:1008E000786E7B8375666A81979381808D92846A26
:1008F0006274838077788D9F957E747A837B676539
:100900007B8F93867E8B968A73656D8081747586E6
:10091000999B86767C847E6D63718A9086808795AC
:100920009279686D7A80777080969A8D7C7A8683CA
:1009300070646C818F877E879495836D6B797E76EA
:1009400070788E9B90817E85867765687B88877FAF
:1009500082939889756E757E766D74879694847F80
:1009600087887C6B657484847E828E99907B727696
:100970007B786D6E8192928982878C816E68707EA1
:10098000837C7E8C97938375777E786E6C798C925E
:100990008984898D8775686F7B7E7B7A8696633FB5
:1009A00096857FA76373C2806B854F7FAA53689A31
:1009B00077A9A24C86A266856C44A29F609282773A
:1009C000BF7E488D76719E565EB88A819B5A83B5EC
:1009D0005B5F845E9AA44F85AA799E7E4194975965
:1009E000846F66C0925A977F7AAA574A9F7C7C9CF4
:1009F0005981C4757288558FA2466F9774A9934B1D
:100A000098A3678A654CAC8F59927B80C0705099CF
:100A10007678984A68B97E80955A94B35369856010
:100A2000A094468EA678A17549A5905786686DC199
:100A3000805A9D7C84A94E58A6747D93518EC06ABD
:100A400078885A9D99407A9472AA824CA69D688EA5
:100A50006059B58056937587BD625AA275809242DF
:100A600076B772818C5AA3AC4E738365A784439783
:100A70009E79A16954B1895B876078C0705E9D7969
:100A80008FA44666A97183874D9BB8627E8361AA55
:100A90008D3E848F75AA7150B0956B8F5969BA736A
:100AA0005A936F92B55466A473898A4087B26A8458
:100AB000825CAF9F4A7F816DAC7447A194789E5E43
:100AC00061B87D608A5E85BA60669E74969A417848
:100AD000A86C887F50A6AB5C847D67B07F438F890C
:100AE0007AA9645AB4896E8E5577B96863926D9A03
:100AF000AA4C72A17090814296AB67897A62B590D8
:100B00004A867D75AE684FA98D7C99546EBA726520
:100B1000885E95B4556E9C749C8B3D87A66C8C74D6
:100B200057B49F57857672B56F47988783A35666EB
:100B3000BA7F7086518AB75C6A9170A79C427EA08A
:100B400070927147A8A4648A716FBD7D488A7A81CA
:100B5000AB575CB288818F4B80B865688262A7AA68
:100B60004C7A9B78A1773B969F6B8D6865C29157B5
:100B7000866F7FB35A4D9E858E9C4B78BD77727978
:100B80004E9BAF52718E7AB48B3E8A9B73915D4EB1
:100B9000B69C678A6B80C16C4A8A758DA14A6BB717
:100BA0008889834A90B05C6A7869B29C4C85998147
:100BB000A266429D956D876176C6875E866F8BA61D
:100BC0004E579C849390508AB774757057A19C516E
:100BD000778B85B37E4B93947687545EB48F6C8805
:100BE0006F92B762558777908E487AB2898C795622
:100BF0009EA359697174B289528D988C9B5A509FEB
:100C00008B6E7C5E88C27E668476979645609786FA
:100C1000947F569CB376756664A68A4E778893B0A7
:100C200071579A937C7A4C6CB1866E8176A3AF5DD6
:100C30005D847C917A4885AE8C8B7166A8985866E5
:100C40006C80AC7959929C969254609F846C6F60D2
:100C500097B9796C85829E85436793878E7162A769
:100C6000AE79726473A47A4E75899DA66A669F9563
:100C70007F6D4B79A87E6C7A81AFA45D6584848D8D
:100C8000674A8AA98F856D79AF9059616B8AA16B8C
:100C90005E94A29F8755709F81676065A0AE756F57
:100CA0008692A377456C908982636EAFAB7C6F6848
:100CB000859F6B4C718CA2976575A69A7F61508455
:100CC0009E7466758FB599606E8A8D8457508EA319
:100CD0008C7C6F8DB3895A6072908F5D6397A79FEC
:100CE0007C5D83A07C5E576FA49D6E728FA3A16B09
:100CF0004D7690846F5A7CB3A57B6E7797975E4C48
:100D000070909E836384AEA07C5A5E8D92695D7301
:100D10009CB38C65799595774C58909C836F75A0A2
:100D2000B4855D627D937B536598AC9A736A93A199
:100D30007B565279A08C687398B19C65587E917FE0
:100D40005D5686B19F796E87A58F584D71949470CA
:100D50006590B3A376597095875D5375A6AB806B8C
:100D600086A29A694764909376637FB0B080606B87
:100D70008D91664C6A9AAB8D6C7CA3A2774F568599
:100D800097796275A3B77B85768C66B64A7AD30C61
:100D9000B1BD1EB1A139B56557C66B53C36F5AC4F7
:100DA0005563B15B80B23B94B83B97A94A929B468E
:100DB000849B5B90984AA8A64AA67B4DB37F52AD10
:100DC0007556BA6A56C06869BE4A6CB2557EB6514D
:100DD00085B14490983F969448A49B589F8D57A9FD
:100DE0008952A17A5DA56D59AF7A72B46C72B35D08
:100DF00068A6567CB35880AA518EA243939B469412
:100E00008F49A79257A98558A87553AA7061AC6DF0
:100E10006AB7666FAA5376AB5381A9558C9E5290E0
:100E20009E57948E50938E559D905FA88A5BA582A5
:100E30005CA87563AE746BAB6972A85F73A1607CCC
:100E4000A35B86A4608B9554908E4E938555A7879F
:100E500054A97856AB6959B46866B05C76BB5F7FBD
:100E6000AD5487A24689A1549E9C54A299509E805D
:100E70004DAF7D50B57761BE645DB85D6AB04A77AD
:100E8000BB5085B74E96B13D8CA03FA2983CB49D17
:100E900046BA803CC7773FBB614FD05D59CD5C6B94
:100EA000C73F67C34075B83D92C33B94AE3BA19A20
:100EB00026A79B3FBA8C3CCC8C41BB6746C85D459E
:100EC000C95D68D24B66D04771B93284C83B8EB7D2
:100ED0003CACAF299FA034B0882FC29546C3764A58
:100EE000D0673FBB5A5DCD4B63D25778BE3681C5C4
:100EF0003A84AA38AAB732A6A740B68927B88D4245
:100F0000BF7248DB7B4DC65B59CB4852C75179C78E
:100F10003B7DCB3F80AB2C99B32E98A43EBC9B2C41
:100F2000B2923CB56D37CF8250C8685DDA5950C077
:100F30005170C83971CD4D8BB73499BD2D8C9A3510
:100F4000B6A531B39B46BC732DC17E48BD6057DC4E
:100F50006858C6586FC43B63BF4B87B73796C540C8
:100F60008F9C34ABA22FA5974BC38438BF814ABA5C
:100F70005D47CF6B58C35E77D24965BE4881B632B4
:100F800089C74999A738ABAA2E998B3DBF8832BC37
:100F90008C4FC3633FC86A4AB44D67D85467C54F86
:100FA00081BD2B75B94291A732ACB93BA0933BBD33
:100FB0008B2AB08751CB7145D07452B84A58CF5163
:100FC0005EBE5086CA3877BA408BA22799B440A437
:100FD0009C45C49C35AB8049C47443CB8061C458E4
:100FE0005CCF5C5FB5487ECC477BC05095AC2B8D09
:100FF000AE3F9A9339BAA741AD8747BF7433B379EF
:101000005BC66259D16B61B4476FC6466CB54E94EE
:10101000B9368BB243968E27A7A33DA98A49CA85C4
:1010200033B1734FC35A43CF7065C44D6AD44B5F1D
:10103000AF3C86C53684C24EA0A4269CAB399E86A2
:1010400039C79B3EB78454CB6737BD7061C45368C2
:10105000DC616BB74380C43774B64DA2B1339FB522
:1010600046A0852EB59638AC8559D27A40BB735EC2
:10107000BC4A55CF666FBC4C85CE426EA74096AB3E
:101080002B94B44DAB902FB49D39A07446CC8342C1
:10109000BB7B63C85445C06362B34574D35671AE1D
:1010A000468FB32C7BA84AA39B34AEAD49A37939B4
:1010B000BD833AAF7861D3684CC96D66B93F62CFE2
:1010C0005572B94A99CF397DAC409FA024A1B34C49
:1010D000B18B38C59535A56D4BCF6F42C77A6FCCB4
:1010E0004C57CC5765AD3C86D4497EB44BA3AC235A
:1010F00089A543A68D34BFA846AA7544C47233AFF0
:101100007267CD5B56CE6B69AD396FC74A6FAC4D18
:10111000A4BF3687A948A08925A8A64CAD804AD08F
:101120008839A76957C75846CA7777C2456ACF4FEB
:1011300065A33B93C93C83B553AC9E2198A543A2BC
:101140007A3BD09F47B1755AD05F33B56C70C94BAD
:101150006BE16771A83186C93573AB4EB7B5299D70
:10116000B34CA9751DB9993EAE775BE67A38B26685
:1011700062C53F4FD8717EBC3B85DA446D9E37A176
:10118000B5248EB455BA9024B29F3AA06840DA874D
:101190003BB16A5FCA4537BE6571BE3F7DE85F7788
:1011A000A73493B92173A44DBCA931B6B64DAA6C2E
:1011B0002BC78C38AF7267E96E48CB7273C2315956
:1011C000D65D79B73F9ED832709D39ACA51BA1B6CC
:1011D00055BD7D26C792309F5745DC6A36BE696F84
:1011E000CE3243CA566FB53394F05284B13CABB0A3
:1011F0000D7EA244BB912AD2BD53BD7141E17D3029
:10120000B66E71E95247D2636CB01D69DE4F7BB494
:1012100040B3D2257DA23CAE8707A4A949B9753752
:10122000DD8A2DA35856E25C42D1727EC92958D17D
:1012300048689F269DDE3E8DB64DC1A30B939F410E
:10124000B47429D8A142B15D4ADE5D2CB8637ADE60
:101250003F5EE05F78A9177ECF327AA943C8C524E4
:101260009BA843B77613C3A34AC16E4EEF7732B142
:101270005565DA3E4EDC6C8BC7277BD7376C9522E1
:10128000ACC62798B150CA8E0FAC953AB16139EB14
:101290009147BF5F62DF4234BE5B81D03279E8584C
:1012A00081A21C97C1207FA047D1AC20AEA345B539
:1012B0005F1BCD8C43BB6263F3643CB7506DC523A9
:1012C00058DB6394BE2E9CD52F778F2CBCB01FA704
:1012D000AC56CE791AC28B39AC4F49F17A4CC65E06
:1012E00077D92C43C24E83BA2490E54A8C9E26B00F
:1012F000AF108B9748D79428CC9F49B74C2BD97205
:1013000040BF5C7AF64F50C74F7DB91470D74E95E9
:10131000AF2FB9CB24868930C18E16B7A55CD369AF
:1013200031D87B39A64058E95A51C9618FD0205C29
:10133000C54686A523ADE0459A9C35C2990B9A9285
:101340004ED77D34E39C53BF4A46E25A3EBD578B8D
:10135000F04066D55086AA0C85D24098AA3CD3C2EC
:1013600021998C39C67416CA9E5DD46047EC6E3BD9
:10137000AD3E6BE6415AD55F99C71776CA3783935E
:101380001EBDCC32A19840CE7E03A48146C85C3CF1
:10139000F08A53BA3E5ADC393FB84E97DB2B7DD9E1
:1013A0004C92980B9FC12D9A9743E2A61FAE87459A
:1013B000C6541ED6875DCF5266F65746AF387FD6E5
:1013C0002971DB5EAEBB1A9DC72E8F8527D4B63040
:1013D000BC9B58E26D18C27A4EC64854FB745EC37B
:1013E000407BDA2350B945A2C6219DDA469C870D81
:1013F000B3A51A9F884CEC8923C27E4CC1362BDCE6
:101400006C5BC64580F43E52AE318BBA0C7FCF5038
:10141000B3A41BBAB822936F2ADA8F26C58E63E273
:101420005027CF634EB8306BFB596BC43F98CD0E3D
:1014300067B63CADAB1CBFD143AF7E23D38D17AF96
:101440007B5BF56F3AE37B61C6274CE65064C44092
:10145000A3F12E73B833A2A3009DC545BE932ADD28
:10146000A51EA46438E16827D57F6EE23C45E04EB6
:1014700053AF2181EE3C79C43FADBA027FAC30ACB2
:101480008D1AD2BD3DB97435DD6E14B56860EA4F72
:101490004AED6A69BC1B66DE3468B93BB8DD208D55
:1014A000B937AE8901B4B23DC28240F49027B55D30
:1014B0004CDE4837E1737EDB336BE74063A7209C4B
:1014C000DA2A8FC249C5A608A2A22FB07229E8A4C1
:1014D00041C66C51E45025BE596DDA3A6AF25E7D20
:1014E000B61C86CB1E74A83AC7C021ACB03DB56D02
:1014F0000DC4933AC16D55F77237BE525ECE29497D
:10150000D95C87CA2D8FDE3073971DABB519A0B19A
:101510004BCE8813BC8E31B1583BF08249CF636DFE
:10152000E3373DC44A7AC82A8BF05191AE23A8B95B
:10153000128A9D40D6A227CDA94BC55D26D8753A03
:10154000C25C6EFB584FCD4D75C11567D74A94BA32
:101550002CB1CF24898E24BA9110B39F4FD6712B12
:10156000D77A37B34551ED5F56D45B86D9245BC338
:101570003982AD1EA5DD44A6A835C6A1119E8940BD
:10158000D37C31DE9252C54941DB5644BF4E83EBDA
:101590004069CD4688AC0C81C2379AA333CBB926BB
:1015A000A18433C4721BC58E5BD75F49E46545B225
:1015B0003867DF4166D3589FCD217FC0328B951DA0
:1015C000B9C237AF9940D18315AF7C46CC6043EAAE
:1015D000805BC7455ED83B4DBB4692D93489D34624
:1015E000979D129EB22DA49741DDA12EB88043C7CE
:1015F000582DD17861D35369E85157B2337CC92B48
:101600007BCB50ADB824A0B22B978025C69F35C0A8
:101610008C53DA692BBF654EC4485DEA666EC63FDF
:101620007ECC2766B13BA1BB2BA7C443AA8A1DB5BC
:101630009327AD7F4CE2813CCA7153C43E42D25CD9
:1016400069CA4889E44270B13190B11C91BD4AB871
:10165000A22DBDA22EA46F33CF7F3AC97E65DB5584
:1016600043C9555AB93773E0517DC04099BE207DBA
:10167000A637A99F2CBCB547B77C30C47A2BB26E75
:101680005BE06951D56967BF335CCC4873BB43A04D
:10169000D43A88AB359F9619A1A847BE8D3DD08F0F
:1016A00036AC6042CB5E42CB6E73D44760CC4968A7
:1016B000AB2E89CF418FB946AFAA1F959A38AE8518
:1016C00034CDA04CC07249CE6336B65E67D4526644
:1016D000D85E78B72E78C0377EAD42B1BE37A0A5B0
:1016E0003FAC8122B29146BE7B53DC7C46B7595851
:1016F000C44855CA6181C74380C841799F2F98B2B9
:10170000359CAA4CB9932BA9883AAB6B40CD81523A
:10171000C16760C94D49B34D6EBD407CCE5388ACA6
:101720003390AD2E8A9B42B9A23BB49949B46E3333
:10173000BB784BBD6B67DC6A5DBF556EB93A6CC256
:10174000558FB9449CBC3E8C9437A89937AE9D57B1
:10175000C48341BC7A46AD5B54CC6A60C36379C430
:101760004464B3487DAC3D94C24E98A13EA4972DED
:10177000968A47BA8846C28C55B66048BC6150B458
:101780005D76CE576EBC507BA8317CB24893A7479C
:10179000AEAC3E998A3FAB7E38B38C5CC27455C503
:1017A0006D51AB5264C2576DC0608ABA417DAF447F
:1017B000869B3EA3B14DA59A4EB28737A47F51B800
:1017C0007557CB8064B95D63BC525FB05885C0501B
:1017D00086BB538C9C3791A2439A9752B99947A8DC
:1017E000824DAC6944B67962BB686CC66060A84D36
:1017F00073B14679B75C95AA4492A4418B8942ABF8
:10180000984BAD925CB87644AC7255AD6265C871C8
:101810006EB65D78B3466AA8528CAC4C98B55595B7
:1018200091419E90409C8A5BBB8753B57F5AA95DCE
:1018300054B66A67B46680C15971A8517FA04187C8
:10184000AD5A9B9E50A59B46927F4DAB8250B18A6C
:1018500069B66C58B1685CA25974BD6378B261898D
:10186000A7437A9F4F8D974EA5A7569C8950A67D7A
:10187000429E7E61B67560BD7864A55666B1586BB0
:10188000AC618EB65282A852878F3F93A0549D922E
:101890005BB28D4A9B7956A76C55B58071B2676E65
:1018A000B55F649D557FB05682B065959D478C9A13
:1018B0004E8E8753AD9958A4875FAB6F4AA275656A
:1018C000AB686EBE726EA25776A74D6FA15F94A7EC
:1018D0005290A5588D83449A90509A8865B682524A
:1018E000A2765FA15D5BB27572AB647EB45A6A98F2
:1018F0005585A04D89AB679B934D99934D8C7C5931
:10190000AF8A5AA9866DAC6654A56E67A0607CBD8F
:101910006D77A25E869F47769C60969855A0A35DE2
:10192000917B50A1814E9A8271B5775FAB776898B1
:101930005468AE6A75A36790AE55759559898C4900
:1019400091A2679B895AA68A4E8C7361AA775DAC77
:101950008478A76065A76668945C86B4657FA26793
:101960009194457F965E92895BAB9F61967C5FA563
:10197000744E9A7F77AF6F6DB4796F945475AA5F88
:10198000749F6D9BA855829B5F897F49999C639941
:101990008669B0834F8F7467A2665FAF847CA16055
:1019A00075AB60668C5C8CA75A84A46F9689488A54
:1019B000925A8A7C62B19460987E6DA366509A7A3E
:1019C00077A2677AB876738F58809F53739A70A006
:1019D0009C56919D6389734E9F905F978477B57BEA
:1019E0005696766D985B68B1807E9D6687AB5C6924
:1019F0008B618F99558CA775988452978F568577F0
:101A00006AB18A619F8578A15F579E7572976485D8
:101A1000B97275916189954A74976F9B905A9D9F91
:101A200064877057A0825793847EB2735E9F786EEE
:101A30008E536DAE757A9A6B93A8566E8B628D89B4
:101A40004F92A57497805CA1885182736DAD7C62C2
:101A5000A5897E9D5A62A26E6C8E638FB66C7A9752
:101A60006B908C457A976D958760AAA064887262A6
:101A7000A27551948583AD6D69AB7B6E875176AB52
:101A8000697598739EA453779165897A4C99A27071
:101A9000957F6AAD824E837170A56B63AC8B839A20
:101AA0005970A66567856195AE62809E7497834381
:101AB0008393668D7B66B59B648E766EA2664E962A
:101AC0008183A56678B57A71845381A35B74977717
:101AD000A69C53869767876E4EA19969958078B5C5
:101AE00079508A72749B5C68B38884975C82A95B26
:101AF0006582629AA0588AA3799A7A47918E5D8608
:101B0000726DBA8E61957B78A057529B7A7F9A60EE
:101B100087BB737384588C974B769778A790559AA8
:101B20009A65866555A78860978085B76D599771C6
:101B300074904F73B57D84966395A7516A83629ABA
:101B40008E5096A77A9C7551A08754826D74BC8084
:101B500062A181819D4D5BA17178905E96BD6B788D
:101B60008A60948B3F7B9776A4845AAB9B63856194
:101B70005DAB785797828DB66462A3737485477D99
:101B8000B47080946BA5A149728664977A4CA2A523
:101B9000789B7061AE7B4E82697CB56C67AC858941
:101BA00096476CA56573865EA5B56182906A9C7B3D
:101BB0003A8692719E7765BB966289616BAA63547F
:101BC0009B8093AE5C74AE70757D4589AB618194EA
:101BD00073B1984781896493694DAC9D739C717210
:101BE000B7704D86687FAA5C6FB5848D92497EA5DB
:101BF000596F7F5FACA9598C9673A06F3C928C692A
:101C0000966D70C58D638F6678A651559D7C93A3A4
:101C10005787B66D777748949F5181927AB78B49F1
:101C2000928C668D5A53B4906E9B7285BC63528CB5
:101C300067839B4C7ABA81918D4F94A24E6F7963E2
:101C4000B096539A9B7BA363469F81618E647EC945
:101C50007E67986C859D415EA0749195569DB8678E
:101C60007C75529F8B44879180B77C53A68B668787
:101C70005061B77C699A7597B8565F9569858742B8
:101C80008AB87890865DA9984674776AAE7D52A826
:101C90009C80A05B58AB755B86608AC36D6EA17536
:101CA00091933A6DA06B8B8659AEB36283795FA630
:101CB000783E8D8C80B16F61B78968854D6EB36752
:101CC000659B78A2B14F709E6884783F96AF6C9107
:101CD000856AB78D437E776DA66855B398829E5905
:101CE0006DB36759835E94B75D79A97A9A87398015
:101CF0009D60857960BCA65D8D7C6EA811241FBE99
:101D0000CFE5D2E0DEBFCDBF10E0A0E6B0E0EEEB65
:101D1000FFE102C005900D92A236B107D9F720E08D
:101D2000A2E6B0E001C01D92A736B207E1F7F8D0F5
:101D300044C166C11F920F920FB60F9211242F93C8
:101D40003F934F935F936F937F938F939F93EF9303
:101D5000FF93809161008EBD8FE389BD8091660005
:101D6000833009F466C048F4E0916400F0916500A6
:101D70008130E9F0823059F105C08430A1F185301D
:101D800009F48CC0E0916400F09165009F012F5F21
:101D90003F4FEA57F24FE49126378FE0380709F0BA
:101DA0008EC0109265001092640081E03FC09F01D8
:101DB0002F5F3F4F3093650020936400E256F64F4B
:101DC000E491283E334009F07EC082E02FC09F019D
:101DD0002F5F3F4FE25EFF4FE491203889E03807E4
:101DE00009F06DC022C02091640030916500A90106
:101DF0004F5F5F4F5093650040936400F901E25ECE
:101E0000FF4FE491909163009F5F909363009F77F1
:101E1000D1F14038594009F056C030936500209305
:101E20006400809160008032B8F183E080936600A6
:101E30004AC0E0916400F09165009F012150310992
:101E40003093650020936400E25EFF4FE49190912F
:101E500063009F5F909363009F7739F490916000D7
:101E6000992319F091509093600037FF2CC081E0C6
:101E700090E09093650080936400809160008032D0
:101E800058F084E0D3CF90916000992309F4C1CF3A
:101E9000915090936000BDCF85E0C8CF8FEF8093C5
:101EA00060008FE78EBD10926500109264008091F3
:101EB0006200811117C019BE1092660013C03093E2
:101EC000650020936400E13870F08E2F90E06091FF
:101ED000600070E0805891095FD081589F4F80E882
:101EE000890F0DC0EFE76091600070E080E890E03E
:101EF0008E1B910951D081589F4F80E8891B809398
:101F00006100FF91EF919F918F917F916F915F9110
:101F10004F913F912F910F900FBE0F901F901895EA
:101F200014BEA8959EE088E10FB6F894A89581BDEF
:101F30000FBE91BD86E087BD19BE81E680BF8FE7E9
:101F40008EBD83E08ABD8AE083BF8FE389BD82E1D5
:101F500087BBC39AC09AC4987894A8952FEF83EC56
:101F600099E0215080409040E1F700C00000C49A01
:101F700080E020E1A895813031F010926200B399A1
:101F8000F9CF81E0F7CF8093620029BF96B393FB2E
:101F9000992790F98927EECF0024552704C0080E11
:101FA000591F880F991F009729F076956795B8F308
:0E1FB0007105B9F7802D952F0895F894FFCF95
:021FBE00FF7FA3
:00000001FF
