:1000000012C02CC02BC02AC029C028C027C026C0BF
:1000100025C024C023C022C021C020C034C31EC0BC
:100020001DC01CC01BC011241FBECFE5D2E0DEBF27
:10003000CDBF10E0A0E6B0E0E0E6FBE002C0059036
:100040000D92A037B107D9F721E0A0E7B0E001C0D9
:100050001D92A532B207E1F7CBD480C5D1CF409134
:1000600075005091760060917700709178008091D2
:10007000710090917200A0917300B09174000A9683
:10008000A11DB11D84179507A607B70708F00895AD
:1000900040937100509372006093730070937400EA
:1000A00089B3809582958F706BE870E083708AD4F5
:1000B000809370000895CF93DF93CDB7DEB7289774
:1000C0000FB6F894DEBF0FBECDBF68E0CE0101963B
:1000D00055D029818A81FE013196AE01495F5F4F7B
:1000E000928129272983938189278A833296E4176D
:1000F000F507B1F790E0982F8827820F911D14D350
:1001000028960FB6F894DEBF0FBECDBFDF91CF911A
:10011000089581E081BB8AE18DB9D29AD19AD098B5
:10012000DB9AD39A0895DB980895DB9A08958FB9E6
:100130001EB8689A689A689A689A689A689A689ADB
:10014000689A689A689A689A689A689A689A689A9F
:10015000689A8FB108958DE08A95F1F70000DB98D9
:100160008BEAE5DF8FEFE3DF8FEFE1DF8FEFDFDF9C
:10017000DB9A8DE08A95F1F700000895FF920F93C6
:100180001F93CF93DF93F82E192F062FDB988BE464
:10019000CEDF8FEFCCDF8FEFCADF8FEFC8DF8FEFBF
:1001A000C6DF0930B0F008E0CF2DD12F015010E0AC
:1001B0000F5F1F4F0C0F1D1F8FEFB9DF8993C01703
:1001C000D107D1F7DB9ADF91CF911F910F91FF906B
:1001D00008950111E9CFF6CFEF92FF920F931F938D
:1001E000CF93DF93EB01182F042F7901DB9883E085
:1001F0009EDF812F9CDF8D2F9ADF8C2F98DF0023CD
:1002000069F0E701015010E00F5F1F4F0E0D1F1D39
:100210008FEF8DDF8993C017D107D1F7DB9ADF917C
:10022000CF911F910F91FF90EF9008951F93CF935F
:10023000DF93EB01182FDB9883E079DF812F77DFE5
:100240008D2F75DF8C2F73DF8FEF71DFDB9ADF91DE
:10025000CF911F9108951F93CF93DF93EB01182F38
:10026000DB9883E064DF812F62DF8D2F60DF8C2FCE
:100270005EDF8FEF5CDFC82FD0E0DC2FCC278FEF65
:1002800056DFDB9A9E01282BC901DF91CF911F9188
:100290000895CF92DF92EF92FF92CF93DF93EB011D
:1002A000F82EDB9883E043DF8F2D41DF8D2F3FDF7A
:1002B0008C2F3DDFC0E0D0E060E070E0CB01CC24CB
:1002C000D62EE72EF82E8FEF32DFA7019601282BCE
:1002D000CA01B9012196C430D10589F7DB9ADF91B3
:1002E000CF91FF90EF90DF90CF9008950F931F93E1
:1002F000CF93DF93C62F172F082FD42FDB9883E0DF
:1003000016DF802F14DF812F12DF8C2F10DFDD230B
:1003100039F0C0E08FEF0BDF82D1CF5FDC13FACF73
:10032000DB9ADF91CF911F910F910895EEE8F0E0F5
:1003300080819181891B8F770895609175007091FC
:10034000760080917700909178000895811102C025
:10035000DF980895DF9A08951092790010927A003C
:1003600010927B0010927C00109285001092860003
:10037000109287001092880010927D0010927E00EB
:1003800010927F001092800010928F0010928E00C9
:100390001092900082E089BD87EC90E00197F1F720
:1003A00000C0000009B400FEF7CF86E089BD19BE89
:1003B00081E280BF81E08FBD9FE79CBD85BB82E06D
:1003C00083BF8AE283BB80E189BFDF9A08950F93E0
:1003D0001F9380919000811125C0A8DF811129C051
:1003E000409185005091860060918700709188004F
:1003F0008091790090917A00A0917B00B0917C006F
:10040000480F591F6A1F7B1F81E000917D001091EA
:100410007E0020917F003091800004171507260789
:10042000370718F41F910F91089580E01F910F91E5
:10043000089581E0F7CF4F925F926F927F928F92F3
:100440009F92AF92BF92CF92DF92EF92FF920F9363
:100450001F93CF934B015C0129013A0180919000D9
:10046000811174C063DFCFE7C81BCC2ED12CE12CE7
:10047000F12C80927D0090927E00A0927F00B0923D
:1004800080008092850090928600A0928700B092B2
:1004900088004092790050927A0060927B007092BE
:1004A0007C00980140E050E0CA01B901615C7D4BDD
:1004B000804F9F4F24D323BB60917D0070917E00BD
:1004C00080917F00909180004C2F10DF80917D0003
:1004D00090917E00A0917F00B0918000C80ED91E3F
:1004E000EA1EFB1EC0927D00D0927E00E0927F004B
:1004F000F0928000409185005091860060918700C5
:10050000709188008091790090917A00A0917B0091
:10051000B0917C00840F951FA61FB71F80938100A8
:1005200090938200A0938300B0938400CF911F9199
:100530000F91FF90EF90DF90CF90BF90AF909F9082
:100540008F907F906F905F904F900895C12CD12C29
:100550007601CA94CFEF8DCFCF92DF92EF92FF92C8
:100560000F931F9380919000811140C0DFDE0091B6
:100570007D0010917E0020917F003091800040919D
:100580008100509182006091830070918400401B33
:10059000510B620B730B51F190E8981B913230F1C3
:1005A000C92ED12C81E0C81AD1080D2C000CEE0800
:1005B000FF084C155D056E057F05F8F04C2DC9014F
:1005C000B80194DE80917D0090917E00A0917F0023
:1005D000B0918000C80ED91EEA1EFB1EC0927D009D
:1005E000D0927E00E0927F00F09280001F910F91E8
:1005F000FF90EF90DF90CF9008956A017B01DECFEE
:10060000EEE8F0E0118210821282089580E80895E9
:1006100080919000882311F080E8089587CE909112
:100620008E00E92FF0E0E257FF4F838381E0890FCE
:1006300087FD0AC080938E0090918F0098130895D3
:1006400081E080939000089510928E0080E0F4CFB6
:1006500080919000882379F090918F00E92FF0E04D
:10066000E257FF4F83819F5F97FD0AC090938F00F1
:100670001092900008955ADE8111EECF8FE7089511
:1006800010928F00F5CF1F920F920FB60F92112488
:100690002F933F934F935F936F937F938F939F938A
:1006A000AF93BF93EF93FF93809160008CBDD0DF39
:1006B0008093600023B38091890090918A00820F1B
:1006C000911D90938A0080938900883E23E09207D1
:1006D000D0F0409175005091760060917700709154
:1006E00078004F5F5F4F6F4F7F4F4093750050937F
:1006F00076006093770070937800885E93409093C3
:100700008A0080938900FF91EF91BF91AF919F91F3
:100710008F917F916F915F914F913F912F910F90AA
:100720000FBE0F901F901895009721F090936200D4
:10073000809361000895CF93DF93CDB7DEB72897FC
:100740000FB6F894DEBF0FBECDBF88E0E3E6F0E061
:10075000DE01119601900D928A95E1F7809161007A
:1007600090916200FE013196DE01199640E050E062
:10077000219131912823392361E070E0232B11F47A
:1007800060E070E046275727AE17BF0789F7880F4C
:10079000991F842B952B909362008093610028967B
:1007A0000FB6F894DEBF0FBECDBFDF91CF91089595
:1007B0000F931F93CF93DF938C01EB01BCDFBE013E
:1007C000601B710B88D1800F911FDF91CF911F911A
:1007D0000F910895CF92DF92EF92FF921F93CF93E4
:1007E000DF93EC01162F6CE070E080E090E051DDCB
:1007F0006B017C0160E170E080E090E02CDD18820C
:1008000019821A821B821C821D821E821F821986F7
:100810001886212F30E040E050E02C153D054E05B4
:100820005F0518F5BC0180E090E03CD16B017C01D4
:10083000685F7F4F8F4F9F4F2CDD688379838A835A
:100840009B83C701B601645F7F4F8F4F9F4F21DDB0
:100850006C837D838E839F83C701B601605F7F4F6A
:100860008F4F9F4FF8DC99878887DF91CF911F9139
:10087000FF90EF90DF90CF9008958F929F92AF926C
:10088000BF92CF92DF92EF92FF920F931F93CF937D
:10089000DF93C0901101D0901201E0901301F0900D
:1008A00014012FE0FB0111922A95E9F74C01A12CCC
:1008B000B12C009115011091160120911701309172
:1008C000180180169106A206B30670F080E0DF9151
:1008D000CF911F910F91FF90EF90DF90CF90BF903D
:1008E000AF909F908F900895EB01609119017091E6
:1008F0001A01C7D0C80ED91EE11CF11CC701B601F0
:1009000095DC8883C701B6016F5F7F4F8F4F9F4F84
:10091000C0DC69837A838B839C83C701B6016B5FDC
:100920007F4F8F4F9F4FB5DC6D837E838F8398877A
:10093000C701B601675F7F4F8F4F9F4F8CDC9A874F
:100940008987C701B601635F7F4F8F4F9F4FA1DC3F
:100950006B877C878D879E8781E0B9CFCF93DF93AC
:10096000CDB7DEB728970FB6F894DEBF0FBECDBF68
:100970009E012F5F3F4F44E060E070E0CB012CDC34
:1009800044E050E06BE670E0CE010196DAD0892BAE
:1009900051F080E028960FB6F894DEBF0FBECDBFB1
:1009A000DF91CF91089561E08BE191E013DF62E088
:1009B00081E191E00FDF81E0EDCFFC011182108237
:1009C00062830895FB01428184272181308132278F
:1009D00038233083209528232183982F9095932BBB
:1009E000922B892F80954827428340958423089530
:1009F000CF93DF93CDB7DEB72F970FB6F894DEBF56
:100A00000FBECDBF14BEA8959EE088E10FB6F89446
:100A1000A89581BD0FBE91BD89E38BBB8EEC8ABBCF
:100A200018BA8FEF87BB60E08BE890E0C6DF94DCFC
:100A300070DB91DB7894A8953EDB90DF11E009C074
:100A4000C6DC811104C08091700080FD07C084DD88
:100A500006DBA8951123A1F36EDEF2CFBE016F5F16
:100A60007F4F80E090E009DF0A851B852E813F8162
:100A7000488559856A817B818C819D81DCDC10E011
:100A8000E6CF0024552704C0080E591F880F991F70
:100A9000009729F076956795B8F37105B9F7802D21
:100AA000952F0895EE27FF27AA27BB2708C0A20F7E
:100AB000B31FE41FF51F220F331F441F551F9695C8
:100AC00087957795679598F37040A9F7009799F700
:100AD000BD01CF010895AA1BBB1B51E107C0AA1F8E
:100AE000BB1FA617B70710F0A61BB70B881F991FCF
:100AF0005A95A9F780959095BC01CD010895A1E282
:100B00001A2EAA1BBB1BFD010DC0AA1FBB1FEE1F87
:100B1000FF1FA217B307E407F50720F0A21BB30BD2
:100B2000E40BF50B661F771F881F991F1A9469F74E
:100B300060957095809590959B01AC01BD01CF01AA
:100B40000895FB01DC0104C08D910190801921F40E
:100B500041505040C8F7881B990B0895F894FFCF77
:100B60007FEFBE00800040001008004953504C0049
:00000001FF
