:1000000056CF70CF6FCF6ECF6DCF6CCF6BCF6ACF27
:1000100069CF68CF68CF66CF65CF64CF63CF807F6D
:100020008080817E7B7E88897B7884867371808ED8
:1000300086766D7A8D846B6CA3A47C797B828F9796
:100040008B7B929251458989677185839D996B60FD
:1000500075A49D868672608385829BAB98738BA006
:100060006B3C58719CCAA85B5D8574666D7E8B96EF
:100070009C6F6B7953256ECBBA7969A4A08E8D7075
:100080004F8BB8754073B39B798BA8AC823D427B94
:10009000956C5299C8835B7C92786A7284B1B07116
:1000A0002539AAEEA947317DB897716A758CAFA63C
:1000B00080321A638285BDCC7D7198A35D225689FA
:1000C000C0C7753F88965A6783957D70585388E0FE
:1000D000B4213BC0C8706376765DAAEDAB905A142C
:1000E00041A06E497DA3BCC0A446305B7070B4BE15
:1000F0005C3D76A3A68E657991A483525E88A3B0F9
:10010000C773154F9D886EAAB28399AC634C7A4C25
:100110000E56E0DA926B71959E9677627897826FB1
:1001200080685B92CFAC7455515A83AF8090BCA36A
:10013000503D637B816989E4F593411B527B879D28
:100140006A4C7EC7BA7B6D8F775A869468658C54EB
:100150005EA6C1AB745C5473AA974165D7E37F3E3A
:1001600025225DC9FB843F7E9485804E2E7CC09EF7
:10017000524F87B6BB947B87A65F226295A68D629D
:1001800078A5B0885548688C9DC4BA615A8976456F
:1001900043818AB8E89533629D71719EA083714551
:1001A0004A94E5CB796776837A7046357EF0E570C0
:1001B00038628C8B856484A99D848A865357524EFD
:1001C00082C0BC8274867A7A998A4F458EBE9848DE
:1001D000398AE8F38810208F9A817F7C8CA49F56FF
:1001E0003570A6A088A39260737B6E57689D8B5E66
:1001F000709BAEA8906373ACA682544D6180AB94A3
:1002000075979F7A69514F6D8FA5A59A82753D3478
:100210006BB0E4B4575680907F505F5B79B6AB56B5
:100220004F9E9C9DAE936045618A8075786E92A7C3
:100230008B84825E4166ACBE8C6B777E7883595727
:1002400091B9C08B615D7888777B8E806175A37B67
:100250007CB7CB8F4F52605E566683ACBC8F5557D0
:100260006E8890937D7295A08C65645A5485B09F7A
:100270006C859F8F6C698D94715E879A8C5B599D9C
:10028000D9CA9A471F3E699699928B958B94864C52
:100290005284A8C0A2726D6F807B6A7D81697EA541
:1002A000A18C7A81847A78815541838A99A08F962E
:1002B0009185663B48788C8AA0A08B865953749FA1
:1002C000B9936C7E7F798973697C7A80957B5D7543
:1002D000B1C9AF75544B59886B5E89A7AF939086AF
:1002E0005F50576C8AB8AB687798917A686F79A637
:1002F000B8966D5C4B63A5B488485273959D8D8B01
:10030000A5B28B5F4D484E7EA3A68897A17D787CD1
:1003100070687E8B86869D9B6C68787A8E9D887EC1
:100320007B70788F95805A5E95805E6396C7B9988A
:100330008B6C434C546A959B918C86959063578B3C
:10034000A19B78667D6E708D9B92645283A68863B4
:100350006B789C9D7475523F638FA99AA5AE987077
:100360006E59374E82A4A5A5967E556DA39B7E78C7
:1003700073898467647AA3897673707178908A939D
:100380009987796B5C6777839291938EAFBB7B2F54
:10039000327BA28D7F8585949785627AA69F80693E
:1003A000645F729A9089886E585D7A8799A39F8757
:1003B0007E836C4C466696B9AA8A756A8491725C93
:1003C0005773A5A48B656483ABA9726E8A97644545
:1003D0006F918E8C7676846E5A618DB3BF9E917FBD
:1003E000554355808C918B929594855C7695826966
:1003F0006D848C6C6894AD9A7C666283938065682A
:100400008EA5957C5D5376909E9C90A1AF925E3FA9
:100410004A6A92948F948F7B6083B19E736A7471E1
:10042000667E968D7E8D9D8C75524B75AEA57E6DCC
:100430007E937D6A466AABB9A7909E9172534B63D7
:100440008086928D8076829D8879788C856C625CBE
:100450005E89B6A37F707C6D5E798F959B927E736B
:1004600072605E7D8898A4A78F5F6E8C845C4A69F9
:10047000909B8879728BB0A8826A6A78745E6F9458
:100480008E92949477575D7696ACAC948C78575056
:100490007A8E907D7FA39A82675F7CA1875755777C
:1004A0008F8082949C95988C665962787D707EA02E
:1004B000A3A16A47567EA39E978C988C7359556268
:1004C000788C9A95757081938F746B797C705A6B68
:1004D0009EA6928C9D987C65485E95B18F66849DA2
:1004E0008264687E7C8DABAB906E616E7F725B6068
:1004F00088937D7782868A958F7266625D6171A826
:10050000B2AC97786D5D5E6E86858B9D976B5968F2
:10051000808077999F9A8C726A767A705E64858201
:1005200088817B83A1AD908E7451496A99927C98A1
:10053000B1A87B4F5C7B8D8A95908A796A757F82A2
:10054000868A7F959B7E706F837E7273666A7886DB
:100550008FA7AA8F939E825744608284969F938030
:100560007978687280848599946C647882717E88C9
:100570009D9676656B909784777D715B5582989890
:100580009DA8B699774D4E6B7F7C8393939280752F
:100590006C7C767597A5966C66757C7D8883817F6B
:1005A0007B7E818E8486898F7448556D88A6AF9D29
:1005B000969578615D6D656C8F98856C7583907D7F
:1005C0006C89988D7D768684737A7A807F82756A4D
:1005D00087959D929C8B61535A68859C8DA3AC999D
:1005E0006C616F666078998F7B71736F878F877F7F
:1005F00084A283726E77868C87757768647BA098F7
:100600008993A29069666662617399ADA1887472DC
:10061000716B6F778789857F646C86978E8D987DE7
:100620006676958C797E8D886E555A849896929FC1
:10063000AA936E5E5F65767C8686968C7F817F7DD1
:100640006484978974666F868D7E919E8F6B687BBC
:10065000878484918C816C564F66809DA5AAA07773
:10066000777968545A6E819B8E73788A89787B91EA
:10067000867775748185817F86918C736F7E828386
:10068000919C8E856F5D6A6C6F78A7CDA77F74771C
:100690006A676C6E819284737D90998D9388757A68
:1006A000867F737A878B90916C586E8E8C778E9A3A
:1006B0009A8D6F5A546672829FA9A08E7770667564
:1006C0007B7A7B7A7B7A85888487A7AE8D685B731B
:1006D0008C937C7C958B70646E746E8BA89E9287D5
:1006E0007D6C63646579919F8E828D8676726F7959
:1006F000897C666B84948688A09C846E6F6C71790B
:1007000081948D796C62645E7096A4A19682707DEE
:100710008166516F958E7B808E878A8D8283796BFF
:100720006B7E897779A4AD8E7A80755D69748EA0B1
:100730009E7F575F736D6781A2B3A9907A73716EC4
:10074000757D7B70728791868B8E95937B69627ABB
:100750007D768293A1938372646C76778496957C80
:100760007176615670959F9A9E98857E7D75757B92
:100770007A696B86857E88A3AB988161616E787B90
:10078000849992817C7C746E6D7F94998A7E787452
:100790006D67748794949387959670637B977A5B63
:1007A0005F6C717E969A9E9D876C6A615C698EA172
:1007B000877B7E79696F757F939F8D6F7B85776768
:1007C0007184838A8A9091807B8790836664747039
:1007D00066728CA3B0A087797062596F939B857DF8
:1007E0007A757D76717F9FA285838D7F65759185F2
:1007F0006F727C8386898C8E9783696269675F7567
:1008000092A29F9A8475736F696B868B8E888274AF
:10081000616B8299998A8F9A8A766D828C817469CC
:100820006F7B8783869CA58F766F675C66869194C5
:100830009A8D898D7F65618399877A8388797576AA
:10084000758892918D8F957E6E7A8681766A5F68C3
:10085000718096A7A18C807A6D5A66768697958866
:1008600082827A6F798D8B8281867D7A7771819190
:1008700090818491826F889F876E6B6E67606575CB
:1008800094ACA7968D8A74585C6F8E948C807C840F
:100890007B717B8F8B7D838C7D6B70869286707174
:1008A00083867E7D898C8D8373635862667392A77D
:1008B000A697958F77666D76787C868E937E677522
:1008C0009297817C8A877577818586817973727624
:1008D000758092A194827765645C5F7A969B939A07
:1008E000A7946D646F797B7C798184756E798A8D2C
:1008F000858283787B7E757E868B78716D6364805C
:10090000A19D918E8B7A69555D78959B949B978676
:100910007A807D7677797B797B75798690887F8DF3
:100920008C7E6E778C968F786E7778645E78959DE6
:100930009F9B8E7E6962667C88868A919482797F8D
:100940008B817671737A6C67749195887E7E7B75E6
:10095000787E878E92837F74665C607A8B9BA0A57D
:10096000968774687178756F89998C72758F928982
:100970007F7976736C727D8F908C8F897B6D778198
:10098000949C928B877D605467858B8596A6A98FF2
:10099000746C767D72727B7D737A8B8B838E8B7E8B
:1009A00076716D6A83908E888A886F676D86989D50
:1009B0009087897A60526D797E8B9F9C8983868629
:1009C0007E766B7070756E74838C938A8D8C866F57
:1009D0005F718D9686868B87746A6E7C8F969998E8
:1009E0008E7262667170768691918D8B7E848A7F1D
:1009F0006E6C796D6067829797958B88837A737830
:100A00008083888F907B6868757E878C999E9178AB
:100A100069727576717B898B8778818F9488807CE9
:100A20006B5B627A8489929B97937E6766818D84E3
:100A3000878F8C6E6467707E84898D9C97807176B9
:100A40007A70747D7A74787F8990908A87857763CD
:100A50005C7082909498998D7868758285848A916B
:100A600081736C696A707F8A97958782898A7B71A6
:100A700077757070737A8797938C8E927C626476A8
:100A8000868790939388777372787D889996806A29
:100A900065707476788191908D85898B877F747469
:100AA000706B616D869493989D8974717674718171
:100AB0009496917E6E6C79807C88928F8177756B2D
:100AC0007177797F8E9183828E948B898C7C61592A
:100AD00063768389909FA390796E76787981848CF0
:100AE00086786E737E78797E8D89817E7976787B43
:100AF0007C828075788E9A938A93907F6C5B576125
:100B00007C8A95A2A19378787674777F87817F78A5
:100B1000787776747F8C8F837F838B8A7F7A7983D3
:100B20007C7273818F8E98999682695E5A69708003
:100B300097A599858482776D738289877F6E6E7998
:100B40007E7A7E898A867F84868A8B84857D71629F
:100B5000697C85929AA3927C716C68686B798F9A94
:100B60009184817C7E7B807F81857770737E787DA8
:100B7000898E86778283878A90958B7B5F5D6D797E
:100B8000788198A4968A796C6C6E7474838A898053
:100B900081857E7E7F8584807C7A7F77747D8E9050
:100BA0007E787B838A8C8F918D81695F5B65778D81
:100BB0009C9B998E857B76746D78827F747C867F12
:100BC00078768A8F897A7882868883888C8176780D
:100BD000797A7C8D969C957D6B5D5E636F81969F27
:100BE0009390887F786F6D7A857971767E81808425
:100BF00087888A827E828B8C878D8471626A767404
:100C0000808B989E8E7C6D6D6863627791959996C6
:100C10008475797E7C7F7F79797777727A879091F6
:100C200086898483837F868F8A6E646A6B737B87F1
:100C3000939C9A8A7B74706C70808683868D8D8776
:100C4000857B81897E6E6C74707282969D9088839C
:100C5000797A7E858B8F87776C5D59657787929DD2
:100C600099918680786F798282777E8A8C8F888A44
:100C7000908B7A686D717B8591968D8B877D75736E
:100C8000747B8B938578726B5E606E859B9A97946C
:100C9000958B7A70737C76727A79848F938D868344
:100CA000797A7572777D8C9393897A727075737F78
:100CB00090978A7F7B6D64626D818F9D9D989182F4
:100CC0007D7D857B70747677757D879094887E793D
:100CD0007975727B8B948A7C726B6A6A707F8E974F
:100CE000908C796C6B707C838A8488908E887D81EF
:100CF000857D72686B6B71738093988E817D747241
:100D0000778086838481756D656C788A928B8D8AF5
:100D10008982797677807A767C8488898F928D7FB4
:100D2000766F66626C7A8991928E918B7A72707D01
:100D3000878F8C7D7873716B778D9292939B978A56
:100D4000827E7D77757476797D8B969B9386807590
:100D50006B626875879C9C97897E7B7579808C8C8B
:100D600085847B71696D7881889298958984848364
:100D70007E7269686E6F757D8E9D998F7A6F6868D7
:100D80006B748B93928B827D767A8388878586833A
:100D9000796E6A75808687888B8F928B847D807749
:100DA0006D6964656A7C8B959B93887C7673737E92
:100DB0008886848987777178808787857D7F817B26
:100DC0007376827F8387888280858588847F776930
:100DD000655F677A8A919396968D8072717F87841A
:100DE0008084837F77767C8488858482827C7D84FE
:100DF000817E8081797077838F98928172726D5E27
:100E0000607088949B9A908A837F7A7F7F7F8385A6
:100E10007F7374797A7B818A87847F7E868B877BD8
:100E2000716E6D70737B8F9E9B897D7366606A7A2D
:100E3000838C9495908B847E81807A7C8586756D79
:100E40007175777D8381838E8C85888E8679746AAF
:100E5000666974808B969A94877B6C6A757B7B82BB
:100E600090958F867B7B848B897E7C787575717677
:100E70007B84858588898587918F847F7B6D61647C
:100E8000717C8A9395959689746E72787B8387823C
:100E90008281807E868B84817A736B6E7A7F818675
:100EA00085807F7D7D8794948B827A716A6363707D
:100EB0008292969B998A7E7A7B75757D7C7A7D80FD
:100EC0008185878382847C6E6B7A86898C877D7826
:100ED0007E7B77839194929484716564676D7C883E
:100EE000969C9A8C7F817F76757877797C7B7A85E2
:100EF0008B847B7B7D7A7D848A8B8D8B837D726BEB
:100F000071858D8E989A8B736A686A71808A8E96C5
:100F1000968981827E7D7D796F7078787D848580E9
:100F20008387837A7C898B8B8B897E756D656F7ED9
:100F3000878E96968D7E726B6B778082818582809C
:100F4000878E8880837D766D6C727D8581858A8DA4
:100F5000847E82878C9192877B77706669727E89A6
:100F600094938A86817E7B7B7572787C7878888D75
:100F70008B8887807470696E7A868B8A8C897F7D76
:100F80008381828B938D807161626D72707D8C9193
:100F90008F8B8B858178706A6E747279838A8D905D
:100FA0008B7D76726B6D7A858A91948476737D825F
:100FB000868F908C827461626B6E717D8C8F95953B
:100FC000918883827A706D6B6D7B88898690938817
:100FD0007A71717882888E928C8074767A818A9008
:100FE0008E88867A6E6A6D717A85888A8F949692D9
:100FF0008B827C7F786A667684848C928F857E78FB
:10100000757D868B8A89837A7679797781898885D7
:1010100083797477777277828586858B8D8F908EB2
:101020008A817768656C75828F918986837C7A7FE7
:101030008082888C827470767672787B8288867ED5
:101040007F867E777C817C75797F858F99978C836D
:101050007567656C717A89938F877F7C7D808382C9
:10106000878A867A74737073757B7F878A8A8E8C81
:101070008888867B6D676E7B899194969589726767
:101080006A70717D888B8884817A7D7E7F848B8D68
:10109000847D78716B6F7A808286878D9596908A31
:1010A00085796D646873808D93958F867A7473717A
:1010B000757C828485857E7D7F7C7E89918A7F7C1C
:1010C000787472767B7E84848489929390918876FA
:1010D0006968656675868F8E908A807F7D75717967
:1010E0008383817A777C8184838788837E7A7C7905
:1010F0007D8284807C7B7C868C9093948C7D7066D2
:1011000063686D7683929A8F8783807A7B817E7FF6
:101110007F7E7B7D818286857F797A8182828689C6
:10112000847B756F7380888A8C918E837569646205
:101130006974849193928D89807A7F81827D7D7C90
:101140007D7E7B7D838479747A848C919089817F84
:10115000746C6D737D8592928C857C7164656D7AFB
:10116000868F8F8A8D8B827E838885807A777B7D40
:101170007E7A7B7E7B7E8186889095918A7E746C58
:101180006A6C71808E938D85807A7672737C868B83
:10119000868588898B8E8E86807F7C79777A797B2D
:1011A0007F7C7D7E8385888E92958F8372696A6845
:1011B000687487918E8984828283837F7D797B8026
:1011C000838589908D867B7776747573767D817E35
:1011D0007876797C84898F949389776C625F667561
:1011E00080838B8F908C8A8681807974747C8383D2
:1011F00086898C887E766F73787A7D82857E797712
:1012000073737C8D969691877D71686369747A811A
:101210008A9293928E88847E797473787C80848796
:101220008782817974747880888E877E77736F71F6
:101230007F8C979790857D7B746D6E747A80888E95
:101240008D8E8F8F87807A76787573747E8686848C
:101250007E7A77787D848D908A7F777473767B82AF
:101260008A8F8E89867F7979797974787F84888965
:101270008C8B8D8A7F77737270757D828785817C78
:101280007C7F818991928B87867C73727A7F7F8540
:10129000888E8E8B8682837D787678797D84888E21
:1012A000949083766F6D707A8187868482807C7952
:1012B0007F88928F8A8B867D726F6B6D777E858A31
:1012C0008E8D8888857E76706C68707B878F8E8720
:1012D0007D7A726B6E7B878784817E7B787B7C8452
:1012E0008C8F908B837A746D676B727B848A8E8E01
:1012F00092938E81756F6B6C6F78838C8F87847FF0
:1013000079767B84868888857F7C7C7B7E85898DC9
:10131000908E80747270716F71747C85898D9095D8
:1013200092887C716A6970767B8488888784807DE6
:10133000818183858889837D75757E848584888590
:101340007E78777A7B7C7774777E848B959A968F7C
:10135000867A6C696D737B7F83898F8E837F8085AE
:1013600086888985837E7C79797D7D7D7D7E7C7F85
:101370008385858078726F7179889596928C897E45
:1013800070676670787F83898B86817F7F7F848892
:101390008884807D7B78787571757A7B7D888F9164
:1013A0008C827A74747177818B9192938C81756E33
:1013B0006D707A83888985807E80828285888A881C
:1013C000817A797D7A716A6F777B868D9292928D20
:1013D000837C7270737C82888F938D827B77747725
:1013E0007F808384817A79818689878885827F7DE1
:1013F0007D7B7A7370717377808B919494918C81DB
:10140000726B6B737A7E858B8B84807A7B7E7E7C1D
:10141000797A75777E8282828482807E7F7F7E7FEA
:101420007C79797772717A868F95979690857768AF
:10143000676C747B838887898A8B87827C7A7B79C7
:10144000787A828684807F8182807F83888A86847E
:10145000817B7171777E8A969E9B9282746C6B6C95
:101460006E78818485888C8B88817A787B7C79788A
:101470007E81807D7C7B797B7E8385888B8B857765
:101480006C69717B858E93938B7E74706F6D6F74B6
:101490007C82848688888885817F7D7B7A7F7D7B3E
:1014A0007C81817C79787E878F91918F897C706D2A
:1014B000717A8183858787837D7A777576787C7C5E
:1014C0008084888A88878788837A77797B7D818200
:1014D000817D77747A868F9294928A807A756F6F05
:1014E00073797C8083848889847B787D7E7D7D7F11
:1014F00083898C8B8B8A837774787D8286868179C9
:1015000075757980899196978F847E776F68696EFB
:10151000777F83888E918C8583827E7A7A7C81889E
:101520008F908B827975797C7E8388887F777272C1
:10153000767F878B939691877F766C65656B757DDB
:1015400083898D9090918E857975777B7F8288894C
:10155000857D7675797F828484827F7A7573767BC8
:101560007F878F918F8A81756D6B6D7173767B84A8
:101570008B8F92928F867C7472747A7F7F80807D4D
:1015800078777B7E80828382817E7B7876747B878E
:101590008C8A8786837F7B7977767674777E8A914B
:1015A0009698938A80777274787B7D80817F7D7E28
:1015B0007D797C838A8A88837F7D7977787F828230
:1015C000828486888A878079736F737C858C9396F2
:1015D00090867D79757472747C8385807D7A777747
:1015E0007C83898D8B88827D7A76757576777E850A
:1015F0008A8E918F867C726F747C7F84898D8B86B6
:101600007F7774747679808584817C78747780881C
:101610008C8E8D8A85807B77767370727C858C92B8
:10162000939089847B747173777A81858785807ABA
:1016300075767C828786817D7B78767982898A89B6
:10164000878687857F7973706E72787F878E929395
:10165000918A8177716D6D737C82818282807D7FBA
:1016600083888A88827E7E7E818283828385858745
:101670008789858079737071767B8189939A988F39
:10168000847B726A6870797F838482838587888887
:1016900088848484838382827E7A7A7D818586842D
:1016A00086878278716F70737A8590969892847627
:1016B0006C696C72777A8084868585868687848259
:1016C000848686817D7976747374777D8285898A34
:1016D000867F78706A6D79878F93928B837A737027
:1016E000747A797A7D8386878786858587868586DD
:1016F00085827E7A7471727272757C848C908D850D
:101700007C7470727981898A878584827E7B7A79FC
:101710007A7B7D7F818384838282848585817D7DC0
:101720007E7D7875706D6E7279839096958E8680C9
:101730007A7877787C7F8485868684827F7D7B7DBE
:101740007E808081838487858381807E7C7F848680
:101750008379706A696F78869196989893867E7A75
:10176000767271777D848989868584817E7F7E7C8F
:101770007B7E808487847F79787A80878C8C857F54
:10178000756D6B717B858E94989A958C8077716E50
:101790006F737A8185858586858484807B77797D62
:1017A0008284817D7978777981888D8B8681787341
:1017B0007172757E878E9393908980776F6E717545
:1017C00077787C80878A8A87837F7A78787C818221
:1017D0007F7B7877797C82888B8C8C88847D787508
:1017E000767A7F898F908B85827D7B78777473760C
:1017F000787F878F8F8A857D7977797C7F82817EDC
:101800007B79797B8084878B91928C847A757476CE
:10181000787A7F8284848385827F797372737981F9
:101820008A8D8C89837D78787B7E81818383817C9E
:101830007776787F858E93949189817974727173AC
:10184000767A7F868C8D8A86807B77777C848A8B7C
:101850008885837F7B797A7D8287898A82807B7283
:10186000767C858E918F8C88827C7A79716D6E6E94
:1018700077858B8F8E89857F7F7F7E7D8182848433
:10188000847F7978797D7D848B8887847572757A79
:1018900081848B8A8A8683817F7F6D67686C767B83
:1018A000878D8F8E8A87867E7978787B7F807D7919
:1018B00076787A7E7E858886827B79787B7C7E7F4F
:1018C0008185888889867E76716C6B6E757E868D43
:1018D0009498968F847C7876777B8082807C7979E7
:1018E0007C8084868786858483807C7877797B80FA
:1018F000868B8C88837E7B75706F737C868F979ABE
:10190000968D827975767A7F817F7C7A797A7D7FF0
:1019100082858788888B8A857C787776797C8389AD
:101920008C8C8A88837C7674767B85909797918857
:10193000807B79797C7E807D7C7B7C7D7A7B7D82DF
:1019400085888B8A89847F79757474777A7F858B93
:101950008F8E897F7874747980878A89847D7C7B77
:101960007C7A797B7B7C7B7C7C7979797C7F8487B2
:10197000898A888582807C75706E7178818B91935D
:101980008D857D7879797A7A7C7E7D7F7F7F7D7D7C
:101990007E7D7E7F80807F7C78797D80808084875B
:1019A000898A8B8A82776C686B74808A9394918A17
:1019B000837F7774737474767A7E8181807E7F8270
:1019C00083838383827F7D7E7E7C797B7E848C9201
:1019D000948D83766F6C6E747C899093928E8A83DB
:1019E0007A726F7174787C7F828281828788878720
:1019F0008685828485827B7574757B828A91928EBE
:101A0000837B747171737A81898F908E88807972EB
:101A1000717275787C7E7E80838B8C8B88858483C5
:101A2000848585827B746F71777F858B8D8B8883AE
:101A30007C787575767B82858A8A857E79797978D6
:101A40007776787B7F83888C8D89837E7E81828484
:101A500084807B736F6F70757A82888B8D8B8880A2
:101A60007974767A7C7E818383818081807D7B77A7
:101A7000797E848B8D8D8983807E7E7F828786842C
:101A80007F7A76716E6D74808B9294948E867D7958
:101A9000787879797B7D80838587847F7C7B7E8065
:101AA000868B8D8B827D7B7B7C7D80848887837E0B
:101AB000766F6A6B737E8A939796908A84817E791B
:101AC0007675787A7F858A8B888380808284868702
:101AD00086837F7C787676787C8287898680776F2C
:101AE0006C6E767D838B8F908E8B88857E756E6C09
:101AF00070757B82858787868481807E7D7D7E7EF2
:101B00007D7A767271737980868887837D77737525
:101B1000787A7D81868A90908C887F776F6D6F72DE
:101B20007A7F85898A8C89847E79797C8182817F9C
:101B30007B7572737B83898B8B8986827F7D7A77B5
:101B4000767A80888E908F8A827A75737272777FA8
:101B5000878C8E8D88827B76797F848685817B7663
:101B600075787D8185898C8E8D8A8681797373776E
:101B70007D82868A8B8A85807B777373777F868B5D
:101B80008C88827B77777C81848585827D7A797A5F
:101B90007B7C7F848B8E8E8B868079757272747756
:101BA0007D8185888986827C767479808587868226
:101BB0007D78767A7F83848586868582807D7B7B2F
:101BC0007E84898E8F8D88847F7B76716E6E727B2A
:101BD000868D8F8E8A827C7B7E8283827F7D7B7ADC
:101BE0007A7B7D7F818588898986817C7777797DFD
:101BF000828386888A89847E766E68676E7A878F0C
:101C000091918C8883807F7E7E7D7D7C7B7B7A7AC0
:101C10007A7B80878D8E8C88837F7B7877787A7CBF
:101C200080878D8D8981766C676A717C868D9292B2
:101C3000908B8684807B797B7E7F7E7B7878797CB5
:101C400082898D8D8C8885837F7B757070747C868E
:101C50008B8C898279716E70757C82888E908F8B67
:101C600085807B7777797C7D7C787676797E8283B8
:101C7000858486878785807A726C6A6E778187888B
:101C80008784807B7777787B7F848A8D8D8A837D3C
:101C90007877797A7B7A79787A7C7E80807F7E7F8C
:101CA00083898D8B867E76726E70767C83878B8D32
:101CB0008C89847E79797D84888A8884817D7C7C06
:101CC0007D7D7C7B7B7E838584807D7A7A7E858C1E
:101CD00090908B857E77737172757D878F94928ECD
:101CE00086807C7A7C8083837F7D7E7F7F7E7D7B08
:101CF0007B7D81858887827D7773747A82888D8FDA
:101D00008F8C857C736E6B6F77838E92908B8480C3
:101D10007D7C7C7B797777797C7E7F7E7B7A7B800C
:101D200085898A85807B777474777B82888E92928E
:101D30008C82776F6D7179838A8C8C8B8987858093
:101D40007C777373757B8082828182838587898BA0
:101D50008A8784817D787472757B858F94938D8456
:101D60007C767475797E808284878989867F787392
:101D70007173777C80828384848484838282838667
:101D800088878179716E6F7680898E8D8A837F7D59
:101D90007B797776787B80858887837E7875757781
:101DA0007B7E818386878785817E7C7D8085878613
:101DB0008079737173787D828688888886837F7B3B
:101DC0007878797C7F828382807F7E7C7B7C7E803A
:101DD0008285878684817D7A7A7C808485837F7CF6
:101DE0007A7877787B7F818386878684807E7D7C06
:101DF0007B7C7D7F8180808282817E7D7E808285EA
:101E00008583817D7C7B7C7E80828281807E7E7EDC
:101E10007D7C7C7E8081828384827F7F807F7D7DCC
:101E20007D7E7F7F7F818281807F7F8081828180B4
:101E3000807F7F7E7F7F7F807F808080807F7F7FAD
:101E40007F7F7F7F7F7F7F7F7F7F7F7F7F7F7F7FA2
:101E50007F7F7F7F7F7F7F7F7F7F7F7F7F7F7F7F92
:101E60007F7F7F7F7F7F7F7F7F7F7F7F7F7F7F7F82
:101E70007F7F7F7F7F7F7F7F7F7F7F7F7F7F7F7F72
:101E80007F7F7F7F7F7F7F7F7F7F7F7F7F7F7F7F62
:101E90007F7F7F7F7F7F7F7F7F7F7F7F7F7F7F7F52
:101EA0007F7F7F7F7F7F7F7F7F7F7F7F7F7F11240B
:101EB0001FBECFE5D2E0DEBFCDBF10E0A0E6B0E0B0
:101EC000E8EFFFE102C005900D92A036B107D9F707
:101ED00020E0A0E6B0E001C01D92A336B207E1F712
:101EE00036D088C08DC01F920F920FB60F9211246A
:101EF0002F938F939F93EF93FF93E0916100F09165
:101F00006200CF0101969093620080936100E25ECF
:101F1000FF4FE491EEBD80916100909162008039A5
:101F20009E4159F41092620010926100809160000D
:101F3000811103C019BE8FE78EBDFF91EF919F9174
:101F40008F912F910F900FBE0F901F90189514BE78
:101F5000A8959EE088E10FB6F894A89581BD0FBEC4
:101F600091BD86E087BD19BE81E680BF8FE78EBD3B
:101F700083E08ABD8AE083BF8AE289BD82E187BBB4
:101F8000C39AC09AC4987894A8952FEF80E792E0FE
:101F9000215080409040E1F700C00000C49AA8950D
:101FA000EFEFF3EC29E0E150F0402040E1F700C012
:101FB000000080E090E1A895813041F0823071F01E
:101FC00010926000B399F7CF81E0F5CFC49A809367
:101FD000600099BFB39BEFCF82E0EDCF8CE98150D9
:101FE00051F3A895EFE4F3EC3197F1F700C000004E
:081FF00026B3F5CFF894FFCFF2
:00000001FF
