:10000000BACED4CED3CED2CED1CED0CECFCECECE0F
:10001000CDCECCCECCCECACEC9CEC8CEC7CE7E80B9
:100020007E807C807C7E807A7E7E7C7E7C7E7E7CF8
:100030007F7A807A7F7C7E7C7C7C7A7E7E7C8A80E4
:100040006D7E7C8A72777E7C83797E72746F8D92EE
:100050007A6B727C867A7E817CA3804D579A72502F
:10006000B0998D99707461A66D41DA72578D4D8B80
:10007000A1354F9F4BA8464BE35C7097667ACF4300
:1000800050909599686AB775618B52B4B46566F003
:100090004A9AAB2AB08D70A35C77D42061D92FA681
:1000A0009537CB721A9AC13F68637597547E725424
:1000B0009C9A1A6A97709C6646D28A15A188616BD1
:1000C0006FB7605E887025AFA108BF807590685AD1
:1000D000AA991A8B97A15C6ACF72549EA32D9CC1DA
:1000E0004594B09068866BAD6B50AF8D9A8057AFDA
:1000F000A83E979A4F85AF4F7E8B6B857E748B8A17
:10010000527583816B509E9F2A97993A70BA4B54CF
:10011000AF7283707C837772777292653EA59F5A27
:10012000859F6F798B814DAB976588759C706B75DA
:1001300081886D72A5A3396AA66F756F6D7C709A00
:10014000655AA690747C6B7CCD6355B27A637C97BC
:100150007E556DA88A729C664FCB6B2F978B8D7ADC
:10016000745C9F83655479C55C4DBA8F489761551F
:10017000C65246B457928A54A1A35F667A6BE6379B
:100180004BCA6674727C7EAA6061B2778F6F5FA67D
:100190007270995A83A8486AA07A8A705ABC80778C
:1001A0007F819A605F6AC15070A05097888D5E759C
:1001B000995E92507EA67579549E88597AAA6652A5
:1001C000B57477838179439C8F557C838F777C705E
:1001D0008F9C486D9C945E928F459E707E7281BA12
:1001E000596894A3577081839C3E908B6886637591
:1001F0008F7E857E6877A56168A385864A907EA0FC
:100200006537DC756D708B857A6A7C8A5CAB773478
:100210009F9A4D928D727C753EB4AF267CAD954D04
:100220008F6A868666A541B79A398A7F7580973A24
:10023000B0992890AD866172809E617592618AB591
:100240004672A06B838A636FFF1C72C34D7C66A1EC
:100250008181599A805EB94F61C15C5EA8636AB2C0
:100260005C48BA5C726D759C48978B8F6D856F5436
:10027000D04B7795638B817257AB83607E83A55A91
:10028000749E5C81817A6BC06840BE6695707C818B
:100290007A955E83759E5C5EAA637E926A80A5797C
:1002A0004F9C8F557C5E8B8A866F61956F955EA69D
:1002B0007A61B04F81887A618388509E6F838A61AA
:1002C000906DA8816B7C75835FB2636D8F6B778354
:1002D000A1548F8F74866D8A797C79608B92757446
:1002E0007E885AAA94658572856097617C95667F41
:1002F0007990638B867E6F8B8D4DA379458F866D4C
:10030000856F8586886B868D777E4DBE6A579A830A
:10031000617C974899817F65889C7C85668B658325
:10032000686F998D578A996D757C9460A363748A00
:10033000797F55947A81778D61949541A19F6D5213
:100340008674778860798A81755C929A6B857470FF
:100350008F8B5A60B26366978A7C7A6B749A8581B8
:100360005F88A54A7086747F7A687AAA79688D85D5
:100370008D57799A7474637E979C6A65908A8A70A7
:1003800074998B796177808B686B9268A0667AB07C
:100390006D7470948B7E5E79857A85657C978168B3
:1003A000798B976B8B757795616F8B8159886DA170
:1003B0008359975CA58D4D79976A61815F9E7F799E
:1003C0007C8392656BA8885A7F7A88806A597C9A68
:1003D0007E617E9472A06A6BA585527C9C5E756A74
:1003E000A5886A83748DA57746A395727A795A9702
:1003F0008A407A9F88558095866B7779838F5C5A7F
:1004000075B0665A926A99994B74A6865C7A868A08
:10041000636190747E795AA8A8506B9A888685503B
:10042000759C77526D9A907261A09074866894A1C1
:100430005263AA865979658A9F726B858D9572651C
:10044000A37972776181955E5CB0806D72868D83D1
:10045000666F92779A5260928074746F8BA35A750C
:100460009A837F6B7A906B6577808D806B7EAD858C
:10047000708175889C6857B5775A8374947E6688B6
:100480009477907280A36D6381708081597C929083
:100490008175818A80667E9077706B798A725E8AB8
:1004A00088818D6083A07E756D7E907759837A6692
:1004B000946B88A1726F8D808A725C8D8079606D7B
:1004C0007A9C7C5092957090756BA16D7A7A79794F
:1004D000666394857092728DA86D4BA094687A6360
:1004E0008B8A75747A8D88856B9095657C8D7A9AE8
:1004F00063439F795F707E979E6A6F8F818A616F79
:1005000085905A6F83728D6674929E6D60869A751F
:100510005E7594776F77578F8D74758B997A748128
:10052000887C775786906A656FA57E72887C8D8BF4
:100530006D68869E6B667E7F7E6175819F7C57A00D
:10054000977C6B5C8399666672749F5C619C858AFC
:100550006D6F8B94635FA883795C659E80726F7CFE
:10056000A89C6F658F976A6B75809560659488729B
:100570007E83A57E5E857C9C7C6A659297547765B8
:1005800092976B759C8B7C6D729A7461817E708181
:100590005A7AB27C6F797A9C8F3F858A8A7A4B8AA5
:1005A000956663888188866B8D8D79667E7E956D74
:1005B000458D8D857A6F8AB075668881778661836F
:1005C000995E8D6D6F9A6F659E97797C5992A15C4B
:1005D0005F887F79795E94907C837E888F656D8358
:1005E00085756F77839F4B57AF85817E748D8B7434
:1005F00070758B8561638F79707A808FA1606DA033
:100600007F7257759C7E686D7A857F707F97867440
:100610007C7A947763798B855E61889080727A9E0C
:10062000977479658D776A856F8D74637C9A81651F
:100630007E929C6868888D7A6F5E7F8A70756F8104
:100640009081868B778A5C6D97756F658D886F6BEF
:100650007A978D7F6F7C907E796D6895776B757CCE
:100660008165799E94758577907C557C7E8B7A6BBD
:10067000708199777C77929A617A907574727C8B8D
:10068000726379858181778D958B6D6A74838368B8
:100690006A85806F709581797083A1726A77729490
:1006A000795C7A887F7463759F907C85838A726A8F
:1006B000857C65727E888670778A8B88727F81855B
:1006C000835E729088706F7F806B798D99817E7E5A
:1006D0007C8F68598075857A68808D886B79998D53
:1006E00070777A79687980867A656D838B7E798A6E
:1006F0008A888B656D8A726D668688727E80838B30
:100700007C869579756A74838A746D7A838A637F2F
:100710008F8A7C8A8088776B7A6F806872947783FF
:100720007475929E7F6A7586796F658A7F727E6B1B
:10073000887E777A8B857C837C7F7466607F9777F1
:100740006A6F9785798D818D8072707C7E6D7088DF
:10075000757E7A748A8D796A909E8666687A7A7ECA
:1007600066758A7C6A858A8190837A857A6D6188CC
:1007700086657775948D6D7080928A79868575709F
:10078000796F7A85637C8683757E909A836B79779F
:1007900097615C8183887A81777C837C7E94887A78
:1007A00068817E65746F8D7A68728A95817C838A90
:1007B000858066726F79757490857A707F8D88797F
:1007C000818F866D657E798368747C7A92757A8D67
:1007D0008F7E8185836B5C727C836D83858A757265
:1007E00088858A887468817C70687E7E6F807C973B
:1007F0007575868B9C7C6A81726B6A6D838A8B723D
:1008000074888A8B748D86776A7A887566728B860F
:10081000816F7C81888D7485927A6F576F80727C2E
:10082000798F7C6D88928B6F6F8F807A666B757A0B
:10083000866D7C8B817C708399867A8D756F5E6FF7
:100840008A757C6B8A8D888570858D83816A7A86AE
:10085000656F778B7C79857E836A8A948B85726DD0
:100860007577746B6A8F8A7E7E858F7C75818581B2
:100870006A727F637279868D7C81667C8B957974D0
:10088000907F756A6B7A796B868B80867E90857C8B
:100890007C83817A6F6165908B797E70957A7088A0
:1008A0008A807E857A79686D7C747983798F947E6D
:1008B0007974869A7A5F7072746B7C8683747E9288
:1008C00077748A7A8B8A72706F81795E6A8399866F
:1008D000777A888A7785927066747079727E7C8B5D
:1008E000947977798F927474818D8561657E6D7945
:1008F000888F817E81818D837C74797A755A6A8331
:100900008F81708A948B6F81867483887C7565660D
:1009100075758A7F7586868F77748B927A65687A0B
:100920006D757A7C858192888377757C83867C6AF5
:100930006B748572638694857A7E8885838B7770E5
:100940007A6A796D77757A958D9C7A6A83907E6ADA
:100950007E88776870727C818881838883888681AD
:1009600083796B817E6852729581887F90887481CB
:10097000707E867A7A6D68747779858879799094B3
:100980007E6A7A8F81746F656D756B8183908D85BA
:100990007F7488777E8A7F705E7A8D726F7A8A9490
:1009A0008A7E7981818380777A7768686D7F7E8699
:1009B00095997772838A8672727081796F706D8A69
:1009C000858683808D7C70838875747E7C615E7281
:1009D00088928881818D8D7E7570777F80666F7932
:1009E000776B8B8A7F888390756D7A858B856B6337
:1009F0006D7485777C88998A80817E75747C81721C
:100A00006D757C79747E8B8D907A746D7E947C7517
:100A10007579756A727E77888D8B867E797C7C7518
:100A2000757579807A686F809E90778386777A7FF4
:100A300085757E7C77756D747E81928581868586CD
:100A4000755F798F7E726D7774858690887E857CE0
:100A50007E75757A7A807C6D657A83776F8B8D92DF
:100A60008374777477837A74726A7E77808D8186D7
:100A70008A906A6D7E887A6F7979817570727A80D2
:100A8000949086777C7E798381706A7F776F6D839F
:100A90009A8A8B778180777A7474758A816D6D7488
:100AA00072819497797E86817C6B79807C6F686D8A
:100AB00075818B8F7C888F85726F796A798A857250
:100AC000666F857E80858F92807F77747A8B79665A
:100AD0006F7477777F86818F94927A6668837E7948
:100AE0007E75797977796F8F9C8B7C7C7A7A798027
:100AF00074706D7781756A778F94928F7A75727C36
:100B00006A687E8A7A707074858090907C797C881F
:100B1000796D6F7E797E7A6A65838A8A8D8D9983F5
:100B2000746D747275838372657C838A8388858013
:100B3000907F706A758580757277776F798A8B90F0
:100B4000959479637077777C796B70808677758000
:100B5000978D7F7E79797275857275817770687EE1
:100B60008B8F9E8F797275817066707C7C7C7580AE
:100B70007E808D92818386797770747E7A8A7E6694
:100B800065778F94838A92867574726A708179759D
:100B9000777E807C8B8D838A8A856B6172838A7471
:100BA000747272747A88818A95867E7570706F7996
:100BB0007A70727F867E708697958877726B6F8069
:100BC0007E757A797C72797C838894927C777A803E
:100BD000776070817E7E7C707E869494838377704C
:100BE0007070757777838175667A92888183928633
:100BF000867965656F807E75777775838D958D7E37
:100C000085856A636D7E817A79777C83807E798D34
:100C1000959486706F686A7985726F79817F7A881A
:100C20009995887C6A6A77757472758B817E797CF8
:100C30007C7E959C86726F79706B72777E80776F01
:100C40007C8D9992838081746D6F726F7085927CB8
:100C50007474808D8D86858181756A6179837E6FDC
:100C6000757C7E808A97838386887566606D7E85B5
:100C7000837A7C83857A7C86978A75747070707E9F
:100C80008072727C83887C7E8F8F958A6D656A7492
:100C90006D6D8190817C7A7E7C888B8D836B6D7489
:100CA000797272727A86887772859590888D857050
:100CB0006563687079868F837774858A92887E757C
:100CC0007F836863747F7E777E7A797A868D8F8B57
:100CD000868172605C6A758885776D868D867E8672
:100CE0008F857A75756A6F747C7E7C7C837E818348
:100CF000858D9C8F6F5A6B7474707A868583858519
:100D0000888188888177726D6B7277757A8F8F771B
:100D10006B7A8F9288857F746D6B6D6F777C86851B
:100D2000858579868F8D7A747E7C665A66838D81FF
:100D30008377797A85888B888A7E6F756A637283F8
:100D4000887E778595807A7C8B8D7C6F655C667FED
:100D500081858683797C86858185929079636A70A6
:100D6000756B7483888D867C75888D8881776B61BF
:100D70006577837C7C888D83707A8F8D88857A7285
:100D80007C6F61656F868A86888379838A90866F97
:100D900070796B63707C888F857E798A837E7C8690
:100DA0008A807A6D6561657C94867A858A86888179
:100DB00085837F77635A707A7E81868A8D79837E78
:100DC0007274868F806A6068727A7E8183908A7A74
:100DD0008088928A77776F6363777C7C808F978F28
:100DE0007572757F8F857A7274776A687C8F868159
:100DF000858180818D927E70727272686370869434
:100E000095887981807A7583887E726D6F6670832C
:100E10008A86797F858B867E797A807E635C65752C
:100E200081808F978B817F7C757785887C6D666DDF
:100E30007A80837C858D9283727E88857E7C756ABC
:100E4000656B757E8A929A908372758090887265C0
:100E50007279726B74888B8885817E778385807FB9
:100E600077726A68637081999C8577818B81796FCD
:100E70007C746F726F70757F858D88837F7E8381B0
:100E80007C7C8A856F57637780888B8B8B888A8080
:100E900077757C7E7E706D66728186838592947F85
:100EA0006A74838D8883726661657777868B8F908D
:100EB0008B7C70708385746A707A7063758195928B
:100EC0008D816D757C858880796B68726D68758F92
:100ED0009C8D8081867C75777A807E776B68708642
:100EE0008F99928679708586777A8081746663742B
:100EF0007C818D8A908B8B7A77707C7E77776B6123
:100F000066808D8A8F958879726D77818379746A0E
:100F10006D776175977EA69F6860956A45DA9E72C7
:100F200086576155AA8152E6855E9E436F973F4B77
:100F3000C543954F4BE1357CB46A83EF3E39A688B3
:100F40009A6845A55C6F8139C8B09E72E1328AB952
:100F50000F9E8BAD75726AAD284BCA63CD7461B7B5
:100F60006B487EB24D6D6F5C885A9A6555D9753065
:100F7000796A8D995A63BC9C1972AA593EB0AD4BDF
:100F80009C6F652FABA303BE887C776D5E92B726FE
:100F900081ABA1666DAD5588707E6F88B74B9CA5FF
:100FA000925594886BA84397AB7C7568947781833E
:100FB00072806AD5576DA04D88748D5CA55E34C073
:100FC00092575FA8866892746883B94D3ACF5E7273
:100FD00090795A90954399B23755B27C8179707760
:100FE000757E8B32CDAF3A8B7C8886753AAF8D3A61
:100FF000AF887C6057A0659590575FA88B45837A32
:101000009970755E7AEF4368BA5C6F9A9E54797EE8
:1010100088779E94397EAF57669C729AA35443B5E5
:101020008B54639C755CB9656FA56A507FC06F6116
:101030007A659C778050B09526818F9463A3666112
:10104000B2577A7EA83A6DD93A8F7F666BAB9E52C3
:101050009290833F6BB246BC9539B0925E77BC4F9D
:10106000749C619474994D5EB5607788864694B59A
:10107000349CA15E6F7A7752AD904F997A745ABCC6
:101080006A61A6618185A63974A6617794A34A85B1
:10109000993CA1A16A7A9C6161BE5966A675507A95
:1010A000C679468A9C5574B23A8899419A856A866F
:1010B000996057A08B8566C3772BA87C7065996B68
:1010C00086B4577E7C83727C88709C7E7560809A23
:1010D000549592576B8B818AAA527E9E607C5E905B
:1010E0007A5EBA657C8D8B547C9F529E7F9C547C2B
:1010F0007968A388664FB96D59B47066B5657E701E
:101100007E727590708D6DB74F8D7757A17C9A6008
:10111000816D7E8B7C756FA161688B658B867A8D06
:101120005F8A7574756A7F83A35EA36F45AF748110
:10113000728A7A6B886B9074857E748D6F86867CDC
:101140006B88A84B9A8554776BAF57B083598874D6
:101150009752AA61838D6F8D5AAF5C7A94667C8BAF
:101160008A4F888A6B9F8A6D54807C65A86D7E85C6
:101170007C8A5E97637A996B796AB4617492638AA8
:1011800088904B8F6F66A8956B5A995F759A6170BE
:101190008FAA7246B2707C8361757EB24695745C8C
:1011A000998D886186667A8D808859A88A527E706A
:1011B0007E8D974597AA50957C65749583619A7E3C
:1011C0005F8585A3607A945A88855A7ECD4A70A33C
:1011D0004881857A609C7C7F8170A53281A5509C76
:1011E000854F958B6B5AAF806A8F65836F9F74684C
:1011F00097816B709955868A619F887F529970702C
:1012000090659961A066639F8F66977F6383816D08
:10121000839E5786818A706F6B8A7E838D48AD7CF2
:101220004695817581885585904BA18683835C8A1C
:101230008A6A7E6B72A89550809A57857E6899A1BC
:1012400050888665975C99856A8370888D954A90E9
:10125000A1618F607288905F799E7A746D83748BC0
:101260008185838081577CB94D748F619C796A6FC9
:101270009986658674975A6A8B659F806680A54BB0
:1012800072947E8B6D796D957E6F6A8D8A6D68A084
:101290005C8B8A5AAF6D9054907E5C8068A5858A7D
:1012A00063759985756599708588688A8A74619275
:1012B000806F806F9583688D6FA67F3E85808F6F6E
:1012C000886D80996575808A756F838A7A6D7C7464
:1012D0008D7A6B81928565757C8B9F6A6D8874852C
:1012E000578B8083835C9F7E796F7F92856F6D8A39
:1012F0008A7A5975A68D6F688A6B868563AA866B14
:101300005F8385707079888D6F777985904A8B8A35
:101310007A8172637F927079888B6574758D9A6F0C
:101320007C7E887955798D8D6B77858BA1595AAAEA
:10133000748185729079636F9294835E7A9C6F6AF0
:101340007A948395546BA86B74638B83807F748DC0
:101350007E686B889F7A5086758675668B978D57E9
:101360007285906B80759481668072905C70958AAE
:10137000946A61908D836580997C6B5A8F8883888D
:101380005F958661858D77807C6BA57A6F577C979A
:10139000856F6AAB6D79775EAA955A797C7C707C93
:1013A00081819261808885855475A581707C639266
:1013B0007C4F779C926D807775926B8A8179864B92
:1013C0008B907472708D8F7E65729C7E6185869520
:1013D00070706B778B75708D8A667E6DA37777746E
:1013E0006BA16170748A8B6B7C8A8588656F868837
:1013F00086778B7A7E6F608F94776F798A8F667E1F
:101400008577905C85797F70688D7A97777483860D
:10141000706A80AD7C66797590727E758B88707508
:101420008A7E7780729079796A709966707CA185DE
:101430006A75668B9063858A6F85688381777A7712
:101440007E97775C8B8D7768887A886F617C7E95D4
:10145000797A9768807E6D927C7E797990756088C4
:1014600083867479818F806580888186756D7E74AE
:101470007E728D926F7E798A75688A7590775C8BA3
:10148000857C75757E908A75658A857A8081926380
:1014900070816890817299887E657E8A748D687586
:1014A0008D837C558890797E8381806D728B838F4C
:1014B000618D796F7E6188928A77688A946A7C6B85
:1014C000858672797A8B63798B888A75797C7E853B
:1014D0007070A5856B686D947775797FA370778B35
:1014E00079756D7A8B8377617F7E8D7466A18A7042
:1014F0006F6590996A798A74746A7C837C757A972F
:1015000083866863A37574757097775A6F949E7716
:101510007C7A817C6583887A85687597725F75832C
:1015200092886B759A865C7A7497854F8D6F778AEF
:101530006D9099756D778886726A7AA1806B6383E6
:1015400090686B8B928F7C6A867F806D79976B74C5
:1015500061869A79746F9C955F65858B8860758AC2
:1015600086795A7C858679798F906A6B779F8B55BF
:10157000707C976D66808AA36A6F8F867C6A6D9493
:101580008A777775926B5E72A59C636D818B905C98
:101590006A997E7A5E75947C7C6B998B856B6BA166
:1015A0007457799995774F70958674689A8A816B8C
:1015B0006599856F6F729E72508590886F778BA149
:1015C000923C6F8F8A8361868F77746581A579637A
:1015D0008A9488577C8B907F4683A17E5E579A9A27
:1015E0008F8559908363657AAB6F657A86866F6362
:1015F0008AA8835477A08670616AAA85725777A5F6
:101600006172978F99616B818A7A4D8DA17E5A6B39
:10161000929086636AA095705E74947E6386858DD1
:101620006A4B90977E747AA5816A606AAD7A666625
:1016300085A56F6B6F9295687290926B5481A17CB7
:1016400075657C9C685E75A5A6666D7597865470F9
:10165000819574549E8B77656FA595775A779C8199
:10166000557292A372546F8A9C656BA59277617ACA
:10167000976D6B5E8DAB6D5F6B9E8F6874869C8D76
:101680004666999070658D906B6874979570668AC0
:10169000AB795277749C7E4F85958B57669E997A6D
:1016A0006F818B74686A8BAA63617A8D9066638A96
:1016B000A5925A779A796B59869E7475638B926A54
:1016C0006F999E795E6A7EA0725086958A635C9758
:1016D000837A7075A88F6168799466688B81955E4E
:1016E0005790A68B5A7A97886D5C7A927E7065A324
:1016F0008F5A757A90926D79958D6B4383A1807026
:101700005C8D8B7C6A70B2856877818D705E798D17
:10171000996B61948B745580A6957C55749F706508
:10172000778D955C727990955C7C999A744D8B8FCE
:101730007466639CAD70546F9E866F808B9C725AEA
:10174000758A94655C9A8D74636DA88F74608DB092
:1017500066556388976F6F868A855268A3907A660C
:1017600080997A5A5E999A6160799E865E747FA8A4
:101770008B607A867A5E5E9995816565A588636DD2
:1017800092AA77607488946A5C81928D6572908366
:10179000816B8BAF7C615A8695606F7E9A8B5E6D94
:1017A000839E836083908A705C808A776D6DA68B40
:1017B000546683A3866D7F86906150808F8F686B9F
:1017C0008F8D815E809F856D6D9990596375949C16
:1017D0005F6A8F8A7C637EA1907A5A79906F656B7D
:1017E0009E8A6577839C775C7797A06F5E7A7E850B
:1017F00065689A907A5E6D9E816F8688956A5C7C3A
:10180000888A54729295885E758A8D7F668B9975E9
:101810005A6D88906F797F90745C819A9077688513
:10182000927E6852868F797475A1726D75839F7AE6
:101830006A838572617295907E65708F8A77608BFE
:101840009A7E776F7E865E6B85928B65838A7A7CC3
:101850006A90958161558690756D77908D706F80D7
:101860009274728D8B856A65817A776F77A58A6AA3
:101870006685998A7466868A656B7E88816D858F98
:101880007F79657A9A81727A928B5E6168999A6B98
:1018900074808F77708D88856D6B817E755E74A383
:1018A0008175747E97775A75999C75607A74776F95
:1018B0007A8D817E61889A7577758F906F5F6B9452
:1018C000815E7E929C8365797785817A8D8D616A50
:1018D000728B866D757FA177637E8D9A6A70887E24
:1018E0007C65638185857E8B8A6F6F6D8D9C726848
:1018F0007A8F81596F8D8A83687C8D857C6A8F860B
:101900007C816D806F61708AAA8066808A866D6F27
:10191000888F85666A867E79757C8B817E7A7792E0
:101920006B6F94957F57657A86816F889986776506
:1019300080887F7C6F83836F6B7C8F75688B8D8BCA
:101940006B608597867C6B88776A6A6B958D8579E5
:101950007E906D70858A8566728F85745C7C998AAD
:10196000816D7F887A777790956D68727579638DD0
:10197000928B7A68928F756A708A8A7C6A6A888587
:10198000727E869479667A8186757E9283685979AB
:101990008F747F74819E83746B7E8A74777F817C61
:1019A00065728A887F7594886670778B947C706D79
:1019B0008880636F7594867C8883856D6B8F7E7954
:1019C000757A7C6F6F778A9C866D6D808A7A747C5D
:1019D000858B6A6A85746D778D8F85817981806F3B
:1019E000747C92815F65708F8F74838A8870748530
:1019F000797A7E7F887A6A6F72867C798A8F95740D
:101A000065728B906B757A6F776B85907E887A881C
:101A1000866D727A8A8A79727A867259778D948BFA
:101A20007A8379777A7A887A706F757E7575838A0A
:101A30009A7C687C837E6B748B8A83726D707480F1
:101A4000858B8F727A7A7E8B727585837561728BC6
:101A50008881818A8A81776D75797A8D837C726AB3
:101A60007281927A758A86816B758A857A756B7AAE
:101A70007775797A888B8B817E776A6F858A856D99
:101A8000757E7A7472868D8381747E818181757989
:101A900083727775777974929A8D796D797C77797D
:101AA0007E887E7A746A83838381798D777C817E58
:101AB0007A6F81867C6B667286838D868385777765
:101AC0006A7988817C77757A7085857E7E7A908345
:101AD000776D79838583756A7479747A819A8B7E40
:101AE00081707574778A7974757A8877757C7E943D
:101AF000887F6F7583797C7C857E7070757583882F
:101B0000978F747C727E7E727574818A7472708510
:101B100088808A837E776F7F747E83837E6D6B740B
:101B20007A908B817F808B7A686F77867A7C7F77DB
:101B300079758386838D837C756D727C8A92726DD4
:101B40006D7E85707E8A908A817C726A74777C7FD4
:101B50007C7C727E797A868D997C656D7A8B7A75BC
:101B6000817C7A75727C798A8B8B8D7E776D7479A6
:101B70007577818D7C63708590907F8177727C70A2
:101B80007C77817E797A7770707E908B7E8B858072
:101B900065657A838A79726F75838A858D85817789
:101BA000777E6D6F7A8B8670777A80757285929466
:101BB0008A726B6F778577807C7074798888798A70
:101BC00090867568757979747A858683706677866C
:101BD000928F8883746A7781817272837E796F7C39
:101BE0008D8F8B7C79807C6F656F8A86867E7A701C
:101BF0006F7F8F948179807E796F70818580726B21
:101C00007C88807E8195887C75706F6A758F8F7FE8
:101C10007072817F8579858D86796874867C757907
:101C20007E7F75777F837E83928F7A6860758083ED
:101C30007C798588756F758F8B7E7E7C8075707CD6
:101C40007C77747E867E726F7C959588726F7E6BD2
:101C50006B7486907A77797C7E798A8B7A7C777FB1
:101C60007E70707283927A6B6B83817E8690907A9D
:101C70006B70707279808580797A7C8881777985BC
:101C8000977C686A7985797A8B83796B7A83868F7A
:101C90008D85806A66687C8674727F908B6D6D809E
:101CA0008B837E867C706A7281858181757E746F7C
:101CB000808D9E8A6D757E796A617E85838180863E
:101CC000797A7E858F817A7072776F778390836A55
:101CD0006A8386817A8B8B817C6F6F6F7272818A47
:101CE000887E757C86817A868F80665A7C85818322
:101CF0007C817E7A7A7A888385858385666672811F
:101D0000817283908A746F85908885746D746A7708
:101D10007980857A7C7F83797081909075758077E2
:101D20006F5F708B8D867772838185808385706805
:101D3000757C7A7277908A7A6F7A837C797C8F90BF
:101D4000856D616D7C7C818888796F7C928A7C75D9
:101D50008385726D6F77837F8380867F74757786C6
:101D60008383857E777279817E7E7A7C7E797E7EA2
:101D70007C7E7E7E7E0011241FBECFE5D2E0DEBFDA
:101D8000CDBF10E0A0E6B0E0ECEAFEE102C00590B5
:101D90000D92A036B107D9F720E0A0E6B0E001C06F
:101DA0001D92A336B207E1F736D07EC029C11F923B
:101DB0000F920FB60F9211242F938F939F93EF934F
:101DC000FF93E0916100F0916200CF010196909342
:101DD000620080936100E25EFF4FE491EEBD80916E
:101DE00061009091620087359D4159F41092620024
:101DF0001092610080916000811103C019BE8FE7CD
:101E00008EBDFF91EF919F918F912F910F900FBEFB
:101E10000F901F90189514BEA8959EE088E10FB60C
:101E2000F894A89581BD0FBE91BD86E087BD19BE0F
:101E300081E680BF8FE78EBD83E08ABD8AE083BFE5
:101E40008FE389BD82E187BBC39AC09AC498789416
:101E5000A8952FEF80E792E0215080409040E1F775
:101E600000C00000C49AA8952FEF83EC99E02150A0
:101E700080409040E1F700C0000080E090E1A8952C
:101E8000813051F0823011F480E0F9CF109260007F
:101E9000B399F5CF81E0F3CFC49A8093600099BFE6
:0C1EA000B39BEDCF82E0EBCFF894FFCFB6
:00000001FF
