:1000000068CF82CF81CF80CF7FCF7ECF7DCF7CCF97
:100010007BCF7ACF7ACF78CF77CF76CF75CF7E81EF
:100020007C807A7E787E7880A57CAD4D649B4F6F16
:100030008C6F9B816C85529964AB854D8171974023
:10004000977C7CF8129E93308A8E8A34CB2BB7A58E
:1000500015B285B04D6D9342BF4052BB76A21EEAE9
:100060005F63CF42B081756DD86151E64FA9996148
:10007000D646C66D63B9428E9CA464B67F32C92D44
:1000800064C85AB464897E7F5466B248C07E6CAE40
:1000900025C49348C25D6F73A052BBA032D14F6498
:1000A0009C3DA48073939366566F27DD665DAE49D1
:1000B000AD6646A9718363836A9E833BE85473955A
:1000C0006381907675C98E51A04BA26458B954D6FD
:1000D0005A58AD6F6D788C6F879352AD6A75717891
:1000E0009539A7718EA55A956C996F48C958B77301
:1000F0007192818364A758BF6471C630AD9264BFAA
:1001000040A261A27E52AD6DAB58877C5FB65D7830
:1001100089876C80B00EE66A5AC0379C7E78787802
:100120009C66905F897E63D834C06363BD5A8166E4
:10013000A77A789B34B778619E6AA55AB254838CAB
:100140005BAD6F7A6D6DA05A8E7C83906A8E48BDD0
:1001500052759B5B97756F836892739C5F758C4F2C
:10016000C4587E937E73816D7689926A976A996C82
:1001700075A736CD61759B68769990766D90639979
:1001800066858180BD309C85647A9B7673B4666396
:10019000B7399E768C834FB26A9571837199895273
:1001A000928A5FAD649966897376A23DC0649B7A3A
:1001B00051BB6C6A9C63957C874FAE835FAB619942
:1001C0004F879363857C8C85807537DB54789C5D85
:1001D000A57675639E6D80767CA05D89B04DB26119
:1001E00076A06D617AAD6F956A7A9B6A7C7C71B0FE
:1001F000547C907E58998568A0498A925D7E808A59
:10020000A7528383815D8C758A9C5493876D817A14
:100210008590668A7E99758163AB873DA48075A0C1
:100220007585956A66839061A06DA773738C6899D4
:100230007A71899575688A81808C61A566817185DE
:100240009773817A976C648571907E5F9E787E63E8
:100250009C7E7875758C6F856D8999616F83787ACE
:10026000669B858C6C7C7A8375639B896D7E8A85A1
:10027000787A7C7E9C587A8E897A7F878C7E647AA5
:1002800093876F859C7C64857189787C7F9B835F75
:1002900080997E7C73878A64817C90877A78956A5E
:1002A0007181819583649B876C71739C718171816D
:1002B0008C71758A85816C87767C6F83937C8C5A70
:1002C00090836F807C9C896C7E7C8A648C838A8717
:1002D0006A996C8E787C937A7666958C64937A9220
:1002E0006C737C739C6A85878C636D926195767361
:1002F000AD5B7676898571857F8C638176859C5828
:100300008C8C767C6C9B719573789B638076998AD4
:100310006C8A8378738A7793974F977A76856A97F2
:1003200089787E7A7E807A789C7A66927180837EE4
:100330008197766A80857F7A858C7C7387638A81D2
:100340006F8E8A6C76877E81816D907A6F7A6D9ED2
:10035000737A897F717583788C807C976F7E6C7CD3
:1003600093718378937383737AA5647A896A8C71A5
:100370008C837F8375816F7E63A28E6A906D7A8392
:100380006C7A7E9E6D83856C906C927A7E81758589
:10039000837A7E938A668768908C6D997797767159
:1003A0007F6D89838789718A71907C7680818E6662
:1003B0008173978575936689815B9E6C90937C7C35
:1003C000737C7A92737F7E898E64858378A05F8147
:1003D000757F817A8C758A7F767571808E8C836C3F
:1003E0008C73856F7A8185926C817E7C8E7C7A7E1F
:1003F0007A816D876F8C908375687C7C81886F9023
:10040000808076688975976F85757E8A71857C8016
:1004100090767866838889925D8C7385716F927E01
:100420008E816F777E8C718C7180976A8966928ECF
:10043000898A667E897E8181907C927C6F7F81959E
:10044000788A6F818C767E73878E78875F7E8C7CCE
:10045000877A7E7681716F7F858C81737A6F8E7ECD
:100460007A7681907885617C9978877373877589AE
:1004700073898E7F757A6F6D997E7A85739578769C
:1004800075739E78857376898787757F838181757B
:100490007E80A2856F8164907C7A7E7E9C807A715A
:1004A0007389808A6F7F7E7F8568817E9280637A80
:1004B000758E8A7C83739575717675928C876F7C47
:1004C0007E7E8A737E8A8C7C6485768C936F757C45
:1004D000857A7A7A8197817E666D8A7A956F7E8E2B
:1004E0007E806C7887908C6A6F7F857E837C7A951E
:1004F00075786F7595878E736C8A787E767C899017
:100500008766757C92817E7E73857E767A7E928503
:100510007C71668785837C7C87837E64718C878A07
:100520007F7373898578817A8C857E6D6C9B8581DC
:10053000896A8A897A767C92898E757175859376B7
:100540008776878A737C6F9C8A7C7A66907C7A7EB9
:100550007A9080896C6F7689936F876A7E8A7178CA
:1005600071958775756D8C808A76758A76816F76C0
:1005700080978E757C68879571837C8E896D757682
:100580008A8A8973807A7A9273768C838C6F687684
:1005900083977E75808A8075787C8A8C7C78717C64
:1005A000838E7A7587788C78648790937C647C7A64
:1005B000807E7A7A9589737E68878C81876C7E8746
:1005C000857C718A87996F68878092877A7E83811C
:1005D00071786D8A9381875B83817F8366858A8545
:1005E000686C8378937C6D7C7889738775898E7C41
:1005F0007A58838E808E6C858C7E767387859B6F10
:100600007A7A78927A857C7C927A756C8A958783DF
:1006100061897F7E78758A878A78717A7E8E7C8000
:1006200073759576766D8E8E81756D8189897C76F0
:100630008A7E807C6C81838E83816C81927C767CC7
:1006400083927A6D75809289787A837687767585BC
:10065000898A8E63757F8987717F898C787A7383A5
:100660009581717A7185838A7189878187547E89A2
:100670008E8E6C7C81787C6D7A819E71806F6F9399
:100680007F876D7C857E7A6A83938C8A5B8575878C
:100690008776878A8E717A6A7E93878C6D7393765C
:1006A0008C6685908578637A809287787C7F807667
:1006B000757C7A9E7F8361758A7F856D7F8E857557
:1006C0006F7A928A7F6D7E71857E7E81818E896F41
:1006D0006C7889908575769076836C7F908980752B
:1006E0007589858A80767E878563807899907F6F0B
:1006F00075877C80787A977C7F71718A7E926D781D
:10070000788C8073817C8E8C6371718789837F7A0A
:100710008E6F8964768785936D6A837F8A6F787E12
:100720008E856A7A769B838375758178817C7C97C8
:100730008792666C89839276837C927F73738792AB
:10074000877A7E6C8C878580788A7C895D73898EB8
:1007500092776F817E8A6A7C8789807C6D6D957CBB
:100760008A7673807F7A786F9787856A68788389BD
:10077000758181897A7A6A7C898E7C766C8981819F
:100780007E758E89787371839789817581738A717B
:10079000788193927A737383898575758A856F835F
:1007A00068958785756F7A7C8C7E7A8387896F6C74
:1007B00073819C78816A927F7C7A7192877C756C58
:1007C0008387938071877593688176959C7A6F6F24
:1007D0008585817F7C9283817C66977A9775717815
:1007E00083897E787F8C8A716C7187927C896A8913
:1007F000737E6C73858A8A78667C8187806C7C8145
:1008000089687576928A876F7178897A817A898EFC
:100810007F76638780998173818C7A896D878A8ED0
:100820007A7371809380926F87857A7175819B89C5
:100830008561817C8380718C818A77766F8C8A83D5
:1008400078716D8C7387718A9380765D7E80937EDC
:100850007A7F837E80648583927E806D7C928185A1
:100860007389817E756F7E9E878C6C7F76877A78A0
:100870008385927C756C7F8789767C7590767E6D9A
:10088000898A81756475808A807C7C857C7C647CA7
:10089000769B8376717F80817A71898A8575737C76
:1008A0009281906C7E7C837C7C7C90928371717E43
:1008B000858E76817F8E76816D83898A8173738739
:1008C000818A7C768E7F80647C7A99857E76807C36
:1008D0007E7576808C837F6F6F8E7C926C7C80813E
:1008E0007C78768E8C876F7575858380877C957A0A
:1008F00083667E898C8778738A7E8776808E8780F0
:100900006C7C7A938189757C807E767A7A958785EE
:10091000686F857C896F8381877578758E85897608
:100920007171877E857E7A927A7C647385938081EB
:100930007589787E71808585837175788C878775D8
:10094000807E85717E739C89817373807E857A89B0
:1009500089877F7671897E93737A73857F81787EAC
:10096000937E766F7183878083738971816A7E80BD
:100970008A8A78737883877C73818380737E759B82
:10098000808C76787C7C817E7F8C8987756C818079
:100990009378837C8E788076808C817E7671878058
:1009A0008589758C76816C767C92897E737A7A7C67
:1009B000787C7E8985757C6F8C768A75757C7A7873
:1009C0007E76908A85756D787C897A8A7A8E787A37
:1009D000757E858A858073897C878578927E837110
:1009E000788093898E787C7E7E7585808C8C7C7CEB
:1009F0006F8381897C8181837880718E8585766F14
:100A0000787C85808A7E877E756D787E907C836F0A
:100A1000817C7E78768C7E83737180858587787CF7
:100A200075816F857C8E8C7C7C6C807F817F7E85E0
:100A3000857C7A738C7A907A78787A8380838087C1
:100A40007A767171818C83897385757A75788185E1
:100A5000857875788085857A837881787C7A9289A3
:100A6000857C717A818187858A907E836F81819070
:100A700083817E7F87837C8989897C75767E8C8360
:100A800092788776767873818A87877576757E7C8B
:100A9000768578836D7A738585817A6F75767383B1
:100AA0007A87877A7A6476768A81857E817C767683
:100AB0007F818A7A7A787E8781927E897E7A76783B
:100AC0007F908C8E7A7C7A7A7E8189898E787F7607
:100AD000818383837E758175857E878A807E6C7530
:100AE0007583838783807873717E7A8E7F8578752E
:100AF0008178837A817E7C76758089898E7881730E
:100B00007A7880878A8E807F717C838387858089CD
:100B10007C81768985877F757A7C81878983877ACE
:100B2000766F757A8C818978767A78767A7E837C0E
:100B3000787575817885767C7376767A7E8A8981F8
:100B400078716D7E7E8187808E7580757F858589C1
:100B50007F7C817C878187878580767A789587906E
:100B6000817F80737C7E809085877A7A7C7E877C8B
:100B7000857A85767A78838A837A76737A7687839C
:100B80008789767C6D757C8583877A817C7C7C8186
:100B9000838A7C787A7885818C837F7A78767F8067
:100BA00092878A7C717A7A7C808583857678787E54
:100BB00083877A816F7675808583877A78686D7E82
:100BC0007E87897C8371756F7C7C89817E7C758151
:100BD0007E8785807F76757A7A93898C7C7C78781D
:100BE0007E858C8E8E7F7C787A7F87858A7C8778DD
:100BF0008381878E837C7A757E81859083857676E6
:100C0000757C7C8A8A897C7778787A817E877E7306
:100C100080758983857E787575757E8187898776ED
:100C2000767178857C8E7F877875787C83837C7EEF
:100C3000787A7C85838581787E6D76768985877FD5
:100C4000787673737F818C837E7C717E7A838180DA
:100C50007A7E767F7E8A8A857E7675787A838C889E
:100C60008E767675768089858C787E787C837F8792
:100C7000817C78787C87878C878576756F7F7E907E
:100C80009085856F7E7E8187858A89787E7E89853D
:100C9000897C837C7A7F8093878E817373737A8754
:100CA000858A80857376767C83807E757E73787C7A
:100CB00080837A75766C7C78878883786D7171769D
:100CC0007A858781787A757C7A817E83767A7C7A58
:100CD000818185837871757C8A838E85877673732D
:100CE0007F85878789817C7E7E8083878185737EEF
:100CF0007A8C8980817A78757587898C877C7A6F00
:100D0000787A817E8C81837E73818987897C807CDF
:100D1000808183958A8E7A767C8085908C9085817F
:100D2000787A78818A8589767C7C807E81818073DF
:100D30006F6D7E7E89817A766A6F6F7C7C85857C1B
:100D40006F6D6C7576817681787378758083807825
:100D5000756C737A8587838380737A6D838A8A8EB4
:100D60007C817C7C80818A8C878976818990908A3D
:100D70007A818078818190928A7E7375817E89855F
:100D800089838175757E818A8578757C7C85818A69
:100D900085857671757E858E8E857C7878787C8168
:100DA0008E8A85737878837F81837E7A787A7E874E
:100DB000878581716C7878857E898780756C757C74
:100DC0008383817C7878767A807E8173786D768073
:100DD000838A7C7C7A71716F788987837A7A737A57
:100DE0007A85818180787C7A7C8789837A767C7E1B
:100DF00087818A908978756F7C83898E8785807CCE
:100E00007E7E858E858576788389878581897C7AC3
:100E1000787E8E9290837871767881838A8C8576BD
:100E200073758383837A7A81767C75838C857C6FF6
:100E30006D787A898789817C756D717A8A898575E3
:100E40007C7C767A7C818776786F738085897F78E1
:100E50007373717A808A8A837A756D7E7C858781C7
:100E6000877F7C7E81898A857E737A808A898A855C
:100E7000857873767A8E8E8C85737875767C7A8990
:100E8000858571757E878A7C7C777678737E8C9079
:100E90008C7E716D7E7E8C85858A807A6D73878E5F
:100EA0008980807E83837C8987897C737180898C2B
:100EB0008E837E7E7A7C7883908A857675767E7C3A
:100EC0008080817E7C75767E85897A756D6F757C74
:100ED0007C838781786F687C8187817A80767A735A
:100EE0007C8387877873767E8E87837E8178737321
:100EF0007C908A8E7C757A76807E818A87857573F0
:100F00007A8385817C7781788080818E817A6F6C0D
:100F10007A7E8C878589807A717580908C877A7CBF
:100F200083818785858C80817E819295978578766F
:100F3000807E80838E938E7E7378818785837E8189
:100F40007A75757A81877E766F767E83837E817CE3
:100F5000766864737F8981787871767376787E7C21
:100F6000716C6C7C818376717373757576898E87ED
:100F7000766F717681818A8A8A817E81818C908A5E
:100F8000857E85838E90898E8A837A787E8C928EF8
:100F90008378787575817F8E877C7873757E85837D
:100FA000757C78737E7A8387907C787E765DA0737B
:100FB00077AE7E8075487A6497A266A910CB8900C7
:100FC0008C9E89995D4DA43D669C6692AD4F87715C
:100FD0008C76B08C5D8790A52EA968AEC212B4BB8A
:100FE0003D9E9E715B8E5D78995F8376B2325483AD
:100FF0005AAD5F54B07E6844A06D6A9E6492837E51
:1010000064D15B64C85A8EA052CB9C85927E92615B
:10101000779CCD5AD67E3DC63268DA6FB6936CA700
:10102000734B87A46AC076908351C46A7AA751A78C
:101030006C738E9C906C87758E5B7376998964B6A1
:10104000753D90429E9E54739C853B8C7E8C895D41
:101050005D83A7585DCF686D7F737187687AD271A1
:10106000637C8185587CA07AC0405BC96A66996DB3
:10107000997F529E8368936685AB1E97718EA539C2
:101080009B90617C4985AE6F589E73739942B654AC
:10109000A57644DF425DDB7668996A63CD4264CD14
:1010A0006AB9469C636AC44D85A56C6AA06D4BC93C
:1010B00064809758AD4B9C548EA74F9B83686AA25F
:1010C0008C68AD4493A5518E64BF76757578996A26
:1010D0007C83A77361B449958C4FC66F68716F8329
:1010E0008371789E856A5F73A046A57654BB446180
:1010F000A45B85956A8A7163719E78836CAB766315
:1011000097568EAB5A8C8E7E9268A0757E7C9064CA
:101110009E7381B664689E637889759C66A95F76C4
:1011200090755BAB806C9C617F9E4D99976AA049DE
:101130009E757F7E928385856A8E817A7A83B0528E
:1011400075B0569E649775906D5FA485816C938091
:10115000668A4D92AB4F95818E48808E73757E9BCB
:10116000649B6446C96A6F8E6A9B71715FB07678C2
:1011700073859B499095689C787692816866A48E69
:101180007851B07C73856C95975A76907C7A769975
:10119000887C75776DA75278AD935A7C908563787B
:1011A000A7639E6D5FA48A4B9C85807C6D739B7A40
:1011B00078739C972DA08C6C8A896D95716185934D
:1011C000788964A281568C75AE6F6C899C63717747
:1011D00090A06A879B569B6C6ABD6A787A9E7C5FFA
:1011E00080A46F787673A27852B77E767F529E7312
:1011F0007576879C874883905F7A8E8197587C9913
:1012000064836A8A976D688C7C9571639E9B4D7C24
:10121000818E83639987766D73899364898C7A76DE
:101220007371B271688A8197616AAB906C8A7893A6
:101230006A6D8E92898C5F928E4F8A8C8E95617EBC
:10124000A26171769C876C6D927375816D9E7C66D0
:101250008173817568A9836F6887817A6692A566B4
:10126000836C81956383878C925A8C857F78858582
:10127000906F54B67C6C8E7597736A7F7A9C787683
:1012800081935A71906CA75F7EA55B6F718A907392
:101290007E8C85688A5F909E588C788A7868A08357
:1012A0007A7C7E7E7E6C7AAE737E806F8E6387875B
:1012B000809B646D9E7C638C8E877A6495787A932C
:1012C0006DA090528585758C7E879C73687C878C19
:1012D0006885A76D718E668E83638E817A73719235
:1012E000876C83836F7C617CB0668381788158854D
:1012F000877C8E83758A7F5B8C8A78856DA26D75FD
:101300008C73A47A6687856D818C7F9578767F6AE9
:101310008E6392A4638181767C7371958A6C8373EA
:101320007E8E68997E7C8763858A718795817A6DC8
:1013300076996F7E996CA2736689718C83718C76B5
:101340006F8C7F7E906A8C8C4D907A85976F8A7CAB
:101350007385687E998381956C7A816D9E717A8C94
:10136000788775769281857E647E8A68878975998B
:1013700068767E638A907E896C7F856C85837197A1
:10138000855D8A757F977587896A876F6F89819078
:101390008A6A76816C95807697738976639E7A7F68
:1013A0008C7678877A7E8A7A9B7878855A8E8A7A44
:1013B0009C687E8573738589858573836385906654
:1013C000977C6F93667A7C80939273737C738E6C38
:1013D0008C976C927C638E838589767F836F8E7AFF
:1013E0006DA47A7A835B8787789B7A8085687E761E
:1013F000719B8073906A739371837A7A9B5F7C830D
:1014000066A4856A8C6A6F8C6C85997692716F81FF
:101410005D999063907E78836D7A8A83897E5F90F0
:101420007A7C996C9283668C7375959285806D7ABF
:10143000896C95787AA77171787693817F897375B5
:10144000896F788E76A4735D90638C95718A81859F
:101450008561759373938C5F90767E97638C93719F
:1014600085687C927C92805D9283619278839B6C8C
:101470008A6A5F9E6F818971907E61857C78A07198
:10148000717C6F937573996D838C64768783907E7E
:1014900073896C8187689385818E5D76937E898957
:1014A0007387787A816395956C8A7661907E80895E
:1014B000719281687C6F8A957587786890806C934B
:1014C0007F898A6C816D819E737C8C7A83806D901C
:1014D000857E97637C87739B737A8E737C876D7729
:1014E000A27E856F6F956383876F95817678717C17
:1014F00092807A87648A7E7383689E89617C787C17
:101500008A80788773877E5F907C85936C7F737801
:101510009C737393837C7C668A8C78976D7A896CD4
:101520008780769C7A83875A7E908187717E9B6ABA
:1015300076857397876A856C7E8E718E8173877EC0
:101540006A7578959768788075856D8087838E6FCA
:101550007183817E8C7E75807890766FA0808E7688
:101560005D92817E957C7C99716D837390877C956B
:10157000588093758773819578667A788E936D819C
:101580007C788A5B8C8776977C736D778E8968818F
:101590008A758A6D6F9976936F6A8E757F85818360
:1015A00085758A6D639B8C818763907A76836D8E57
:1015B0009375757E71907C7E92687892687C738C4E
:1015C0009C757376758C87668C897E836C788E713A
:1015D0009381757C768E836C92907889616F908709
:1015E000897F71996F6C8573878E7C926D66957A11
:1015F000817E788C896A81718AA46F71856F857A02
:1016000083907A8C85756A837E997C788A75857ECD
:10161000648A898C7A68807C80879366897A737CF7
:101620006A8A90808A6A73817E8178818E905F85D4
:10163000717A9580856F6D90767A858389876F6CD6
:101640007C78A06F7E8C7681737189788A926F71B5
:101650007F8089817592758576688C977F85738187
:10166000816A89837C8E89807E648989818C786F88
:101670009276767C7C997C6F7F75788A808A7E757D
:10168000897A618A758C93737673818775788C817A
:1016900080766D81817F9B667E80768073858C8964
:1016A0008778617E8A7887837E926689766F978550
:1016B0007E7A6C808A76878178907A5F8076A08146
:1016C000768E6F6F85767A8A83907F667C7C859B29
:1016D000688C7E7E8968769E877E836F787C819019
:1016E0007A81956C89686F938A8A7F66878C757C0E
:1016F0007E8E9071767C669E877E83757E7F6A8300
:101700007C81A076647575878766927E7C7F6A711E
:10171000898095756C83737E897A80937C7F6176EE
:1017200092858A896F8E757C816F8A9780767C6CB2
:1017300090858583738A875D83788E937A76766FBA
:101740007C8C6C8E8383896A757E76A273757E80AD
:101750007F7C758793758A646D8A7F90856F926FA1
:101760007E78718199897E736C957380897A8C8378
:1017700071816D928E857C7A6D8983768E78998A57
:101780006471807E957887807A807A668C85809077
:1017900066737C7C8C856A8E7A7C6C6C878E818E7D
:1017A0006D6F83757C7F808A8A6F835D858E87816C
:1017B000737A8C71788581928C6F7376759C739037
:1017C0008778857C6C7E839592717581768980712E
:1017D000997389716C818C858C76767A75807C732F
:1017E000978E737F5B838387817E788C76737A8014
:1017F000928973806F739977898085857666817AFF
:10180000959377787C75857578997692766C7C83DC
:1018100087956C8083787E7C76938E7E7C5A8980D7
:101820007E89817C906F7C7177908E7A7A6F7C89CB
:10183000718A75859276647E7693877E81767583CC
:101840006F788A8195766C7C7C7F936C8585807AB5
:101850006F7890858385667E7E7E8A7F81956F8195
:101860006A738C9285817583876A858085927C7A7C
:101870007868998185817A7A836F7387859E7A6A81
:101880007E73818375937A8581716A8A838C896A74
:101890007E767E89718A957A7E6376858981937159
:1018A00080816D7E738593818076688A83837C8353
:1018B0008387637C818397807A766F7F8576928039
:1018C0008983716A7A7E9B7C758778767C73879032
:1018D0007A8964737F7E898A75857678786F7E9C35
:1018E000857C786F897185838189856D7C7A878C09
:1018F00087807F6C8585768C7F99816F757E7A90E5
:101900008781878076806C898980927175788587D8
:1019100083768C807676737C93808A7671856F7EF1
:10192000838185897878667F8C837C8373897673DD
:10193000877C908773737A75878089817F7E7F64C7
:101940007E818990737C7A78837F788A817F7375B2
:101950007C8C7A957A6F83717C7A7C938C7A7E68A2
:101960007783857E89768E7371817C8A8A7F7A738C
:10197000788A7A8587877F80667C7A90927A807F62
:10198000767C7A8092808C7E6F76897F927E81834E
:10199000767E7C73939081816A7A7880858C7C8A4C
:1019A0007A737575898E7A856F758375807C8C8165
:1019B0007C647A757F907F807C6F806A7C89838E5F
:1019C0007A756D81788E78818C757A73758C838E3B
:1019D000836F7A787C838C7F93767E766C8C8C8315
:1019E0008A78817E73817F838E836F7C6F85878306
:1019F000898075807173818A9080767A7576877612
:101A00008787837E767189808C8A7580767E857ED5
:101A100089977E7E7673818A85937A89816D7F7AB4
:101A2000838E8A807A6D7F837C83877C8368767AD5
:101A30007E90817876767178788583808375647EF0
:101A40007589837C8177757A767C92817F736F7ECE
:101A50007E7E937E837E7376717E908987816D7C96
:101A60007A788387878E6D7A7C7C8E878583757C78
:101A70007E78898C8A8A7E6D7C758C89809081784D
:101A800078738185878A7C737A7C7C8C7A8C7C766F
:101A90007A6C7C8C85877C787A7375858387907364
:101AA0007C6D7A87818785767E7E7580898A8A7843
:101AB000737C6F8383898A857C7A687C8385908533
:101AC0007A78767E81769087787A7375897C8E8035
:101AD0007A7F6F757E7E8A8C7C7F6C6C857E818C34
:101AE0007A896F737C7A878A80787E6F7C7C818E1E
:101AF0007E8380647A768A8E838181737580769006
:101B00008A85836F7E8076928381817C767C768ED7
:101B100093808A73737E78898C878E7676787881C5
:101B20008E8789787585737C8787897F6F7A7381C3
:101B30008C8587837178737889858C8A71717C75BF
:101B4000897E858A787A7671878787877A76766FB5
:101B500083897E927A78716A818583897E7A7671AB
:101B600073807F8C816F806C7883818A81787C6FB1
:101B70007183858A8A757C737185788A8C807E757D
:101B800071807C89907C7A7E71817F85958081755A
:101B90006D80858190838781717A8180928A818529
:101BA00075807F7E908A818773787F858E8C7F8316
:101BB000766F7E788A898187766F7A73838783814F
:101BC0007E7176737C8E7C81766F76757E897E835E
:101BD0007C7171757689818385717A737583878944
:101BE00081717C78758589838975787A76858A890B
:101BF000897E737A738185859085757E757F8787E9
:101C00008E81737E757A9080928376786F7A8A81DE
:101C10008A8C7E786D6F877F8A927A7F71757E83DA
:101C20008A8A7C7C7A6F838987927C817A6C8181B5
:101C300092908A817A6F787F85978A7E816F7C788F
:101C40008092817E7875737E7A8A877A7A6A6A7AD8
:101C500076858A817C6A6A76757C8C7C7F6F6D75EF
:101C60007680857A7E7A6C767A818A83837E6875BF
:101C700078838A8C87856F757E7A9089858A7A7A4F
:101C80007E7C908A85857F737E788E92858E7A752C
:101C90007675878C878A7C7875757A8A81897C7657
:101CA0007E717E898789807576757A878C8A8C7338
:101CB0007875768587928E7A7A7C758381898E8015
:101CC0007A7A738983858E8176736D818785907F1B
:101CD0007A6D6D78807E898380756C737E80857C5B
:101CE0007C7C6A6F7A83878773766C6C7A7C878951
:101CF0007E7C6F6F757C8989817C8075787C878E0E
:101D000085817C717F878A908A817E7376878597AB
:101D10008A8581787A7E7C9090858178767C7F8CAC
:101D20008E818571757E81898E8785736C7C7A87BB
:101D30008C898A7C6F7A757F8A8987816F757683B3
:101D40008C7E877F7371737E8E8585816D6F736FD7
:101D5000857F838575736C6F7F897E7E7575756AE7
:101D60007E89818C736F76717C878C8583767673A0
:101D700075838C95837580737A81818C897E787365
:101D80007887838C857A7A7378817F8E8E83786F5B
:101D9000737E808A8A838976757A7F8A9081817A38
:101DA000758387898E89877A717E7F8E928E8381F3
:101DB000757C7A7E938C878573767E808C87817E16
:101DC00076737E788A8C81816F6D7876818C837E44
:101DD000766A6D73788C8181756D73737C857E8175
:101DE0007A6C71717C89897F7E6D737176858E8E38
:101DF000816D71717C8A8387877E787876898A8AFB
:101E0000877876767A89858E937F766F7585908AC6
:101E10008A807E7E738087898E7F81787681858AAD
:101E200087877C7873757F8A9083787575787887D3
:101E3000838781787A6F7A8589837F7C7A7A8083B9
:101E40008A8E857C757380858E9383837C7C7A7A79
:101E500085938981786F7C807E85837F7A6F6C78AB
:101E600083838778716D6F76788187817C736A6FE1
:101E70007E83897F7C7F7375767F878A85766F7690
:101E800080858A898183736D787E8E8C897F7A7A4A
:101E9000787C838A87878071777E898C8783767A3E
:101EA000767A818C8E877E71787A7E8C858983762E
:101EB00078717E87898C817376787E8C8589857A26
:101EC0007A7C7E87858583818383838181818181FB
:101ED000838311241FBECFE5D2E0DEBFCDBF10E06B
:101EE000A0E6B0E0E4EFFFE102C005900D92A0365D
:101EF000B107D9F720E0A0E6B0E001C01D92A336FB
:101F0000B207E1F737D074C07BC01F920F920FB6B3
:101F10000F9211242F938F939F93EF93FF93E09150
:101F20006100F0916200CF0101969093620080936E
:101F30006100E25EFF4FE491EEBD809161009091FF
:101F40006200843B9E4161F4109262001092610035
:101F500080916000811104C019BE8FE78EBDC498C6
:101F6000FF91EF919F918F912F910F900FBE0F9046
:101F70001F90189514BEA8959EE088E10FB6F894BE
:101F8000A89581BD0FBE91BD86E087BD19BE81E6D3
:101F900080BF8FE78EBD83E08ABD8AE083BF8FE379
:101FA00089BD82E187BBC39AC09AC4987894A895EA
:101FB0002FEF83EC99E0215080409040E1F700C082
:101FC000000080E090E1A895813051F0823011F45A
:101FD00080E0F9CF10926000B399F5CF81E0F3CFA4
:101FE000C49A8093600099BFB39BEDCF82E0EBCFA2
:041FF000F894FFCF93
:00000001FF
