:10000000C0CEDACED9CED8CED7CED6CED5CED4CEDF
:10001000D3CED2CED2CED0CECFCECECECDCE807D90
:10002000807D7F7D7F7D7F807D807D7F7D7F7D80EA
:100030007D807D807D807D807D807D807D7D807DDB
:100040007D797D737D6DBA612CEB9008A8D38C49C6
:100050005D962AB69A5BB898B8A88C5F12635F3237
:1000600080AC613EE3A85371D16969EFC9B46FA454
:100070005D7B9A5B7571AEACAC790298B00A329E2A
:100080009834AEE16930757349BEB27D6FB0A04B54
:10009000535D2E36AA9C6B8A7D795B4B8A636375B0
:1000A00090C1AE6D6BAE5759BCA4364BFFB2225D0A
:1000B00098534DB06973BE9A657F8443758E888866
:1000C0009CB6635BC5AA4B5D79679ADBA8438EB289
:1000D0005F6786A65B92B25D9AAC612AA2A4AA8CE5
:1000E00059B2A2966F673E88905DA886869A6F493E
:1000F00067825F49868C82885D5563BA6932868CD7
:100100008298885B904D63675BB09A6D79CF6D770D
:1001100088326BACAC658C8A9AB4736B92A484778A
:1001200090BC9843618082A08C676FDDDB4D518C61
:100130006F6180806D9C9A6B6D7986596D6D699643
:10014000A273206DB64D439C579AEB735B9A966BE6
:100150005B5D888C848C6F86BC844F718A988057D5
:100160005FA4C777497598866BAEB665A6B4245F61
:10017000A663494992A89A8A716792964F617965F8
:100180007DA267888E6D6373BE96757D9C73658650
:10019000383EA68E6DA68690CB866584596DA28E5C
:1001A0008894735F7D7186985773B4A688654745B8
:1001B0006386775196E39A779A7F615F5B73888E47
:1001C000906567968665615F9CE37353AE8855655D
:1001D00075539AAA7BBCAEA8A0593C7D8E6D8659FA
:1001E0007BAA8861577B7D927D8E92847D5D6B7149
:1001F0006363927DA2D3A24D5598864B2290987549
:100200009A945F7D8C71A0798EAC945D98AE6B4BA7
:1002100049A29CA49E9E8E84825D653E638877671A
:1002200092A277676F8C947B598C9E96794F616907
:100230006F84777BAE9A7B756B73595F5B88B682F0
:100240007584A69A75827179A894799C71557B758D
:100250005F86A67DA09292A6495171698692737FAE
:10026000A2A075757B619482658494926751797DB3
:100270005D849294AEAE6B5F8C756365777B96AC54
:10028000906B929C675F718C807F756F98825353DF
:100290007D9C94A694799698594777757B6575AA45
:1002A0009A8C7D696D926B4D8C96798C844F6B9A8C
:1002B000736796ACA4847B71617163555994B08463
:1002C00080948C75865B5798967D82928892675D44
:1002D0008EAA9C77908C9E884953616B948869AAFA
:1002E000BE82577D82717F6177AEA467677D71841E
:1002F0008E6771B4A482615F7B5957677B92A69A1F
:100300006F9AAC655B6F6D94A282617D9E77616729
:10031000829C9C88778E965B3E6571847D71909AF5
:10032000B89C5757828E69757580A8864D759477ED
:10033000697D9A9A98885B5594824D5B92AEA6A08F
:1003400075809888514B9490698294738894535D1A
:10035000A49E75808C8C946F4D53719A7B79B0A854
:10036000828271616575715988A6827D7B6D889CDA
:100370006F5FA2B48279736B73676B698EB8987381
:100380008A8A7171573E80B66D69929C8C697B75C3
:10039000829E966F96A26D5B5B616FA2807598AA34
:1003A000A85B5588695B8A6D75BC9A63888E71827B
:1003B000776796AE8A5F498088435B888C9EAC7D68
:1003C0007B9C6753696B868C8C8679A6AE5F518C5B
:1003D00088888E77779286595D6F968882AAA094D6
:1003E0009C753E7B986357809EA88E6B6F71867557
:1003F0005B849C73828A516988654D98B6988C7924
:100400008A8C715D4D559A94739E8C779080577746
:10041000988A7B809A9677575F829E98738ABA9C57
:100420006F7165556F826773A0AA7B6F8686827134
:100430005F88BA886B7979777186716DA8B282739B
:100440007979614F53719290757BA29A7B59757738
:1004500086A0796F809E6F616B7B9A7D8A98A29847
:1004600061456B79616F7D889EB6986D758E7D69EB
:100470007D887D948A5780905B5F86949AA4806F74
:10048000797B6F4D558E9A84A2907D9C82556192A6
:100490007B5D80948A716D6B5F849E8686989A904E
:1004A00075616775757186A8AA8A888A6D75805B83
:1004B0005D9494847971717D8A7173A4AA847F900C
:1004C000845D615D5F989884889892806D535D77B4
:1004D0008C777588947D637D827D8A8C8898A06DE9
:1004E0006169596B8477719CB89A6D75826567757F
:1004F0007F8C9A8E6D8E94717D797B94AC906571B2
:100500008271496184798AA29A8A90735D7169794E
:10051000807D8288968A6D5D8488778E8C798280D2
:1005200061616371757B9EA69A98806384885B6322
:100530008C8C94967986846B7B847D9A84798E7971
:100540006F6F655798AC8CA29A8C8C7B635D6B75D2
:100550007782908882737371758A777382969265B9
:100560005F67698686779EB08C82846F5965636306
:10057000888890826F9086776D6D9298907D808448
:100580006971717B8890A09A908A8265575B7788A1
:10059000737D8EA896737780807B8E8E84908C6717
:1005A0006B7373807584A4A28E7367716D596384B5
:1005B000798AA48C868A8273717D8C8A7B7F73771B
:1005C000775D5D7B9A8A8E928488736D6B5D79848A
:1005D0007D94A296947B6586906F6B888A887363FE
:1005E0006B63778A7D8AA69084866F6F73635D8C58
:1005F0009A9692808A8A71736D698C8A86756F77F4
:1006000077716B8C9498928C94986D576B63828CF5
:100610007D889A94807B6B697782847D848E6F63FA
:10062000868277848C96989C8C696965696D6D7BF0
:1006300088A49877847F656D777F8C84797B8082AE
:10064000736F77849696967F7D8665595775736D1F
:1006500098A2928C7B677D8477778686889A80754E
:1006600075808E7984A6948282736B67615D7590C4
:100670009A9A8A7B8886776F638A907784807D7F59
:100680006F63778C8482868E906D5F5F577B9C7FD3
:10069000889C9A90847D6B797D6F7D8A8A7B717945
:1006A000796D887D719AA6926F636F736D6F7F9479
:1006B0009C9888928A69716D6D7D86796F848A7D38
:1006C000696D798C96948E80886F5B73736F829658
:1006D0009492988A6B69757B7365798C908C6D7533
:1006E00082797F8C9A988E88776B7175676B8CA2F4
:1006F000948C84848E755F65757D7D8C887D827712
:100700007D7380A08E888A82806F555D77867B801E
:10071000908C94826F676379776B7B989280797104
:1007200088927B799A988875696D636D796F849AE0
:100730009C9082887D7169677B888E8484888075AF
:100740007D7B759290807977716D65617D8C8894E1
:10075000989A9A806773716F7D7B8C90887B777B8A
:10076000738284828A888A6D657F71697984969C98
:100770009A988A79756B6965758A868875848665A5
:10078000717D8C887B7D8480796D657184908C9877
:100790009498926963696D6F677D90847F79797DA4
:1007A0007F8279828E8A8A7B67737B7771829E9A39
:1007B00094887D776963616F848A8A7F828C88825E
:1007C0007973949879828A84736769778284949420
:1007D00090947767675D6B86797B9C948A88848226
:1007E00080847F828486846F6D6B6377777D9AA423
:1007F0008E827171715D697B868A948A909A777511
:1008000080737B827F7B7777715D637B828C94A022
:10081000948E7B63756D6D7B828A8C9498847379DA
:10082000826B6B847D887D5F717763778C989E98EF
:10083000968675736F675D799086888C928A736DE2
:100840007175797988907B77777D717DA29C989876
:100850009A8E756B676971717590928E8E80716DCD
:1008600079756F848E8C776F777582797D9E9E8681
:100870007D7D735D5965636B828C908C9088776FFA
:100880006D828A848A8A8677717D827D8A9C8E8435
:100890008A84696563657B73849CA2A0888488735D
:1008A0006D84867B8A8873737B71777D8490908654
:1008B0007B7375695B6373848AA0A0908E7D75716C
:1008C0006B77847B79777B7D696D828A8088948A57
:1008D0008A7D6D696571798698A09C9C886F737517
:1008E0006965848875797B75797B7F84888E8E9421
:1008F0008C736B6D6B6175909496968E826B656B45
:100900006571797B777D847F82757D9296889296DA
:10091000867B6969696B7B8C989E98827F7565710F
:100920007D6F758A8E8A86888884848A90908E8C62
:100930007D716159676B75909C92868884735F693D
:100940007773798A8A8688848086797B888C887D8B
:100950007B6755576B7179949A96928E79736F6B0A
:1009600073797F808E90847B848475758C90847B72
:100970006D6B65656B7B909EA09C98827D776B65A7
:10098000758277848E98887B79737D8284888A7754
:10099000696F6D5D71969296A2A09482736F676580
:1009A000677182888C908673737F807984948E734C
:1009B000717369717B8A9AA09E9490846B65655F60
:1009C0005D6F8A88868E887775777B8A8884848431
:1009D0006D61717375829E988692907561635D5F9B
:1009E00065738C9A90888E8C7D73869284868E7BBC
:1009F0006969737B79869496929288796F5D5D6F51
:100A000073759AA48C9496847777848C84777973A1
:100A1000716B6377887D849E968A8A77655F676B42
:100A20007384929E9A887D7D7B757382806F7171CD
:100A3000716D6D7D848692A09C908275756B576DEB
:100A40008A8E949E9A86797D7B71757B7973737596
:100A500073796F7792948C94A08E77716D595571DC
:100A6000828A909288867B6B79796D757D827773A7
:100A70007B7D7B809296929A9A8E7B695D5F637193
:100A8000889692889692776F7B7D73777F84807B40
:100A90007F848280848E98948C8A6B535B65636DAF
:100AA00088929492908A7B73737B7B737786867728
:100AB0007D8479757B90988A7F7B695B5D5F697FB8
:100AC0008896A4968C92887771797B737B8A8A80CA
:100AD0007B79757D848E988E7D7973635B637D8869
:100AE0008AA0A4968E8C7D77715F6D797780867DE4
:100AF000716F757F828494907B797563636F7B8E51
:100B000092969E9A927D7575655B6D847B808882D6
:100B100079777B848E8E96948C79676D6D6D7B8EE4
:100B20008E8C9C9A86776D655F5D6D848A868288DF
:100B30008879778A96949096866D69676B677786D1
:100B40008A9898928E79635D656B6D8896888C9093
:100B50008677799098948C847D73655D6B736D7BDB
:100B60009C9A989A88736363676B798898968C844B
:100B70007B7F827D8E8E7B77776D5B5F6B6B6F8605
:100B80009C9E989484756D595F777F849298847940
:100B90007D7F797B847D7B79776D6B676579828ECC
:100BA000A0ACA4908C7B655B677B8488928E887DEB
:100BB000757D82777B82847D717775696D828A8E7F
:100BC000A6AA9C927D695D5B61758684828C8E7B12
:100BD000777B8077778A82827D75757375798C9C37
:100BE0009E9EA288695F5B5F5F738488888E908415
:100BF0007D807B7D847D8A8A7973757569738E9E0D
:100C00009894927D5F5B5B596B718296968E8E8E07
:100C10007D757B847B8086887D7171656F77869E0C
:100C20009C90867B6B5B5B6D77778CA29E92949099
:100C3000847B717B807B82847F71636B757D8AA0EE
:100C4000A28C8A826B63636D7B848C9C9C988E8261
:100C5000826F616D7D7577847367656D7986909C11
:100C60009C9488736D6763697B8486989E92867F67
:100C700073655D6F7F7D827B7777716F8496969ABF
:100C8000A49680756F695D6B7B798C96969486715E
:100C90006769696D808C847F807D73758E92969C68
:100CA00096907B6F6565635F6D8892969A968A6B66
:100CB0006B716D77848E8C8284797980849498901E
:100CC00088887F6363655B5D738C989C9E9884794C
:100CD00067697D79808C947D6F7B797980888C863B
:100CE000848273635F575969798EA8AC98988E7126
:100CF0006567777B798A8877797B777D827D889233
:100D0000867D82735B5F6D7784A0B2A8A6987D6FA5
:100D100067676D7B7B77828479757D847D7D969214
:100D20008888796B655F677D8E9EA8AA9A7F6F67BA
:100D3000635567796F7984847F7D7F7B868E8A9403
:100D40009484756D675B65869498A6A492776965AF
:100D50005F65636F84868888908A7D888A888C9690
:100D6000947D6B6B5D576B7B949E9C968A7B6361D5
:100D7000675F65758A8C869896868282868A8C885B
:100D8000868069555B616B849AA4969898776B6BA3
:100D9000696B6F7B8E9A9892908A7D757B8C84802C
:100DA0008A755B595F6B73889EA2A09C8C7F73656C
:100DB0005D697773889C8E8A8A7D6D6979807D8272
:100DC000796F656161738A8C96AEA6948C7D715F34
:100DD0005F6B6B7B8E96968C8273737573848C823B
:100DE0007977736B6B828A90A4A6A09286776563ED
:100DF0005359757F88909C8E73777B717B86848234
:100E00008279717177798C9A98969A9677696551FB
:100E1000515F7388909A9A8C847B77807F808692CA
:100E2000846D797D757D8892909096887369595309
:100E30005B697796A494989A7F75777D7D77848493
:100E40006F716F6F73757986968E888E775F57593D
:100E5000656D84A0A29E9C927D7575757D7B757B6A
:100E60007B717173797B77969E90989279635F61BD
:100E70006B7F8C9CAAA292827B77676F7D6F71805B
:100E800079717375737D8A90A2A2948A736757559E
:100E9000717F8A9EA698887B756B65656B75757D7D
:100EA0007D8282717D8C8C96A4A89282775D535D41
:100EB0006D82909A9A948E796B71655D6F7D828058
:100EC0008E907F7D828A8E949E9A8E735959555743
:100ED0006B82969496A08C7B75716B6777868A90EF
:100EE0008E8C8677737D8E928A94866357595D5D6A
:100EF000738E96A0A29C9686736B6F736F829A8E88
:100F0000888A80716F828A8A8C867B6359595D6D6D
:100F10007788A4AA9E9E9A846D656D696F848E9071
:100F20008482756D777784928A7B79715B5B6D754E
:100F30007D94A6A8A09C90796B5D596B737B8C9275
:100F40008875777B757F8C948E847D7165676D77EE
:100F5000888E9AA2A2907D735D515567777B8E949F
:100F6000827D7B7984888C929688717371656777AE
:100F7000868894A49C887B6555555B6B8494929677
:100F8000988682868C8E8894927B736F6B63636D78
:100F90007D90969A9C8C715D59595D6F9092929854
:100FA000948A7F8486888A82847D71656567616999
:100FB0008898929EA0886B5F5F5F6B7D8E9C9E94ED
:100FC0008E8C84758286797B8280716B6969697782
:100FD0008C9CA8A49C86736359696F778C9C9486BB
:100FE0008A88756F7575737779797771656B777D99
:100FF0008EA4AC9C8E8469535B636B7B8A929492C3
:10100000868080756F757D7D7D8684736F77808A1D
:101010009AAAACA28E79675D555D6F80848A9A8E9C
:1010200082847B6F6B798086888A847975717D90E4
:1010300096969E9673655B514F596F7B8890989AF0
:101040008E847775757182908C827F796F6F7B8EBD
:1010500092949A8C71615D575F6573929A9CA2A875
:10106000967F7777736F7F8A827B796F6B6F758AD4
:1010700098928C8879635B6367697B96A2A2A8A02B
:101080008E7B6B696D6D738488796D7175737D94DA
:101090009C94908C7D6D6765697180909EA49A8EFA
:1010A000846B595B676B7184867B777B7B828C92C8
:1010B0009C9C9284807561616D757D90A4A2988AD4
:1010C00079675B5B63737D8086847B79828A8C8C95
:1010D000989C867F7D6B5F5D656F82909AA09684F9
:1010E0006F65615D6B848884909084848A8A8E9415
:1010F00090928C7D73655F595D75868E9CA6967DFA
:101100007369636771848C8C8C8A8A867D828A84F9
:10111000828A867367675B5761758C98A4A29486F0
:1011200071656B6D6F7D8E8A848E8A7D777D847DFF
:10113000828682796D5F61676D829CACA8A69C8473
:10114000716B6D6B718086888684827B7773778400
:10115000828288826D65696F738AA4A8A4988A794F
:10116000695F59656F737D8A8A7F86827779848803
:101170008A908C847369697186909CACA6948279FC
:1011800065575D656D778690908A86827B7B7B86CE
:10119000948C807771615F717D88909E9882776B67
:1011A0005955575D717F86969E968482827B7D8A93
:1011B00092887D7B6B676B718494989A9A8E756D1B
:1011C00067615F677F9096A6A6948A8079797B8213
:1011D000868677696969676D849894949A8A796D2F
:1011E000655F5F6F7D94A09E9C947F6D6F75737338
:1011F0008280716B676B6F798C96A09C9892806BE4
:101200005D636769829CA29A948C7967676B6F793A
:101210007B7B776F717584868EA4A8A096927B5D88
:1012200055575B6B7F929E9A8E8071675F6B797961
:101230007B8086797784848A9498A29E90826D5B65
:101240004F515F738498AAA28A847B6D6F758288E0
:10125000868C8C88867F848C9090989A82716B5350
:10126000494F637B8EA0A8A094847573736F7784B5
:10127000827B8884777779868284908E806D5F53B5
:1012800051576988A0A4A8A6928277737169738266
:101290007D7D7D7F797575798A888C948671615F93
:1012A0005F63799AA4A4A89E907B6D67696B65754E
:1012B000827D7D7D7D7573828A8E92968A7163614F
:1012C00065718496A8A8A0948879635D615F657351
:1012D0008486848886808086949E9A928879655FC9
:1012E0006D7582949EA0948C826B615B5B676D7957
:1012F0008C949084868280848E9A90847B69595BDA
:10130000616D7D88949A9484776F615B5D6B7D8657
:1013100098A0948C868282868E908C7B6D695F59B2
:1013200061758A8E96A49A8E8473695F65738694BC
:101330009A9E96887D7982827D86867367615F61D9
:1013400067798A949CA2A4927F6F65635F718C9287
:1013500094928E807171777B7D807D756B676971EA
:10136000757D98A0A0A6A49275655F5B6371889453
:101370009490867B736D757D7B797D7D716B7577C0
:10138000798492A2A4A098866F5B5157617184946E
:101390009486848275757B84868284847F7975794E
:1013A0008284909EA89A8A82634D4D576D7B909E51
:1013B0009E968A86827F80828886828684716F73F9
:1013C0007980869CA092826B594949556F8A92A078
:1013D000A4988C86847B71778279797B756D676739
:1013E0006F828C92A2967D695953536182949AA41C
:1013F000A89E8E847B756F6B757D7775736F676341
:101400007588949EA49C806B635D6571849AA2A28A
:10141000A09A8C736B6D6361717D7B797B756D7147
:101420007D94A4A4A296866B5B61676F82949E9C58
:101430009A92826F6561616575868A867B797D7B0C
:10144000889CAAA89A927B61575961697B8C969A6D
:10145000908A806D5D5B67737B8A96867D7D797DE2
:1014600088969E9C8E7B6F5B4F535F71798A9EA09E
:10147000968E82716563717D8C949690827D7B825D
:101480008C8C989A8473695F535967758696A6AA5F
:10149000A294827169636F888C8A908C7D6F737B54
:1014A00082888A8A7D6D635B5B5D657D909CAAB254
:1014B000A48A776B635F697D8886868075716F7992
:1014C0008886888C86776B6D6B6971889EA8B0AEB4
:1014D000A08A715D5B5F677988887D7D7D73758289
:1014E0008C8C8A908A80736B6D6D73849AA6A4A08D
:1014F00092775B51535B657788888682828280848D
:10150000888E8E888A826F6767696D8098A4A0969E
:10151000886F5B51576375808C98928C8E8E88840F
:101520008C8E8A86847B6B615D63718290A2A28EB1
:10153000806D5D555B6F7B86949C988E8C88827DD8
:101540007B82867D7771695D5965798A98AAA690B4
:101550008071615F67758A9498A2A098887F807572
:10156000717B847D7573675D5F6B8698A4ACAA966A
:101570007B6963615F6D828E8E9698887B716B67E5
:1015800065717B7B7569656565718EA6A8AAA69253
:1015900075655F5D5D677B889292928E7B6D6971E8
:1015A0007379888E8477757577869AA8ACA89C8C99
:1015B000755F57595D63758E96949490806D6D73C9
:1015C0007B848C8E8879717379848C9CA294867BC1
:1015D00069534D5159677B92A0A09A9082736F75A1
:1015E0008688888C88756B7179828A9298908075CC
:1015F0006759535565798AA0B2AE9C9082736B711E
:101600007F847F7D776D6969717F868A9492827508
:101610006D63575B6D8698A8B4AC9C86736D6969E1
:1016200073807B7575736F6F7B888E909A9C8E82AA
:1016300073696363758EA2AAAEA8927767656161CC
:101640006D7B7977797B7979808A9498989A907B69
:1016500069615D5D6D8A9A9E9E98846B5D5B5F6338
:101660006D7784847F848884848E989A98968C750C
:101670006159575D6F869CA49C90847163636B7104
:10168000778492908C8E8E86848A909690887D6BDB
:10169000554B5361738A9EA69A8E847167656B75EC
:1016A0007D8490948E88847D7B79848C8679736523
:1016B000514F596D8496A8B0A6968A7B71696B7953
:1016C000828690968C827D7775778088867B71671D
:1016D0005D5B657B949EAAB2A4907F75675F5F6D2A
:1016E0007980868A86796F6D75797B8A8C7F736B3A
:1016F000696771889CA4A8AA9E8C77675F59576711
:101700007B84888E8E8273757F8488909086776DB7
:101710006D7177869AA2A09C948269595553576738
:101720007D8E929490887D7B828A8C8C8C8473676A
:10173000696F737D8E9A98928C7D67575357637546
:101740008A9EA29A9692847D868C8C88847D6F670F
:10175000656D737D8A989E92887D6B5957616F8005
:1017600092A4A69C90867D7775797D79716D67616D
:10177000616975808A9AA0968C806D5F5D65778AB5
:1017800096A0A498887B77736B7179756F716F6B76
:101790006D7382929AA2AAA2907D6D615D657B8C29
:1017A000949C9C907D736D6D696B77797775777973
:1017B000797988989EA2A49C846D6157575F73883D
:1017C0009294928C7D6F6B6F6D6F7B84827F82822F
:1017D0007F828A989E9E9A907D6353535761758C41
:1017E000989894928677717175777F888C888280BB
:1017F0007D7D828C98948C826F574D5159697D9272
:10180000A0A29A928A7D716F757B7B848C847B7990
:1018100077777D889292887B6D5D555B697B8C9C28
:10182000ACACA0968C7B6D696F75797F868277737F
:1018300073778084909488796F675D637184929EDA
:10184000A8A69C8E7B6D635B616F757982827971CE
:10185000757D848A94968A7D716B69697388969C7C
:10186000A2A498826F655B5761717D828A88827DB0
:101870007D88909496968E7B6F6B69677184929841
:101880009C9A8E7B675B575B6575888E8C8C8A8291
:10189000828A9090908C8273656161656D7D8E9A6D
:1018A00098948E79655B5F656F82949A9692908A20
:1018B00084868A8A887D776F615D6169718296A26C
:1018C0009E988E7B675F616B7986949C968A8684EE
:1018D0007D797D7F79716F695F5B616B7B8C9EAE7B
:1018E000AC9E8E7B675D5F6D7B8692989288847DCF
:1018F0007775757B7B7773736F696D7B8E9CAAB4EC
:10190000B29C88735F575B6779848C9090867B77F5
:1019100077737179807B7777736F717D909CA4AAC0
:10192000A490735D554F515F75848890928A7F7B38
:101930007B7979808686827B7977757F909EA2A05D
:101940009A866B59535359697D8E989A9C988A7FD1
:101950007D7F7D80868A807773716F778894989277
:10196000887963535155616F849AA2A09E988A79B1
:10197000757575797B827B6F6B6B717986949C92A0
:10198000867B6B5B59636F8292A4AEA8A09484752A
:101990006B6B73737579776B676D77808C98A09696
:1019A000887D6F635F657384909EA6A2928475653F
:1019B0005D5F6B71737777717175808E969EA29C57
:1019C0008A7971675F657586929EA49C8A77696340
:1019D0005F636F7B828084847F828C969A9A9C92CC
:1019E000827167615B5F6F8290989A96866F655F80
:1019F000616573848888868A84868A9092908C86B2
:101A00007B695F59595F6F8896A0A09C8C776D6B3E
:101A10006D737D8A94908C8C8A8482888C84827D7C
:101A200077675B595D67778EA0A8A49C8E796B65FC
:101A30006B7179828C8A8284807B77797D807B77D9
:101A400073695F5D69758498AAB0A69A8A756761A3
:101A5000636F777B8686847F807B77777F888680BD
:101A60007D776B696F80909CACB0A48E7B695B5571
:101A70005D677179848C86847B7B797B82888A849C
:101A80007D736B656F8296A0A8AA98806B5D535199
:101A90005567798490989A8E8A868484888E9086F9
:101AA00079716B676D8496A0A29C927D65575355A2
:101AB0005D6D86949EA4A09486847F7D8286847BBF
:101AC0006F6161616979909C9A988C796359575BD1
:101AD00065798C9AA6A69E9082757577797B7771C9
:101AE000655F5F67718498A6A49C94826D635F6153
:101AF0006F7F90A2A8A2988A796D6B7173737571CC
:101B00006963656D7B8C9AA8ACA09286715B555B0E
:101B100069778C9C9E968A7B6B63636B757B77750C
:101B2000756B6F7788949EAAAEA08E7D67555357CC
:101B3000697F8E9AA098847B716B6373808488869A
:101B40007D797F828E989E9EA2947967614F4349EA
:101B50006986909A989E82756B6D6F777D7F888A73
:101B60008A75737F90948E8E948C756757474B5D02
:101B70007992A2ACA6A2947D797B717B948E8680AB
:101B80008480737B868A989484847B6949416177D9
:101B900088A4AEAEA4A284655965656D887B79750D
:101BA000736971757575888C8294795B495B717BFB
:101BB00082A2AEACAC907165696D717182717F8AE1
:101BC0007D737B8684929EB0A08E84696169758CDA
:101BD0008C98B2B4A892694F596369615F6F7B8A30
:101BE000866D778A7B90A0A6907D7161535767655B
:101BF0008A96989E9C71595B715F5579797D9CA6F8
:101C00007D848A888C989E8C7F806F575D5B718401
:101C100098A49C92907B5D695F596B82909A949690
:101C200086868C828E8E82808E6D5B53515F75941A
:101C3000A4A4B6A68882736761657196989C9896ED
:101C40009A8477807D84887579534357555F758C66
:101C5000A2B8B0A088755F556967657B8C96A4862D
:101C60006D6373807788846F717B615D656F829629
:101C7000B4BEAE98846F67595565758AA2A68A77F7
:101C8000776F737375757D888A86756D6D829EA278
:101C9000AAAEA4967D695B49496177869AA0967F32
:101CA000757B75757D8C8E8A82826F637386948A4C
:101CB00092A6A48C75573E3E4B657790A0A29E8855
:101CC00075797D7F827F969075797D716B738E9823
:101CD0009AA08C7773533A4F5765889CA4ACA49410
:101CE00080777D7B77848A8E7B61697173798E9032
:101CF000929A9E8A67554D4D5D7BA0AAA6B2B0A070
:101D0000866359676D736F6B7373696B71798C92AE
:101D10009EA49A846B595B63697F9AB2B8A6968C2D
:101D200079695B5B69797F7B828279757F7D86A229
:101D3000B4A6948871574D5F67778694A0A28E7978
:101D4000655B5B656B636B7D88827B77808698AC17
:101D5000B0A490735F4F4B55637B96A6A6A0887581
:101D60006F6D696371848E92928E8A8086928E8A5C
:101D70008A82797773737377797B7B7B7D828486A4
:101D8000868411241FBECFE5D2E0DEBFCDBF10E0B8
:101D9000A0E6B0E0E4EAFEE102C005900D92A036B4
:101DA000B107D9F720E0A0E6B0E001C01D92A3364C
:101DB000B207E1F737D074C023C11F920F920FB65C
:101DC0000F9211242F938F939F93EF93FF93E091A2
:101DD0006100F0916200CF010196909362008093C0
:101DE0006100E25EFF4FE491EEBD80916100909151
:101DF000620084369D4161F410926200109261008D
:101E000080916000811104C019BE8FE78EBDC49817
:101E1000FF91EF919F918F912F910F900FBE0F9097
:101E20001F90189514BEA8959EE088E10FB6F8940F
:101E3000A89581BD0FBE91BD86E087BD19BE81E624
:101E400080BF8FE78EBD83E08ABD8AE083BF82E3D7
:101E500089BD82E187BBC39AC09AC4987894A8953B
:101E60002FEF83EC99E0215080409040E1F700C0D3
:101E7000000080E090E1A895813051F0823011F4AB
:101E800080E0F9CF10926000B399F5CF81E0F3CFF5
:101E9000C49A8093600099BFB39BEDCF82E0EBCFF3
:041EA000F894FFCFE4
:00000001FF
