:10000000C1CEDBCEDACED9CED8CED7CED6CED5CED7
:10001000D4CED3CED3CED1CED0CECFCECECE808086
:10002000818282828285898B8A87807569605B5F25
:10003000728CA0AAABA18F7D6953454A6588A8BF81
:10004000C6BBA2805B3D354A6D8EA3A38D726567EA
:100050007794B2C4C3A87540252C486E90A7B5BB51
:10006000B49B74503D3F52739AB7C4C6B7936C5655
:1000700051566574797B7F7A6B616881A6C5CEBE67
:100080009F7C5E4B444854667F9AADB0A99B8368C1
:10009000554C4F688DA9B4B6B09A7A5F4E4C5C75DA
:1000A00084847B74737A8A99A1A6ACADA28A6A4DC6
:1000B0003E414C596C8BADC0BEAD8D6A52484A5C16
:1000C00083B1D0D5C29966403540556F87959181EF
:1000D00072696C82A1B9C6C9BC9B6B3A18153362B0
:1000E00092BCD2CDB38D5F392E436FA0C6D0BE9DDA
:1000F000816E625C63737D7B726457596C8297AECC
:10010000C1C3B6A1856A59534F4E54627A9BB8BF9A
:10011000AC8F735B4A48577296B6C4BCAA957D6291
:100120004D464C5E768A8D81746D7287A2BACBD3B0
:10013000C59C622805032765A2D3ECE2B170392182
:100140002F5C96C3D3CAB0875D474759799BA89463
:1001500073574747577190B6D9E8DAB37F4D291DD9
:100160002B4A729BB6B7A48B74696F7D8280848C96
:100170008F8B8784868E9081685655637481837DCA
:1001800077777B88A2C0D4D2B47E411B182F547ECF
:10019000A0B4B9B0967157586A7F92A1A6A29B8E5F
:1001A00076615B616F7F8A8B84776450485981B533
:1001B000E1F2E0B27D502C1A23426D9AB7B39983D5
:1001C0007C7B7C7E8082899498928881786A606248
:1001D0006E81949A856148445579A3C6DFE5D0A025
:1001E000673A262B4567808D96988F837C7B7D832D
:1001F0008C908E929C9D917A6152597189939185D0
:10020000725A4744577FB1DAE9DFC09366442F251D
:10021000304F7390A3ABA89E8E7A655D7196B2B88D
:10022000AA8C674C444B648DB5C5B58A5021142FF8
:1002300065A1D6F4F5DBA86E41313A4B5966778754
:100240009398908179808B959DA39E917F6A554C60
:10025000597693A5A7977B625044466088ACBFC18E
:10026000B6AAA59E87624231324566869DAAAA99A2
:10027000806D6A7894B2C0AF8C684A373B567FAACB
:10028000C6C29D6D48393B4D6B8FB5D6E6DAB88A4C
:100290005C382A3145648CA9AB93715C5E7798B267
:1002A000BEBFAF8A5B39334A739DB2AD98806A5B3B
:1002B0005554596A869FADB6BEBFB69E75482C2E62
:1002C000425D78909F9E917F707086A6B9B7A38596
:1002D000695B585555627A95A8AB9B826A55433E37
:1002E0005180B9E5F4E4B5794622182D5887A9B3B1
:1002F0009E7657566F91AEBFC1B39A79563F3F5223
:100300006B8296A2A5A19276564344597CA4C5D788
:10031000D5BD93613A2E3D5D7C89827773757A866F
:1003200097A7B2B3A58F7B71685D54555F748D9F9D
:10033000A49F927C5F453C4C75ADD9E3D0AD8561FF
:100340004C45485568787D7A777A83929EA29F9D26
:10035000A09E917C66534A4B566888AFC7C09D6B80
:100360003D29385D8AB6D6DECBA67C574549586410
:100370006B72797D7E7B787D90A8B9BCB5A58C6EBB
:100380004D2F21346399C1CFC09B704E3B3F5A849F
:10039000ABC1BFAB917F7875716D6C6C6A645E5E4A
:1003A0006B81969E9EA1A6ACAFA58763483B3E4F4E
:1003B0006C8AA5B4AF9576615D646E7C8A99A7ACB2
:1003C000A3907F766F67605E637182877E70696FCE
:1003D00084A4C3D1CBB287532716255188B3C2B7A3
:1003E000A2886B534D5A7699B1B3A3948A847C71D9
:1003F000645D64737D7C756D66656F819AB8D2D5D6
:10040000BB916544363C4C5F7792A4A5988679757C
:100410007A7D787278899CA9AA9C866F5E5355670D
:100420007F8F8E7B61525A779BBBD2D9CAA6754308
:10043000201C355E87A5B1ACA1927E685C5F6E859D
:100440009BA8ABA6977D615158718A98947D604CAA
:10045000464E6790BEDFE9D6A8724B383641556DDF
:100460008597A09E968D857A6D666C7F98AAAA96D0
:100470007E6E6769717C868D8A775942415981AC5D
:10048000C9D2CCBB9F7D5D494346505C6B8099AB24
:10049000AD9E87736A6F7E8C9499988D7A675D6341
:1004A0007994A0967E634D444D6483A7C5D2CAB6A5
:1004B0009D856B50392D375881A0AEAB9C88766AEC
:1004C000687590AAB4A888634C4D617D98ABAC97D1
:1004D000714A3336537CA0B6C2C8C4B49977574525
:1004E000434953657B8E99978A7B7780909DA39E25
:1004F000907C695E5C698299A39A846B5C5C6162A2
:10050000636C809BB4C4C7BFAD8F64392025447031
:1005100098ACAB9D8A75686C819CB2B59E78594F3A
:1005200057687B8B969E9E9072564849576F8DAA4E
:10053000C7DCD9B9895A382D39536F88999A88728E
:1005400066718CABBDB69B806C5F595E6B7D8F9B7B
:1005500097897C756F6960595B6D8CABC0C9C6B4F7
:10056000956C452E335072888C868081898F929548
:100570009B9F9B8F7E6E63616162697C95A8AB9D3A
:100580007F5E453C435F8EC2E6ECD19B65423A44B8
:1005900056697880807A726F7C96ACB4AFA29284F0
:1005A0007867564F586C80919EA4A091734E343753
:1005B0005788B5D1D2C0A5896E5A545B68717065F1
:1005C0005E65788B979EA4A8A9A1907D706A6156FC
:1005D00050587297B7BFA9815B423D4B678BAEC73E
:1005E000C9B59880726D6B665E5B5F676D737D8960
:1005F000959EA09C9BA2A99F835D3B2F3E628BABE7
:10060000BEBEA67C523839557FA3B6BBB6A8947F30
:100610006F67696F706961606772797D808CA2BB5A
:10062000C7C0A8845D3F30334D7AA7C0BB9E785DBC
:10063000545965768CA0AAA49586838B938B745DA0
:100640005153617078787A828A939FAFBBBBAA8638
:100650005C3C344159748EA2ACA99679625D677492
:100660007F87909EADB3A68C6F5A515664737F8579
:100670007E6C5A586E97C3E0DEC095684027263FCF
:100680006A98B5B69F83736E6E6F717682919B9AEE
:10069000969491897C6E666B777D725F5151617C17
:1006A00099B4C9D4CBAB7C533E3F5065747B828BED
:1006B0009499968D80746C66697B97AFB6A78A6EA5
:1006C00061626A747E837E6E58484B6A9DCCE3DD1E
:1006D000C0987357453C425770849095989A978A72
:1006E000746364758B9B9F998E83796E6A74879609
:1006F000957E5A3C364C7097B8CED2C6AC896A5AB1
:10070000575653535A6C869DA49D90847B7574797B
:100710008696A19A8269606B81949A8F7A66544812
:10072000485B7B9FB9C2BCB0A79E8B6E503E3B48D6
:100730005D73879BA8A5927A6A6D829AA7A2917C25
:100740006A62657185999F91755A4B4E5B6D7D8E7E
:10075000A3B9C7C5B3997D61493733466C94AAA83C
:1007600092796A6D7D91A3AEA99474574B58799A8A
:10077000A9A2907C695A4F4C57718EA2AAAEB3B809
:10078000B39C764F3A3E516679889090897E788204
:1007900098AAAA987C66616B7881868B8E8C817210
:1007A00068686F736A5F61779DC3D9D6BB93673FF3
:1007B000282C477096A79C83706E798A99A2A5A36E
:1007C00098806454586B7F8C8F8C8C8D85715848C1
:1007D000495B7B9FBFD5D8C29664423C4E687B7E06
:1007E00076706F7178869AAFBAB0937463656F78DC
:1007F0007976757A8287898B8A7F6951455177A787
:10080000CAD5C7AA8A6F5B4F4F5B6D78786F6C74DF
:10081000879AA19E99969591877A6C6360606576B8
:1008200090AAB5A47D4F343752779CBCCECDB894F6
:100830006F59596875756C615D64717F8C9BA8AC4C
:10084000A4958984837B69534B597696AAAC9D867F
:100850006B53454A648BACBBB4A3948E8A82786C8C
:10086000625A54515669849BA39D928D96A3A69873
:100870007F665750535E7593ADB49E79594C53675C
:100880007D8F9DA8ADA6988B85837A6952454C646F
:100890007E8C89817D8493A3AEB4B2A07E54332C28
:1008A00045719AAFAFA18C735E52576D8A9FA39C1E
:1008B00095979C9B8D7560575B636B7074767778AA
:1008C00079859DBCCFC8A779513C3D4D65839EA9D4
:1008D000A0876D626A7D878479747C8FA3ACA99FA1
:1008E0008F7A614C47566E8184786B6D7D93AABA7E
:1008F000C1BAA481583C3B5270868D8C8B8F928CF0
:100900007C6B6265708193A5B4B7A582604E546913
:100910007F8883766657505C7DACD7E7D4A6724E4D
:100920004147566675828D918C858385847C70687D
:100930006F849BA6A295887D756E6C727D837962AB
:100940004C4B6187ABBEBDB2A4938271645E5E5FA7
:100950005F606B829DACA79176635F69798FA6B368
:10096000AE957257546A8797917C64555259688046
:100970009EB9C3BBA997887A69544344556E85963E
:100980009E9E96856F60657E9EB3B1987864636F16
:100990007D8A8F8B7C67524954708D9FA5A6A6A82F
:1009A000A79D89746358504C536988A3AC9C7F6998
:1009B000667387979D9A9388796D6E7B8B91887407
:1009C000635F666C6D6F798797A3A8A9ADAE9E7CB7
:1009D00051312D476D90A3A59A8A786C6B788E9FC4
:1009E000A2958174737A81827E7C7D7C7469626455
:1009F0006D75797D8CA7C5D3C6A171473234466326
:100A000085A0A7977D69687A93A09F968D867D7251
:100A10006B6D7C8C9186756C6D73746C6160718C80
:100A2000A7BBC5C2AE8E67463A47637B86837C7B95
:100A300080888B8E9297968D7F7576828C8877666C
:100A40005F6A7E91978E7C65514A587DAED8E4CE20
:100A50009F71534647516276878F86766E76899A64
:100A6000A0998F8C8D8C83736762666F7C89979F4A
:100A70009678523C42648FB3C2C0B5A48C715D5865
:100A80006270756C5D5A698197A2A1989089838084
:100A9000858E91866F584F5E7D99A39A86716258B4
:100AA00056627EA2BDC3B69D87786F675D5556605E
:100AB0006D79838C92938C817D89A0B2B0966E4CB7
:100AC000414D64809AAAAC9976503C466890ACB689
:100AD000B1A6998C7F7572726D635957647C8F9340
:100AE000887B7B899BA7A89F91806A524855749503
:100AF000A8A38B71615D616B7A8C9BA3A19A969977
:100B00009A8E735542455C788A8E8A847E797A867D
:100B10009CB4BFB18C624743536C85969D99897094
:100B20005E5C6A7C8889888EA0B0B2A1866B5951C0
:100B3000535C6D82918F7E685F6D8DAFC3C3B2953C
:100B400072523F425A7E999F917F75777C7A706985
:100B50006D7F94A4ACACA5967D604C4C607B8B8A79
:100B60007D6E676974849BB4C2BA9E795B525C6A7D
:100B70007272737A858F918C837B7165606B87A9A4
:100B8000C2C2AA8667565158677B8A8D7F69595FB2
:100B90007A9BB2B9AF9F9185756457555D6A77832B
:100BA000909DA195785A4C567497B1BCB9A88C6A9F
:100BB000514E617E93937D615256698097A7B1B281
:100BC000A7948175716F69605A5F70869599948A50
:100BD0007C6F66677895AFB6A6896F65697379781B
:100BE00075716D6B6C73808F97968F8F98A4A59796
:100BF0007C5F4A454D607C9CB2B39A7250485D84DC
:100C0000A6B8B5A48D776762697985857A6C6568C1
:100C1000727A7D7F8693A0A8A9A398876F533F42DD
:100C20005C81A1ADA0856D6264708396A3A3978358
:100C300074727E8A8D82726662666B7078828A8A2E
:100C4000868996ABBBB6996D483840587690A0A27D
:100C5000957E68626F85989E978C8583817E7B7B6D
:100C60007B79726A69727F867F6F646A84A6C1CA63
:100C7000BD9F775038374E7395A39B87746D727BF9
:100C8000858C939794897D797D85867B6B646C7D5B
:100C90008B8E8574645D637592B4CAC7AB80584609
:100CA0004B5F73808789857C7270798A97978B8078
:100CB0007F8894998F7A675D5D67778B999886684E
:100CC000504E678FB2C3BFAD947C6555525E6F7B4B
:100CD0007C77747B8B969384746F798C9EA8A79B8A
:100CE00084644A43567CA0AFA180604E4E5D7A9CDE
:100CF000BCCEC7A77D5D545B666C6C6C737E888CC4
:100D00008B8986807A7A8599AAAB9572554B5870F3
:100D100088979A938168524C5E81A6BAB6A4918353
:100D20007D79756F68636060687C93A3A08B726344
:100D30006B839DACAC9F896F584D546D8CA19F8A7D
:100D40006F5F5E6A7A8995A0A4A0968D8782786588
:100D50005049577493A3A08D796D6A70819BB1B986
:100D6000AA875F474A637F939A938471615C657A2F
:100D7000909D9B9390959D9D8F765C4F525E6F8169
:100D8000919A96836B5E6986A7B9B6A0846B5A5513
:100D90005D70879491806E69717E837E767682978E
:100DA000A8AEAA9E8A6E513F4460859FA391786643
:100DB000636C8098ADB6AE93715B596778807D7631
:100DC000757D86888279726F7077869EB7C3B5907D
:100DD00063433D4E6B86989D937C63555C799EB6CC
:100DE000B7A58E7E77736E68656A737B80858D91FB
:100DF0008C7A62556181A6BEC1B194745746485F32
:100E000080989A876D5F65798D97999896938D856F
:100E10007E7C7A7263575B6F8CA2A5947A63585C70
:100E20006F8EB1C8C7AB7D54434C63798485838092
:100E30007D787577828D929291939A9C91785C4C93
:100E40004E5F7991A2A69A7E5C464B6D9BC0CAB953
:100E50009979645A5B657380857F746D717E8A8D24
:100E60008883848E999E9B93846F58494C6489A78C
:100E7000AE9C7C60555C70889DACB0A6917B6E6C1E
:100E800071726C63626D7D8A8E8B847E7A7A8193B7
:100E9000AAB8B292654036486B8DA4A99E866B575E
:100EA000526383A1B0AD9E8E827A746E6A6C70724A
:100EB00073767D868B84756A7089A8BCBBA58463B4
:100EC0004D454D6687A1A8987C655E6776838D95B4
:100ED0009B9D978C8280817B6C5B56647D969E91F6
:100EE0007966616A7E99B2BFB99D734D3F4C688344
:100EF00093968F867A6D6569778995979392979D7A
:100F00009A876B534B566D86979D958067555772A0
:100F100099BBC7B899786053515A6D839496897874
:100F200070737C807B767A8BA1AFAEA0886C5445C1
:100F3000485F84A4AD9B795A4F5B7694ADBCBCAA44
:100F400089664F4D5E7582837E7D82888A857A7040
:100F50006D727E91A7B6B49E795340486381959B8C
:100F60009484705F5A6784A5B8B5A1887771706D55
:100F70006864666F7C89949B998A6F564F648DB4C0
:100F8000C9C2A6826049424E6B8FA7A68D6B54558D
:100F9000688298A6ABA9A0907E706965605C606F5E
:100FA00089A1AA9D8165565A6E89A3B7BCAD8B6491
:100FB0004A495E7B909388796E696B7584939C9B9C
:100FC000948D8E9495886F54474F67849AA6A49306
:100FD000775B4D5778A1BFC4AF8E6F5C565C6A7B60
:100FE000898D84776F717A81807C7E8DA2B1B1A268
:100FF000886A504142567BA3BAB4946A4C485C7CE0
:101000009BB1B9AF977A635D6777807D76727780A1
:1010100085807670737E8C9BA9B2B09D774D3438F5
:10102000577F9FADA7947A6254597090A8ADA08D58
:101030008180817D72676369757E85898B8678671B
:10104000606D8EB2C9C4A77E583F3846658BAAB280
:10105000A07F655D6879868D90949A9A91857A7261
:101060006C656166788F9F9A836553556C8CADC4AF
:10107000CABA93613A2E41688DA09F93867C746FA3
:101080006F77848F93919093958F7D6656576A8181
:10109000939994836C58505C7EAACACFB78F6954D9
:1010A0004F56616F7E8A8E8A837F8285837B7376BB
:1010B0008599A6A5967F6959535A7190A7A9926CF4
:1010C0004C44597DA1B9C1B9A48768524D57677482
:1010D0007C818992979284766F717B8896A1A59B7B
:1010E000826149485F83A1AB9F8569554F597496CA
:1010F000B4C0B69C816F69686766676F7A848A8DB1
:101100008E8C83756A6B7C98AEB19F8063525361FD
:10111000778EA0A293765C515B71899AA2A4A5A058
:10112000938373675F5B5A62758FA6AA997B615838
:10113000647E99ACB3A98F6D5047567595A5A08E66
:1011400079685E5B62738BA1ACAAA1989084705899
:1011500046485F809CA9A4917A64585D7598B5BC97
:10116000AB88655252607487969D988671615F69FD
:10117000767E848D9CADB6AF96755643404D698B97
:10118000A8B2A4846455607A96A9ADA4927A6254F8
:10119000576A8292958C837F7F7C726660687C96AA
:1011A000ADBBBCAD8D643F303E628BA6AA9B846F05
:1011B0006363718AA5B5B096765F5A606B747A8363
:1011C0008F98989081716156556482A9C8D0BB935D
:1011D00066463C455C7A95A4A0896C5C607794A7D0
:1011E000AAA19385796E6664676E77808B99A39FB9
:1011F0008A6A4C4151749BBAC8C4AC875F423C5068
:10120000718D97908278767A7F848B929796918B66
:10121000867E705E5052688AA9B7AF96735440407C
:101220005984B3D2D2B4875F4B4C5B6E808C8F896C
:101230007D726F7580898E92989FA29882664F46C4
:101240004E64819EB4BBA983573B3B5780A6BBBD70
:10125000AF987E695E616B7577747379848D8C83CA
:101260007A7982909DA3A29882624334406697BDAA
:10127000C9B8946D4E41496488A9BAB5A0897870FF
:101280006C68656671808B8D877E75707077879FBF
:10129000B7C0B08959342A3C628DB1C3BDA179561B
:1012A00048526B85959A9B9B989184776E6A6A6A7F
:1012B0006E77848F8D7E6A5F6883A3BBC3B6987098
:1012C0004931324F7AA1B5B29E87756963626A7AF5
:1012D0008D9BA09D979087776457596B84979B8EC1
:1012E0007761565B7295BBD1CDAB774932364C6A8C
:1012F000869CAAACA0897469696E757B83909EA553
:101300009E8A715F59606F82949E977E5D484D6C96
:1013100098BECDC5AB89674B3D425876909D9D9751
:10132000928E86796A6267778B9CA4A497806653B5
:10133000526586A2A998785A4B516683A3BDC8BD51
:101340009F7A5B4D4E56606C7C8F9FA7A4978470EC
:1013500060595E7493AFB7A683614F54698398A2B6
:101360009E8B6F5447506E94B1BFBBAC977F68554E
:101370004B4D5A6C8094A4AEA99372564D5C7C9DE3
:10138000AFAD9B8168585665819DABA38A6B544E67
:101390005669819BAFB9B5A5907B6B5A4B434A63A5
:1013A00089ACBEB69D7D64585B6D869FACA58D6F84
:1013B0005A57647A8E9A9D9687725F565C6C8092BB
:1013C000A0ACB5B7A888603C2B34537BA1BABFAFA3
:1013D0008E6A53546A89A2AAA08C7561575C6E8884
:1013E0009EA69D8A7669625E5D62738FAEC3C6B645
:1013F00098734F342D406794B3BAA98C71626370AF
:101400008499A7A693775F576073828B8F93969486
:101410008A766153515D7493B3CACEBA905E392D0A
:101420003B5A7D9AABAC9C826B636F869BA1998A79
:101430007B726D686468738394A0A39D8F77594114
:101440003C517AA9CBD6C7A47A513631466B92AAC1
:10145000AB988173717780888E9497928575686058
:101460005D616D829CB2B9A8855D3F36456691BBD2
:10147000D6D7BA89583B3A4E6A829095938C817838
:10148000777E89929695928E84745F4E4B5A7797A9
:10149000B0BCB7A07A50312E4B7DAFCFD2BD9A7879
:1014A0005D4E4D586A7D8A8E8C8885837F7B7B84D8
:1014B00094A1A4988268504142557BA8CBD4BC8C9F
:1014C00058352E426792B5C7C2AB8A6D5D5B6066C8
:1014D0006D77828C8F8A7E75737A8795A3ABA99876
:1014E000784F302B4471A2C6D1C3A0754D393E59F7
:1014F0007D9CADAEA69B8E8071645E626C788287A7
:101500008A8980746C7185A2BABEAA855A38293539
:101510005787B4CFCDB18A66514C5363788FA4AE50
:10152000AA9C8A796A5F5A5D6C83979D927A625908
:10153000647FA1BDCBC19F6D3D222646739CB6BF83
:10154000B9A68B6D5850586A7F8F9BA4A7A18E7344
:101550005A50586D85979C937E6554566F98BFD2AC
:10156000C9A6795137303B567BA0B9BEB09881717E
:10157000655D5961748EA4AEA8957C665655637EF0
:1015800099A69D815F4B4F688CAEC5CBBD9D7249BE
:1015900031314564839BABB4B3A68D71594E52640F
:1015A0007E9AAFB6A887634C4E65869FA79C8469D8
:1015B000524852719BC1D3CCAF8864493937445DDE
:1015C0007E9EB5BDB8A68B6B4F434D6D94B0B7A64C
:1015D000896C5B59647A93A5A6927254464E6787CC
:1015E000A5BAC3BDA98B6A4F3E3A4256759BBDCD85
:1015F000C4A47955454D65839EADAA97795D515B2D
:101600007693A6A89A8268534A526989A8BCC2BD3B
:10161000AC9270492A1F305B8FBAD0CDB48F6A4F1D
:101620004A5B7B9BABA690745E575F738CA2ABA4A6
:101630008E725A50525E6F849DB7C9CAB58D5F389D
:101640002326416C9ABFCDC09E785D56637A909EEA
:101650009F937D65575A6D8598A09D948A7D6C589F
:101660004B4C6081A6C4D3CEB4875227182953852A
:10167000ADC1C0AC8F716061728B9C9D8F7A6860C8
:101680006167727F90A0AAA7967D61493E445E87FC
:10169000B6DAE3CD9F673921233E6895B7C2B3958B
:1016A00078696C7A888F918E887D6E60585C6B7FCC
:1016B00095A7B3B2A17E55352D436D9EC7DEDBBF26
:1016C0008D562D21345C85A1AAA5988A7E78787ED6
:1016D0008890938F85796B5D5352617FA2BDC6B7A9
:1016E000956B442C2D4B7DB4DCE6CE9F6C46363B8F
:1016F0004F6A84979E9A8F837E7F83878B9196957E
:101700008972584745537093B6CDCFB78750271F7E
:10171000396A9EC5D4CBB08B674F495262737E85C0
:10172000898C8C888380838D999F9D917D644B37B4
:10173000364E7BAFD7E1CA9D683E2A32507BA3BEAE
:10174000C4B7A08671615753596779888F8E898491
:101750008080838D9EADAF9F7C4F2C20335D92C1E6
:10176000DBD9BC8E5E3E374663829CADB4AF9F88AA
:101770007261595A616D7B8A94938775696E83A0F3
:10178000B9C0B39164391F224376A9CAD3C5A886CC
:101790006751474C5F7992A2A8A69F917C655451EE
:1017A00060798F9B98887363617290B3C9C9AD806B
:1017B0004E2B202F507AA3C2D1C9AE8967524A4F0F
:1017C0005C6F88A3B5B7A48565504D5C758FA0A2EA
:1017D0009173584F6085ADC8CEBD9B7046271F32B0
:1017E0005989B0C5C6BAA58A6E56484A5D7B99AE7E
:1017F000B4A99071564C577291A3A08C715B545E42
:101800007798B7CBCAB2895D3B2C31456181A1B9CC
:10181000C4BFAA8B6C54484E6584A2B4B098775D5F
:10182000555F748B9B9E937C5F4B4A6188AFCAD196
:10183000C4A6815A3A27283C5F88AECBD5CAAA7E77
:10184000543C3F5A7E9EAEAB987D65575B708DA62B
:10185000AD9E805F4946557193B4C9CCBC9D7A5703
:101860003B29273A6092C0D9D7BC936B5048536E3E
:101870008CA3A99A7D62555C718BA0A8A18D725929
:101880004D51637D96ABB9C1BEA984572F1B22422F
:10189000709FC5D6CEAF866250566D889A9C8F7A5F
:1018A00065595B6B849DACA999826D5F55515668F3
:1018B00088ADCBD7CBAB7C4B2414204980B2D0D0A1
:1018C000B79576635F6A7E9098907D675B5F6D7E6B
:1018D0008D979D9E998C765D4A46526D92B7D3DD69
:1018E000CDA369351719366493B7C7BFA788706849
:1018F00070808C8D857A716C696769728498A8AEE6
:10190000A69378593E35446B9ECCE4DFBE8B552AB6
:1019100019264C7DA6BAB5A28E807C7C8085898AEA
:10192000867C6E61595861738CA7BDC3B492653EC5
:10193000292F4F7FB3DBE8D4A66D3D262C47688561
:1019400098A2A39D938A84848789888580786C5D1A
:10195000514F5C789AB8C9C6AE85542D2034649E28
:10196000CCE0D6B68D6547393C4D667E919B9E9BFB
:10197000968F878282888F918A7964504345597EF9
:10198000ABD0DFCD9F6637212C4E7DA8C7D1C5A82F
:1019900084624D454854677D919EA0978B828084D8
:1019A0008B949B9C917855342839659BC9DFD7B7B8
:1019B0008A5B3A2F3E5E84A5B8BCB3A0876D574CB6
:1019C0004E5B6E818E959792887D7B8496AAB1A599
:1019D000855B36242B4C7CAED1DCCCA87D59443FB2
:1019E0004A607D9CB1B6AC9883706056535D718936
:1019F0009A9E9380716F7B92AAB8B59E7649271EF6
:101A0000325C8DB5CDD2C4A7815D46414F688195CA
:101A1000A4ACAB9F896C544C566C85969B927F6CA2
:101A2000636C86A7C1C7B590633C2624385D8BB62E
:101A3000D0D1BB9B7B64564F52617A97ACB2A892CF
:101A4000776054576880949B907A645C667F9DB7FA
:101A5000C5C2AC8659321F27456E95B3C3C5BBA519
:101A6000866750474F64819CAFB1A184675658691F
:101A700081939991816D5D596580A3C1CDC2A27991
:101A800053372C31456489ADC5CDC3A987644A431A
:101A9000506E90A7AC9E866E605E677A8F9E9F8F19
:101AA000755B4E566F90AEC1C5B99E7A563A2C2ED4
:101AB000406189B2D0D9C8A47A58494E627C929FBD
:101AC0009F9079645A62768F9FA1947E675957637D
:101AD0007994ACBABBB19C805F3F29263C6695BB2C
:101AE000CECBB79A795F53596C8496998D79686299
:101AF00067778A999F998872615A5E69798CA1B5D6
:101B0000C1BBA4805838292E476D97BACCC6AC8982
:101B10006C5D5F6E808D918A7A6A61647285949B38
:101B20009A93897D6D5E55596D8BAABFC5BAA17D0B
:101B30005534252F507CA5BEC3B59C816B636A7953
:101B4000888E887C716D6D70757D89969F9D917D65
:101B50006959545B6E8CACC4CBBC996C4229273C50
:101B6000608AADBEB9A58D7C777A808382807D78CE
:101B70006F655F63718497A5A9A3947C624D4654F9
:101B8000749BBCCECBB28A5C35242E4E7494A7AD28
:101B9000A9A196897E797A7F83837D746A625E6269
:101BA0006E839CAFB6AD967657423F5276A1C4D2B3
:101BB000C6A57B553D3843566F889CA7A79F948B3D
:101BC000868484848380796C5F5657627790A7B748
:101BD000BBAD8E65433643668EB0C1C1B197785CAC
:101BE00049454E5E7183929B9E9B948D898A8D8D13
:101BF0008A827667574B4957759CBDCBC2A47E5AE3
:101C00004441506C8DABBCBBAA8E715A4D4B536492
:101C1000798D989A96918C8A888A8F95978D765827
:101C20003D3342638CB1C7CAB999735344485C775A
:101C300091A5AFAC9F8A74625A5A5F6874818D9582
:101C4000958F87858C99A4A6987D5B3F30354F761C
:101C50009EBDCAC2AB8D6F594E505F7790A2A8A3AC
:101C6000998B7C6B5C5459697E8F9591877F7E86BA
:101C700095A4ADA995745138303C57799BB7C6C32C
:101C8000AD8D6E5A565D6A7886949FA29B8A756464
:101C90005B5D6978868E8B8276727A8DA4B5B9ABDE
:101CA000906C4A312A385781A7BEC3B9A7917B6689
:101CB00057525B70899EA9A69680695A59667B8C9B
:101CC000928B7C6D676E8099B0BFBFAA865C392A03
:101CD000314865839EB3C0BFB0977B6355535E7434
:101CE0008C9FA49A857063626A78868E8D847568ED
:101CF000647088A4B9BDB1987B5F493C39435A7977
:101D00009BB6C5C5B69A795D4F53677F939B988CF8
:101D10007B6B6367748693958A796A656B7A8D9F0E
:101D2000ABAEA7967E6653494851647E98ADB5AE7A
:101D30009E887569666C77848D8D85796F6D737EED
:101D4000888D8D8880777170747C87909697938C3E
:101D500082766B63626873808C9395918A817B78BD
:101D6000797C7F807F7E7D7C7C7D80828484827F85
:101D70007E7D7E7F7F7F7F8081818281817F7F7E6C
:101D80007E7F7F7F11241FBECFE5D2E0DEBFCDBFB7
:101D900010E0A0E6B0E0E6EAFEE102C005900D9298
:101DA000A036B107D9F720E0A0E6B0E001C01D924F
:101DB000A336B207E1F737D074C022C11F920F9249
:101DC0000FB60F9211242F938F939F93EF93FF934E
:101DD000E0916100F0916200CF0101969093620062
:101DE00080936100E25EFF4FE491EEBD809161005F
:101DF0009091620086369D4161F4109262001092CB
:101E0000610080916000811104C019BE8FE78EBD12
:101E1000C498FF91EF919F918F912F910F900FBEDA
:101E20000F901F90189514BEA8959EE088E10FB6FC
:101E3000F894A89581BD0FBE91BD86E087BD19BEFF
:101E400081E680BF8FE78EBD83E08ABD8AE083BFD5
:101E500080E389BD82E187BBC39AC09AC498789415
:101E6000A8952FEF83EC99E0215080409040E1F756
:101E700000C0000080E090E1A895813051F08230F0
:101E800011F480E0F9CF10926000B399F5CF81E0B2
:101E9000F3CFC49A8093600099BFB39BEDCF82E0EB
:061EA000EBCFF894FFCF28
:00000001FF
