:1000000068CF82CF81CF80CF7FCF7ECF7DCF7CCF97
:100010007BCF7ACF7ACF78CF77CF76CF75CF7E7EF2
:1000200081807D7E7F807E807F7D7C7F81817E7CE4
:100030007C7E807F7E7E80817E7C7D7F7E7E807FD9
:10004000807E7D7E82837F7A7D8183878581807FAC
:100050007374979C705E75949D8B70678390869483
:10006000948C8B6F60748A947D707E8C8C7C7068AD
:1000700063718086878992958E7F6A6373757E949B
:100080009083796864758A8774788B7A6D81806CC7
:100090006C7579858E8F8E86767E8A858686868635
:1000A0007D766D6D7E909F978A8A746678808F9F2B
:1000B0007E6B858E806F708B816D8282757A817D7B
:1000C0006C769B98897E6D7D835D415182A0988777
:1000D000868E856A56526B95A8B299715F505263AD
:1000E0008A9B80786F60819998978A817C898976CC
:1000F000808B9C946A5F757C8693948070959D75C7
:1001000082A8AB8B5F515980A2828FA86644628916
:10011000867076746D76809C9C74759497606894F4
:10012000868274737C6D838B748FA67C5F688E9BD4
:10013000928B7E9FA1665F85878697996B3F686DDE
:1001400078B88E66897873AA87565E6BA0A8823BC2
:1001500081C13C4CA1924A2F736460C5954567B23A
:10016000FC7C3AC4D26A38755744AAD4AA2115D562
:10017000F46450A5853F82CE643FB3D07329A9FDB6
:10018000940E29BBCD6B166AB7786AA14E1DA8D60E
:10019000890F258B7D7EBE7C033CB5B5505E8E7489
:1001A00056609BAA5A378C937E7D6652376DD5C7B1
:1001B00051499CAE81868E5A3E9FFF9C5978A9AFCB
:1001C0008797865A5B899F8783796A738CBBAD4515
:1001D00032A0CC8686BC6249B7BEA16851A1B57178
:1001E00083AF60578090A58E7190A15457AE862A38
:1001F00090D67C4A5F89868FA5AA5B3B9DA28186AB
:100200007C4959B2CA8B647A78867D67A1A9434933
:10021000A090686393A97C7C9C80517AAA934E68D5
:1002200097636A6F758B5A75C3925B6B576285AF24
:10023000B16349768A688C9763527CD2AA55476627
:10024000837179A58754809B8B6775AB976268979C
:100250006667A5A88F59668B8B87A092716463A18E
:10026000AB8C6A576B8CAFAB825770686294B58762
:100270003C5D9B9D6D718F8C8373816F4868A887EF
:1002800063636F9C92948A5B4781BE9D755B5455F6
:1002900083AAA28C645D81A89794713A639F8E644F
:1002A0006B8A9D7892B8874955BFA5526C836D794A
:1002B0009B8C87675E9DAE897A7D6C7E99A17C5010
:1002C0005FA6BB676C78516FB5AB5A576474909951
:1002D000927A5E81B181768B8663607C989054704F
:1002E000A1A2635FA887668A9B794752A1AD6A592C
:1002F00078818CAF8F6A6A67768B97827E6D568E17
:10030000AB9085937A6F8B8F83575B94905A80A1C3
:100310007479A2975D5A7DAB99625F75765E8FAEF8
:100320008E675797B3716A93675589A1866F7590E9
:100330009F8B8A796C8A98765482906A80928A829E
:100340007A799C9B67799C6F517D9F92646B929C9C
:10035000857CA56F4E99A55E4C747C8F857C8F75CE
:100360005D99B3785E5A64798C797D814C629F90F7
:100370007A97745E978B6B6F83A085506A9F7E70AF
:10038000AAA56A6271818B766D86874C78C9A08137
:10039000786B6D82979066497999715B9597708FAC
:1003A000A47D7F8B6A94935A738A7A8592787E852E
:1003B0008694897E835E3681CD87478797768A8A41
:1003C0008B876C708B81626F7880877E908A6A7E63
:1003D000A88F6A7E814E66A98C565B829B8F818F27
:1003E0008B6A817D62707E82899D8675817A8BAEF3
:1003F000955E7489646BA097674E81C99F768183EF
:100400007483A28671645D76907A7D9C837C977AF2
:1004100055738686746081826883BCA26763738F1C
:100420009C8A675F5F60959F767F866280AD997DCD
:10043000737C8E764A788B6079B2A86B64758BA0DA
:100440008062716B68A4A462678B879C9D7D7164D8
:10045000718E8A5F628C7C7990897E8083A0AE6683
:10046000477C74689B94646B8793899297755970E5
:10047000A9925E6A8782838F879B86638BA6714D64
:100480007997877C785B5785B3AE7E73786A70A561
:1004900095505E7886A0876D898B6D7C9983666D9B
:1004A000787C79797C7989A893455AA58C76938153
:1004B00054516392AD76608795898F9C9262518288
:1004C0009C8163796F6DA19C6862989C8170717347
:1004D0006C829D956D6B7D949F8C7D7A7A62719212
:1004E0007957768173A1AD816B8BAA93605E8E86FE
:1004F0006D898F686A8798A28C6868807382A074FF
:100500005B6B73819F9B816B6498A5665085876642
:100510006D76747C909CA27E608190858687645EF7
:100520006C799290948B6C6392BA8B51688E867FB3
:10053000797881868A9C8C6785927E7A685F6D86E1
:100540008E898075858C7E97B383565E7995875F9B
:100550006F876F829F826D808E7A757376787886CA
:10056000817173979D838E957A68556CAD8E555EBB
:10057000858E8FA290787D95936F637074707E8660
:10058000686393927C827683947A6B8C905A5689B6
:10059000A09493866D6F869B7E647D7A5671937668
:1005A0007C9C998C89768793746C808C6A547DA22C
:1005B000977371817C94BB8B5263757685907C7A3E
:1005C000898E8B7C7C8E93765E6B7870707383984B
:1005D0007E7C8F7C839B79506789827A74666C7588
:1005E00081AAAA756C8E876F7A86937551829D80D9
:1005F0007C908B878A765F6A8082816F6B808F9513
:10060000A189687A878F87717475625B819B9386F5
:100610008389858A90817981898E605A8E928B92A6
:10062000927C6A80978C60597D86787E898A867EE6
:100630007C94AB86747464797E6B708A9383737DCB
:100640008E8285A69C5B4D717E78808174807D7DD5
:100650008C897C716867808A816A5D869C7D7DA1BA
:100660009C7A7A87685A818F8976666C8BA0988B82
:100670007D8A8F79717C837A635983A48970909580
:1006800060739D896A6F7F8B745F83A2A29889745F
:100690007E8B838775646F75646DA493637A988A83
:1006A000878A8371627382766A818C8A9585717A72
:1006B0009B98766062858E68689B977079999B831A
:1006C0007979765E64898A665E858F8E867A8E9465
:1006D000857C67557997796A82837D898F9B8A7338
:1006E000797E74738C826A748A9B98878C8F797EEA
:1006F0008B6F5579946F515E89998A8C9893756C3C
:1007000080867A747375717598A08579837C7E9BD9
:100710007E566A8E7F5F6D93A08B797D87858687F5
:10072000796C5A627C796D93A2787D9B8F818F8BD7
:100730006A5D798E746483998A7D81859590746AE7
:100740007A6F67878074858F7E76939F8175836FBC
:1007500051649082596A979B7F86909B99717082B1
:10076000747085816D788C8C878E8F8A78757E7099
:100770006A8E955D5D8B97998B80928C6B71877675
:100780006D79766A748B99908B95957C748F7E6663
:10079000767C6D687C9DA0756282957F737D7C6B95
:1007A000647374808E8B897C859582798A80666873
:1007B0007D7E707592A4826C8EA89476716C6C7834
:1007C000797F7A6D808573869581767A7A756F7078
:1007D0008687737E99927683A09374677682787AFF
:1007E0007F676F97937D8B9C8C79707A7E70717A1E
:1007F0007E6B678A9581798C9D805B7993817A8302
:10080000737198A0897E83898581797E7E6B747DE2
:100810006A738995987C759082637A8C706A736D1F
:100820007085988970718B9D8371857E6C737E8EC7
:100830008F7D8999746A989978707571676D7476EF
:10084000868F867675949D7D6B73767A7F79817DB0
:1008500068829C867A95A27A5F76827E7E7E827A94
:10086000788B8674899D826C67677D7968787C75E2
:10087000839B937C828E8075768183736C74737D89
:100880009B947D868F8A7362839C7E637081797A64
:1008900095977D75858C7A6B6F7A6F6C7C818E9362
:1008A0008B857D869D977673897E5D68898B8A9717
:1008B0008C767A839894757879677182817E7E864A
:1008C0008B7E768F9466597C866B68858F8B7C7D5A
:1008D0009290929F8A7166647D8679787E787A8C10
:1008E0008B858E93745B7A907C676A7D83798A9519
:1008F000817E877C6F6F748289736B7A8689A0AAE8
:1009000082758A8375757D866B5478927E7D8B7F28
:10091000818B877F797A7A786F6C808987989076D7
:100920007682948C73747F7060809D9482828E8BAB
:100930008A8B81746B6D7C6F687A7D7E7F7D7D7F15
:100940008A9990685E757E787E8E86767885939398
:1009500085857866798171707C838C8985948C7C9F
:10096000868A6C59748C7C6868707D7E8EA5937EB7
:100970007A73748A8E7970707F8F87858E8E837F6D
:100980008A7E646F7E7D6A6082938A8C927E737E9B
:100990008281817C705D5B7C959282838F868C9353
:1009A000837C7476877E67798F898A8A807F858643
:1009B0008370646A6F70829C856A798A8B908E7E60
:1009C00074646A807666758B8F87818F938E878338
:1009D0007E6D75817474837D73829297907D736F41
:1009E00066788C7E706D7D898B8A86958F7F857AFF
:1009F000637387766B7A817E87939F8C747E878101
:100A0000787F796768738AA18E75838778797E7914
:100A10007A7C706C75878B85959B89747E8F8173CA
:100A200075736B707E929783788A948F8E817567C9
:100A30006A7A75717C8F8673828C817E837E786FF3
:100A40006B76827D858B8087898994927C666673BC
:100A500081826D6F87827A8F9D927E7C7C7A6B6AB1
:100A6000827C737C8282808994908071737D7C818A
:100A700082756F7E9392928C8781717980756F7089
:100A80006B667481838C938E8C8174767A757C7E90
:100A900066667E8E9885798B8C808A9278636F7A71
:100AA0008085838B8C8178858C807F7A6C6F67647E
:100AB00074818F94897D86978C838676676F828711
:100AC000827C7983858EA1927E7D767078817D7C13
:100AD00080818A8271819C97806F666A6D6C828149
:100AE00066789794939281798182807D76756C6720
:100AF0007E938C81898E837C6F71827C7680786610
:100B00006B8B998C82807D7C817C6C646A787D8122
:100B1000949083878B92907D78857D666875737DD0
:100B200092978676787F878B8B76627381767D8AC3
:100B30008686858798997868757671717A838083BF
:100B4000929080879C948782685A6F8281797679A7
:100B50007E8183928E7D73747D7D767174797987C1
:100B600098898592897673706B768382796673979C
:100B70009F93938F796C73787E745F6A7475878B9B
:100B80007A7E8E898989767478767C7C73809FA43E
:100B90008E838282858083836C60737E81959B893E
:100BA00086898F9083756D6F7173767171838F8C69
:100BB00081808E958B7C7666637E89868C877A7E33
:100BC0008C9492826B666C6C75797374809295814B
:100BD000768E90736C766C6A7879746F737E909C65
:100BE000988C7C7373788586766D747C8C9D8C78FC
:100BF00087927C6D706D6A757E7A7A8393948F8C00
:100C000083767885857D7363677A818FA295797EF7
:100C10009C958379757C7873767A818B8F878986AA
:100C200075797C6F6B6767788A8A87928675819BF6
:100C3000A58B6D687173767D797A8B8C868C8C89A7
:100C400089827573716770827E76808A8A898A8AC2
:100C5000795A5B79868582757383939394928A8798
:100C60007D747974676F7D7C79828A8F8C868F8E94
:100C7000736F7D80716363758E97948A7475837EBC
:100C8000757D7D74747C7D82899299908989867C3A
:100C900074767671686374878B8A85787E9995758A
:100CA0006C6D686873838982828C8B7E858C867F6D
:100CB00079767C76718195908A8A818A978F79641A
:100CC0006470757478796D79909390928C83746A5E
:100CD0006D7D7A6F7C828183868A8A90937F686A31
:100CE00083877878797582959B8E857A76817970FD
:100CF000716D646773818E9090928B8685716B871E
:100D00008E7068787A8697948B7F7A898F807470DA
:100D10006D73767A878E82808581868C7C686D7112
:100D200067646D809093928E8585909382746B6AD0
:100D3000787E7D7E7E7F868E87898F79646C787AD7
:100D4000737079858179868C8A8F89796C62677CEA
:100D500082767A858698A0928E8B7C75787C7E755B
:100D6000666F8283898F8A83827F7871717A8276B7
:100D70006F747982959C9087827E7E797176746C8F
:100D8000718A9D988C8B908F8A89806D6D736A674C
:100D9000767D8092907C767D86867C78756D687491
:100DA000818A908585999786877D66667876757E37
:100DB000828B8C8A908F8C928A70646868717D793E
:100DC0007F8578768A958E867D71747D7C73717847
:100DD000828E949990828786716A707579756D7626
:100DE0008B898A9D9C8978716D70757471666A8132
:100DF00086838B85818E90827A7A717478737D8EEA
:100E00009290908C867E78797A706D6A5D6B89920B
:100E10008C8C898185877E736A6A75766D73828909
:100E2000898A8E98988A87877A7174757C8C8E8768
:100E30008582868F8C7F73605E73796F7581878BF7
:100E4000898A8F8A7F7E7A70747571787D7E8585B8
:100E5000899BA292817A7074807F796D6F7E8B8A74
:100E60008789857C766C6B736F6D7379818B8B87CB
:100E70009294857D7C7A7A7C7A70666C869C948C60
:100E80008C86898C80787C73687173788789828777
:100E90008B857A747376716C7978768E9B8E868961
:100EA00087929986786F686F71757F898782878F3F
:100EB000938F7C797E71686F74707D8C8683828756
:100EC000928A796B687180867D7C83838B949497FA
:100ED000907C737A716A74736D78818689868A933F
:100EE0008B7A736F707A756B6C758295988986832F
:100EF000747582817C7876797D858F938E8E928AC7
:100F000081756D70767366677482908B80868C892C
:100F100083827C6C666B7885868E8F8582898E89CC
:100F200080797A7E78767A7989988F85898C87829C
:100F3000786D6C676C767675797D85929897927CE2
:100F40006C7578737A80797D8F8C7F808A908378B6
:100F5000757473757A78797E818B938B8280756BCB
:100F6000747E70686A66718995928E92978C797496
:100F70007C78797E78787E838B8F8981867D747D7D
:100F80007D706C7076818B928B7D7A8B8F7E79747D
:100F90006F6F6C6874858B959D938C908C83817E2C
:100FA000746C6F79817F82867A7C8F927D6D6D6C97
:100FB0007376747A8181868A87858E8C81766B6858
:100FC00068687882828690928E9C9F8B796F7680FB
:100FD0007870707174828C858686827E746F747569
:100FE000767D7D757A898E93958E86766B717D750B
:100FF0006A6D76859297978F8B8E8A7D7879706AE5
:101000006F71707A8B8F8985818583787C837A6C08
:101010006A78899292908C878F9382736F6A6A73D1
:101020007979828A8A928C87908B7C736C6B6868E2
:10103000717F827E818183959885767976747C7CB8
:101040007C7E808B94908A86837A6B666F746C6DDD
:101050007E858189939093947E6C6D6F7375746FA8
:101060006F7989908F8C8F8C8A8379797D756F7E6B
:10107000898793958E8B877E736D73756D636876A4
:10108000819098948B85868982736F757471767A56
:101090008387868A8F938F867D76746F6C747F8644
:1010A0008A8B898282868A7E666066676C747C869B
:1010B0008A8C90938F8B877C747A7C7573757C8215
:1010C00082899290909382706C6D757D7670798232
:1010D000868B8E8A858073686C71716F73868E893A
:1010E000949B8F898E8A7D797979766F6B73828EE6
:1010F00090938E87827D7E7871766F687686838600
:10110000908C868982756D6D71747479858E9397D4
:101110008E898C8C8A86746A6C66627386837D8203
:101120008989878782786D7075707079818B908CD2
:101130008B8F8B857C6D6870797A808A89858A929D
:1011400098958B8374676B706C6A6F757E868A8CDA
:101150008F8E8C86786F74797370767F8A8B929875
:101160008E7E7976757A7D7973737A868F93938B79
:1011700086857E6D666C6C6A66687683878C9593CF
:101180008B878A867A747470708090938C8A857E3F
:1011900085877C73706F6F70717D8B8E8F8E8B8A5D
:1011A000837E797066646B6C758583838F989B9B57
:1011B0009787756B717E7A757E858787878B8E8919
:1011C0007E7973676A7374757E83858B90908B814B
:1011D000796F67717870676C7C89959D9C9993870E
:1011E000817C74747A7873757C83868A8F8578782D
:1011F000786D6A747067707E8C948F87898B868116
:10120000807971686A7176839298999893878989B1
:10121000797074746B6B7A85837D8086868681761F
:101220006F6B6D767E81838A8B898E94938E897D98
:101230006D686D73757A89928F90959790877970A4
:10124000737374716C707A7F868E8E857D797874F5
:1012500070798179737D8A8B8C9398948679746D7B
:101260006B6D6C6D747F8B90908E8B8581827A6FA5
:101270006B6D6A67748389868587857E7E7E7D7ABD
:101280007C756F76868F939392908B837E786A5F5E
:10129000676F7176818C8B858A938C827E736B6D80
:1012A0006F7079858B8A878A8F908E8E857973731C
:1012B000797D7D7E8A908A8E948B7D716C66646C5C
:1012C0006D6D758189898E95948B81796F6C707441
:1012D0007976737D898B8E93938A827D7A7A7875FD
:1012E0007174818C8E8B8F8B8078706D6B67676A61
:1012F0006A6C7D9298948F8E8982807E79747371E6
:10130000717E8B8B8A8C8F8F897F7A756F6B6D71F5
:1013100079818A8F8A838587857C746B646A747906
:10132000838F95908E95999386807A71707374757A
:101330007A80878B8A8B908A7C71686A70757676E2
:101340007A8289898E9389756F6F6B6C73767A7EDA
:101350008794999595938C867C757474706C6B6F7B
:101360007E8E8E8B8E8A7D787978746F6D717580A4
:101370008C928E8B8B857F79716F7073787D818C69
:1013800099978C8E8F8A837D796F62606A71798676
:101390008B87898B8B8B857871717374787D87903F
:1013A00093908E908E8071706F6B707E8281868A32
:1013B0008A8E94948E82746A686C6D6D6F76808963
:1013C0008E8C8C9089787378736C717678818F9518
:1013D00097938C8173707171757974717986929815
:1013E000928B8C86786F6F6B6464687178818E9253
:1013F0009092938C86817A73717076828E98978C96
:101400008586877E75716F6C686D7880858E8F8C10
:101410008E8E857D766C6867686F767C858F8E8F03
:10142000989C948173717470747F83818589898994
:10143000878278706A686A6C767A7C858E909295DD
:10144000938A7A6D6C716D6C6F717885939B9C98A3
:1014500092897C7579756F7175757D898B898683A5
:10146000827A707174706B6C71808F9497958F8C89
:101470008C857E786F66666D76828E9898908E8F5A
:10148000897A7678716B6A707C828383838386879E
:1014900080746D6C6F707882878B8F94949599901F
:1014A00081746B67686B707A85898B8E8F938F865A
:1014B000796F6C6D6D6F757A79828F8F8B8B867C6F
:1014C0007373767A76787D838B9294999B928379E5
:1014D0006F6A6C6B686D757E8A95978F8A87827844
:1014E0007475706A6B717A868F908C8A8683807A25
:1014F000797A756D707A858B9297958B87867C6CDF
:10150000666362666F79858B8A8C909390897C7410
:10151000706B6C747C838686898A87898C867A74E2
:1015200073717173787F868B90928F8A7D6F6867F5
:101530006A6C6F737C858A939D9D958F877D75748A
:10154000787979797E828990908F8E877E78787687
:10155000706B6B76838A8F9390877F79756F686BDA
:101560006D686D7D8992999994908B837D78757162
:101570006C6C757D838686868A878382786C686AC0
:101580006B707C868A8B8C8B8786837A6F6A6A689D
:101590006C7A878F93929599948C877E736F73730F
:1015A0007374787D80858B8E8A857C706D71707187
:1015B000767A81868B909592877E756F6D7176763F
:1015C00078818B90949B958A8680767374716B6812
:1015D0006C757E858C908E877E7A7876737171714A
:1015E000798A939698938B858178706B6B6B6B750A
:1015F00086909092948F8B8A837C74686260626D0F
:101600007D8586898B8C8E8C897E717074747986C9
:101610008F9092939392897D736B66686C707980DA
:1016200082878C9297958C81716462686A6A707AFD
:1016300081878F989B948B837C767675757A80876B
:101640008F9595938B80756D67676C6C6A6C7886E7
:10165000909499988B837E756F6C676366707A86B9
:101660008F949795928C877E756D6C6F707D8F953A
:101670008F8B8A857E7A756F6A63626774818A8EC2
:101680009395938F8C83786F67676C6F74818C8C64
:101690008F999F9B9081746B676C747A8185838628
:1016A0008B8B898279706B686B737578838F979950
:1016B0009DA09B8C7E7A757373706B707A83909B00
:1016C0009D978A7E75706C6D6F6F6F747F89898549
:1016D00085837C747473717171737C8A9599999800
:1016E000928983827D716862606673818E938E8E2B
:1016F0008E877E79746F6D6D70747C868985858A1E
:101700008781807C736F707581868B90928F9295A4
:10171000948C7E706864636B7178838A8A8E9592EC
:10172000898179716F7075797C7E83898C8F908CBB
:10173000857870737676797978808C909398958B8C
:101740007D736C6662626768707F8B9499958F89F0
:10175000817D7E7C757371737E8C92928E8B898174
:101760007C7C78706C6C6F76828B90928E89857C95
:10177000736B625E5F646F7E8B929492949B978C86
:10178000857D747074787E85898C8C8B8E8E878035
:10179000786D67686C737C81878E8F90928B7C6C80
:1017A000646263686F787C838F989C9F9B8F857C35
:1017B000747173747475787E85878A8C898075706E
:1017C00071706C6D737982909998958F837A736D2F
:1017D0006C6B6B6F76818F9B9F9F9B938B827A76CE
:1017E000746B676C7078818686868789867E787050
:1017F00066636B74808E95989594928F8678706BE3
:1018000063636C7A878E94989794948F81746F68D1
:10181000676D706F74797E868E939387786F6D6C29
:101820006F757D85898B959997948C7D706B6767B3
:101830006B70767F89949997928C82767371706CB5
:1018400064636B737D8C97989790867E79787674B5
:10185000757A7F89959C98928C857A716B676462A2
:101860006876838B90928E8A878681797068605EB5
:1018700066707C8992939294948F877D767370744E
:1018800080878E929394948E857A6B625F5F64708A
:10189000797D81868A8E8F928F81736C6A6A6C7172
:1018A000787F868C979D9C958C81797675747579F7
:1018B0007D828A92928B837C6C606266676B6F73A9
:1018C0007C8792989C98928A807A756F6866687512
:1018D0008087949B94908F867D79746D6A686F7C05
:1018E000878F908983807873706C6663646B798569
:1018F0008B94999895948F85786F6A67676F7C83CE
:101900008A8F90939793877A6F676668707D8585D5
:10191000878A8B8B87817A6F676A6D6F7580878FF7
:10192000979CA0A1998B7C706D6A67676C717985B3
:10193000929C9D958B82786F6F747473787F878E7D
:1019400092928F8A8178747575747378808B959D67
:10195000A2A1958B857D736B635E5B5F6D7E8A90C4
:10196000938F89837C74706D6A686F7A868C8E9091
:10197000928F8B89857D716B6C7176818C90909242
:1019800092909087786A5F57575D6A7881868E93C8
:1019900095928B8179716C6F75767C8285878E923A
:1019A000928E83786D6B7075757981858A949DA010
:1019B0009B9081756C625F62666B7685929B9D9B46
:1019C000938B857D7A7C7A737079838B9395928AD9
:1019D000817A7674706C6A6A6C737E8B929495903F
:1019E000867D7468625F5D6271838F949898979426
:1019F000908B837A706B6F757D868B8B87878582E2
:101A00007F796F666263646C7883898C9499958E14
:101A1000817166606068737A838E949BA1A29F95A2
:101A2000897C7473757876797E8081878B8A8279D8
:101A3000716C6B6B6C6C707682929DA4A095877AAA
:101A4000736B67686B6A70808F979D9F9990857E96
:101A50007975706A64666F757C83858182827F7D0B
:101A6000766D6767687383949C9D9D9B938981794C
:101A70006F6663636B7A878F959794928F8B81756E
:101A80006B6766686C73787E82868F948F867D71B3
:101A90006A6A6D76828B92959B9F9F978B7D6F6311
:101AA0005F60666D757D8A93979B9B93867D75704D
:101AB0006C68676A6F78818C979C978C8379717159
:101AC0007475767C85909CA09F998E7E6F67635E0F
:101AD0005A5E646F7E8C9295978F87838179706848
:101AE0006360667182929998979793877E78706AFF
:101AF0006A707A879094959593897C71665952564D
:101B0000606D7A868E9394949899928379706866C2
:101B10006A747E868F959B9D9C93877D736B6B709B
:101B20007479808A949999958C7C6A5B575D636A15
:101B300070767E8A939BA2A4998C82796F6766687F
:101B40006D737E8C9395948F8780746B6A645F62EB
:101B50006C7C8C959590897E736D6D6C6A676A71EB
:101B60007A8997A0A5A6A29D95877A716860626B15
:101B70007581898B8C90928E83786D625E66747DA0
:101B8000878F928F8C898581796F68676B73798372
:101B90008E959BA0A4A49C8B786D665E5F676B6F2F
:101BA00078828C9498958B7C706B6A6D7378808644
:101BB0008C93979490897D7370706C6B6C70788344
:101BC000909DA29D978E81756D665F5B595F6C7C61
:101BD0008A9395938E867E7976736F7179828A93D4
:101BE0009997908C89837E746B666367717F8C9400
:101BF000989999978F867C6F6259575F6D7A869016
:101C000095979998938B817975747980858A8E8F51
:101C10008F92928B7F70635E5F6267717A8087922A
:101C20009B9D9990806B5E57565A626A7587959C0A
:101C3000A0A0978B7F767371707074787E87909771
:101C4000948A82786F6A6866646A71798999A4A8AF
:101C5000A59F9283766C635E5D627083939BA0A068
:101C60009994908B82796F67666B76828A8B868275
:101C7000827F78736D6863636A73828E949CA4A478
:101C80009D928270605B5E67737E878C94999C9F47
:101C90009C907E706763646870787C7E818589899A
:101CA000817871686264676A747E8C9DAAADA89C15
:101CB0008A796A63666663666C788690989D9B8E67
:101CC000827C75706F6C6D7178818B9093938F8E21
:101CD0008A807976706B717F90A1ABADA89D92865A
:101CE0007D756C625B5B63707F8C9394938B878351
:101CF000766B666362666B747C8185878F93928A4C
:101D00007E7167666D78828F97989B9B958F86759D
:101D1000625855585C65717D868D92979991847B48
:101D200076726F6F6E70747B838F9A9A958D8277BF
:101D30006F6C70727278848C959C9A93897A6C66B9
:101D400064605E636B76838F999D99948E8C888195
:101D50007A77706C7079848E949594908A837C776E
:101D6000726E6E747C848D9293918B847A716962A9
:101D70005F6268707C8A90929396979691877C7345
:101D80006D6A6E757E84878A8F908E8780776E6B82
:101D90006E7074787F84888B8B888279706B6A6DA3
:101DA00071777E83888D93999C99938A8076716EE2
:101DB0006D7173777F85898B8986807A7573717170
:101DC00071747A838A8D908F89837C767676747528
:101DD00077787C858D9192918F8A837D77726F6BF6
:101DE0006A6E757B7E8284848484807C787472764B
:101DF0007D848C8F8E8A86868683807C79787575C3
:101E0000797F85888B8E8E8D88827C7673717174D4
:101E100076797E8285898B8B87827B7777797D81C6
:101E200084868686878785817E7A78787677787AC1
:101E30007E83888C8C8A87827E7C7A7875737375B2
:101E40007A808588898885807E7D7C7C7C7C7E818B
:101E500084868685838382807C7976747475797EA6
:101E6000828484848382817F7D7A767474767A7E9C
:101E70008284858584838281807F7E7F8080818249
:101E80008281818182817E7C7B7A7A7C7D7E808169
:101E9000828385868583817E7C7C7D7D7C7C7E8142
:101EA000838484838281807F7E7E7E7E7E7F7F802E
:101EB0008181807F7F7F7E7E7D7E7F7F7F7F7F8031
:101EC00081828181807F7F7F7F7F7F7F8080808014
:101ED000808011241FBECFE5D2E0DEBFCDBF10E071
:101EE000A0E6B0E0E4EFFFE102C005900D92A0365D
:101EF000B107D9F720E0A0E6B0E001C01D92A336FB
:101F0000B207E1F737D074C07BC01F920F920FB6B3
:101F10000F9211242F938F939F93EF93FF93E09150
:101F20006100F0916200CF0101969093620080936E
:101F30006100E25EFF4FE491EEBD809161009091FF
:101F40006200843B9E4161F4109262001092610035
:101F500080916000811104C019BE8FE78EBDC498C6
:101F6000FF91EF919F918F912F910F900FBE0F9046
:101F70001F90189514BEA8959EE088E10FB6F894BE
:101F8000A89581BD0FBE91BD86E087BD19BE81E6D3
:101F900080BF8FE78EBD83E08ABD8AE083BF88E281
:101FA00089BD82E187BBC39AC09AC4987894A895EA
:101FB0002FEF83EC99E0215080409040E1F700C082
:101FC000000080E090E1A895813051F0823011F45A
:101FD00080E0F9CF10926000B399F5CF81E0F3CFA4
:101FE000C49A8093600099BFB39BEDCF82E0EBCFA2
:041FF000F894FFCF93
:00000001FF
