:100000006ACF84CF83CF82CF81CF80CF7FCF7ECF87
:100010007DCF7CCF7CCF7ACF79CF78CF77CF807EE2
:100020007F7C807D7F7E7E7E7E7E7D807C807C7FEF
:100030007D7F7D807C807C807D807C807C807C80DE
:100040007C7E7E7E7E7E7F7D7F7C7F7B7E7A8076DF
:100050007E768E9832849D95E8294BFA5B35793807
:100060007BDD79787B1964E988338F706D7B8FFE37
:10007000853267A4F39F65CDAD143F708DC2C490E7
:100080003D2950E8CA1170CB7E2425C3D44F2B6381
:1000900077617AC4A7545B7F684395CB975F4578B7
:1000A000873148B6D26F0E7AD78F6974545962A3DC
:1000B000D1782D77834285CFAF6C4F6E9D674E8A86
:1000C000A39868408EA768769496795A5793A78B21
:1000D00086753469AC776587A6A6653E84AC654DA8
:1000E000ABB17165818F785597C48147508F9085EA
:1000F0009F996660869A83665EA3C95D44999679E6
:100100008D7D797270868E6C7DB36F50AAA96C63F9
:100110007E9366448FCCAF703F5EA3A77A7D8F75C8
:10012000635A90AD6C6F9E7E5D658097958E75511C
:1001300068816F83A08F6A5B5F9AB5707A92686BF3
:10014000716D8998785676876475A69B8470455A38
:10015000A09F7B88665FAD805B898C84907573916E
:10016000897E7A575B7C8E959A8872565AB7AC779F
:10017000816F687A6F88B48C6469689BBF7C526DAC
:100180007D879467697F879076748B6B6EA6A67E59
:10019000545B919C7669627290B78E597687776AC4
:1001A000968D57556C8AA98470806C7A926F809C6A
:1001B0007E70697C80877D7D7F7791886F886C6495
:1001C0009D9281764E6F96778B83697CB4996F830D
:1001D0006E7C91747E7B648995A487615C5F75B148
:1001E000A683757975607A7B9CA4757D806E847713
:1001F000809596916C6E80575A95A19A6068889DFB
:10020000996B696C7F987B8382687C7B8C99646531
:100210008D899C704F7F8876657185837E678B9210
:10022000648486818B707687685B6B87A39E9674E7
:100230005D66768E8A887C5E74786978839C9C7310
:10024000688384797E989E8057497DA796777677D4
:100250006B8A9C9185656B817C7F83797D8C838A99
:1002600088859188758585767D807D8C78748F757D
:100270006786A99E665172A4966E5E708F74719C9B
:10028000A0817777778368738B7A77755D6E9D8DA4
:100290006A6C9CA8664D669AAB76536776799493A0
:1002A00084766D78A09567798A79726D71707F9E7A
:1002B0008B837A7F917D5F84AC8C68615B7CB29D1F
:1002C000726F6792AB77666E8588747A7D66689385
:1002D0009C7D656CA9BD6E587D857A7062809A8B15
:1002E0006F62778A9A886B6A848E777A76747D7C5F
:1002F000788D92788F8B78686F878C89716F746D29
:10030000787B87889CAA6E49768A93915D5D81800F
:100310008E957676928B777A75819D8763576E8FEF
:100320008990826C7E8978827F849C926B61676FF2
:1003300091AD84617399A4866B7183896C5F808DA4
:10034000888B6861878E89878074817F71717483DF
:1003500089857B6A6E8498947F5B73947D796F5DE9
:100360007088847882989A7C636D898D786F79849F
:10037000777570728B8A829787606B8097927761AE
:10038000768B7C706E7D9A987B7884897F7272649C
:100390006A83929984707F8B87776C7E9991705A6B
:1003A000717F87928D7B73878E7C87828489776C3F
:1003B000737B85876B6582A09986827876726E7171
:1003C0006F7B8F9F81555D8FA299896B636F7A7167
:1003D0007D8B897476808080858E80777A878C7C0F
:1003E0006B626B82817084A49E87706D747E817D48
:1003F0007D707079838E8A788696827378847E7613
:10040000656286A1978268657A8B8F8982808781F1
:1004100062505A7DA2A38B7A727D827E8E88776E1F
:100420006C767C7B798A9281808F8E7F6364868BE9
:100430007B69718896886F687F9291868088766BD9
:100440006C7075757C868D908382877E7A7A7984CC
:100450007D6B69717B889189868E838072667086D8
:10046000918A7576776C6C829B9D83746F80867E93
:10047000716F807276878A847B7889998F776977A4
:10048000887A6168878A84888F8B716B7B818D8A7B
:1004900079757977717A80797984919284756D759F
:1004A00087807973727B7B7D7D76808E9D93786863
:1004B0006866778683808B816C7D847A8083858172
:1004C000777E8B776470858C8578768C8F887E7646
:1004D0007E787D8F866D61657D9A9D85818D876D26
:1004E00065728C7D737F83837B7478839288808C24
:1004F000846B6A7E877772798696886D637A9B9B18
:100500008B8375676375857D7F878A87847D7A880D
:1005100087767176767D7C7E7B787C807C828A95FE
:100520008A7867677A868477798379717F888C8DFA
:100530008B8281766761718582828D92766F7A8DEA
:100540008F7C72767B8581686C8788828D8F7E7BBD
:100550007E7D7D7C87847E776A65788E927F8891A8
:100560008471757C73797E74707E83878B8B7C76C7
:10057000848A83807C766C6B737A8B9C95766B8196
:10058000807C8B88807C746D686C7A8F978E76798E
:100590008D917C706B687681827977847F7181958B
:1005A0008F888B7663677C7F7D827F7D868B73717E
:1005B000919A7E70788273707E72617D988D87913A
:1005C0008C74717978758B8E7A656873889C948247
:1005D0007A868B756A78797987807275878A7C7953
:1005E00084959585726F79736D767C808C928E7E02
:1005F0006F84918179777879817C6B70808F968F09
:1006000081797E7C6A738B80737A80746A81907C36
:10061000788E9781747B696276807B768B8A7E7D0B
:100620007E768998896D6A766C657E8B7C7B9087F7
:10063000707F9A8D6F737C767889806D67738792EF
:100640009289858A826B657987817C7A797A8390B1
:1006500089868986827E7D7C77716F787F89949583
:1006600078617093998681887762647E7676959DAD
:1006700087787B878D8A776C747A75777C80757DB7
:1006800087827B8E987F5D6271717A8F846F767BB3
:10069000767B818D93867671777C6E6672817980A8
:1006A0009895756F8B927B727F848073676E809351
:1006B0009D8D7D838C8278757A817A7A847E6B6D4C
:1006C00088948383979A83716D777C7D7A7A7B7F18
:1006D0008C918C7D7A9596786C7D817065727A822A
:1006E000959C7D6B7E81737A8888776E757369744B
:1006F000808E9181798795876A6570757078857B22
:100700007877727E8F9397866D61686E7479848234
:1007100082827F7274869184757982776D7B796F1E
:10072000738397988E8380807F757C8E846B6A76C6
:100730007A7E8A968C8C8F876E707F787584857CA4
:1007400075838E8078878B888A82808479696177C7
:100750008F89818A86727C8C8883827A73737068B1
:10076000697C92938881857C7273797B7A79797AB6
:100770007C7270807F7C8A94887570757A7A7873C1
:100780007E8880757A87838286938670706D68779D
:100790007E7881948F7C7F988C6A70878A807D7A3E
:1007A000717A7C80819699807D8F836B72898A7D36
:1007B0007C7A72737F868E9C94736E81856E64756D
:1007C0007B77838C827E7F7E7F8B867E7A78736A4E
:1007D00070767A7D888F8B7D77757A8483807C763E
:1007E0006A6377837D78818C958E7A6F727865697C
:1007F000898F7C707F887C7A8A928D8B806C6C76F6
:100800006F7091997D677A8A8887877F7F867E6BF4
:10081000778676657E91877E96957A707F847D7ADD
:100820007A767A837D7485959486827F77768182C5
:100830007474757A81877E737B8085868A8F7B68E6
:10084000676F777B8087877D7C8080797E878B81CF
:100850006A68707B838380848A837B798178737CE8
:10086000817D797370797D777A8B968C767A908199
:1008700066657783868A867A7C8584898F87777692
:100880007C786F758489828087858B837776878F64
:100890007F6E76817670757B7E8EA0957E70767D7C
:1008A00081837B747D7A737A888E8886867E777B57
:1008B0007D77706F7583887C777F8B85736E879665
:1008C0008A7366676D6F7B8B958677818F8B7E7958
:1008D0008083796A6E80827777808E9186817F7837
:1008E000737376797E827F81766E748B998A7E812E
:1008F00083796F6F7A7D75787E8B8F89848886780F
:10090000798C836F62747F7F7D80878D8A7E767B12
:100910007D76758585766D787E767B8595948775F1
:100920007785846B6C848473737D868A8D8B8883D2
:100930007B777A7F7A62677F8D8681898476747A05
:10094000838A867D76736F758387817D7F8E9083A2
:100950007E7D817D6F6F788181777D8281849296A3
:100960008C756569777A78828981746E848D857FCC
:100970007C8283827C797A786F78898A8181918F71
:1009800080757780817B766D6F7A78819296877794
:100990007D7E70707D7A727A817D7E7C777A848D9F
:1009A000867C81867B747B79727584888280848062
:1009B00084898278817C6A63707F87848788888451
:1009C0007D7A7A7A7C7D817F72717C88857D7C825C
:1009D000908E80817E7577777D7F817D7677848725
:1009E000888B8F7E686E79736C788788828580812A
:1009F00088847D7A807B7481877A6B768484828810
:100A00008B837D7C7B7F8B816E6D777A777F8B8B01
:100A10008084868476717178787272808D887D7D0D
:100A200088837A7E8A887C7370767B7C81878377E3
:100A300077808E897D76838777686C767D80818BE1
:100A40008B7D7C8483807773797F7D79808A877AB8
:100A50007C8B8F85817E79767C817B767A7C8084A5
:100A60007D738196917D757E7970717B79787D84B7
:100A70008E9287747783817175898570697B8A8D81
:100A8000867F80878375727F827C7D7B716D7181AB
:100A900086847D7E8486817A767A6F6A6F7E8B8A81
:100AA00082808583817F847F74737E7F737082925E
:100AB0008D817B7C84807E80817A73727B7C75766D
:100AC0007D8783878E9083776B738187766F7D8B2D
:100AD0008680828C8A88867D746D727E82827B7B22
:100AE00082857D7D87887F767A7F7E7D756E6E7448
:100AF0007F8A928D7F7D8887776F79858075707505
:100B0000858886878E877A71777D787672777A7C0A
:100B10007D80827A767C888E837776757270727922
:100B20008589857F858280888A8474737776737BD4
:100B3000878C867D7D8587827573797A787D837DC4
:100B400075787C858585848D8F7F736F7A7D7A79C2
:100B500081857F7D818E908A84817E7673797C7693
:100B600073808D8B817B797D81797A80817A7779A9
:100B7000757375878F8B81828181807977817F7191
:100B8000697989887F8489877F7C827E736C707A9B
:100B90007E767A868D7E6D76848685807D7C786E85
:100BA0006F7A88878182878482858B8277727B7B4C
:100BB000767076828787878787837E767372757E65
:100BC0008581777581877D7E888F867D767C838021
:100BD00079777B8181808B918379828E83746F7624
:100BE0007B746F7486918B8081847D6F738485782C
:100BF00075797A767A808786817D82878479767C1A
:100C00007F78727B7F7D7E828887847F7E7D706B1C
:100C10006C757B79808B8D81767A8585817E7D7BF5
:100C200077797B7B818183868A847D848A877A77C2
:100C30007C7D76787B7E7C82878B8E877C76746CDD
:100C40006F7989867A7780888384848684807A79AC
:100C50007F7F76777F847C79878E85777C86847D9D
:100C60007779797368707E8F8D83807E7975777DD3
:100C70007673757C7D7D80808285847C828B867A8C
:100C8000727A7E747781847E797D7F82838B87827E
:100C9000776D6C76767A7D878A858283847D7D7E8A
:100CA0007F7A797C7D817F80838A8C8281858B822B
:100CB000767481837C77797A7A7A808A8E887E804E
:100CC000807469707B807B7E84878480827F827F52
:100CD0007B797C7E77767C807F81888A8078777F3D
:100CE000827E7D7676706B6D788281878A887E7948
:100CF0007D7F7570747A7D7C828887857D7B808C12
:100D00008A7D757674747D8B89827D7D7D7C8086FD
:100D10008A867D706E767571748087888A8C8881EA
:100D20007D7D7C797B7E84827E787E89938A8481B6
:100D30007E79777B7D807D7E7F7A767A80818180E7
:100D40008184847B6D6B7375767C868B8A878280C9
:100D50007B8185827B7771777C807C828C8E8075AD
:100D600078797B79797D7D797370767A7C808989D1
:100D7000847E7F7E776E6E76808784808288838192
:100D8000848A897E777673737B7F858384807E797E
:100D90007D7B7E7F827C77797D7977767A838E956D
:100DA0008E807D7A79767882827F7A7B7C858C8E44
:100DB0008B868478747577747A808480767A7F8263
:100DC000807A787D89837B7672736E7A888C888846
:100DD00084827F7E7E7F7D7A7473787D7B7D888D33
:100DE0008C837C7976737270777F7D7C7D79777266
:100DF0007E888B8A87817770737A7C8485857F82F1
:100E00008688858687847B736F70777E7D808488F3
:100E10008784837D7676767A7E82807576797A7A13
:100E200084928E8780827B77757B8184807B7680BD
:100E300088878889877B7876736C6D707B828B88D6
:100E4000827E7E77767C86847A777774727A8084E5
:100E5000888B8883808080807C7A7675777C7D7FA4
:100E60008081858A888178766D696C7A83838486AF
:100E7000807C7F80818787877A757778768088867F
:100E800081848789868582827F7D7577767773797D
:100E900083888B8A887B73727274767D7D7F817D77
:100EA0007B7B888C8B8583817A7A7C7976757D8053
:100EB00083818081848380818080746D6A6C707B83
:100EC000868C8884817A7675777A7F7E797475804E
:100ED0008383888B8883838580797677797C7D7C12
:100EE0007A807C7D818C8A857C7D776C6B73788140
:100EF000878B838084838082857F7D7D7F7B7880E4
:100F00008383848A8C88847D7D7C7E7A7A7B7B71E6
:100F100071787D7C828F9188786F70717677797E19
:100F2000837E7A7F8788847F82807E7979797575E0
:100F30007D8788847F7F838179787C827C746B68ED
:100F400068738289898687827D787A767A797A7AD7
:100F500080868180838788878B867F767674777A90
:100F60008085878477727D8987848482766F6E73AB
:100F7000747A80888A8B8B8787847D787D86837955
:100F8000787D808181878C8E857E767876767B8071
:100F900080767377797B7C858788807874766F6DAF
:100FA0006E768187878385868782827F807D7D7547
:100FB0007170757E868889837D7977767B7D7C7C70
:100FC000786F6E727A7C81888E8D877E7976767561
:100FD000737A848A8784888784878D8F857B7371F1
:100FE00073747B838B867C7A7D84807C7D83827B1B
:100FF00078747474787C868F928D8B887D74727D02
:10100000817E7A7C7C7D7D858C928D8276737273F5
:10101000737676797E7B7A767A7E80817F84807D16
:1010200076706C7076848E8E8E847F8084817D7DD8
:101030007E756D6E78808483898C887F76777773F0
:1010400072767D7D7878797A7C80878D8F8A807AB8
:1010500079757076848B888084888587878B837D7B
:10106000747471717077838A888684817A767A7CC9
:101070007D7C7A7A7677767680878F908C887E7A78
:10108000797D7A797C7F80797D8289868786847A6A
:10109000706A6C6E70767D8787817B807E7A797FBF
:1010A00086847B706F74777E8590918B8282848238
:1010B0007B7D7D7E777476797C80868B8B857D7950
:1010C00076736E6F737F8587867F7D7F83888B8B3A
:1010D0008580787472767E8387898A887F81838809
:1010E000807C7C7B726E6F767A7C818B918979743F
:1010F000717471767D837F7A787D8087878C8D8B04
:101100007E78767976737983827A7C8387827C8114
:10111000838479736F6E696B78858C8886837C771E
:101120007A7B8080817B7B797B7D7F8B8E8E8A87AB
:10113000837F7A7A7B78787C7F7D767A80868788D1
:1011400088877C6F686D72787C888B8782818482C7
:10115000848688837F7673797F7E80868F8E858173
:101160008381797378797A737070737377879192CA
:10117000867A77726B69747C84817D7D7F848487B5
:101180008B8A84797A797672757B7E848888857E6D
:101190007A7A7E817E7B75706868707A848E938E91
:1011A000877D7A7D7C7E7B7D7F8181808386888838
:1011B0008B8F8D837A777573727F86877C7B797E40
:1011C0007D848A8D86776A6A6B7077808B8B8A893B
:1011D000868684817C7E817C7A797B78777F898C16
:1011E0008B85827A747070767A767876746F767F73
:1011F000898887848077706C6F73797F85898A8905
:10120000838386868481817B766F70757C82878DEF
:10121000897E77767A787A7D7E7B726F727A808724
:101220008C928E87817E7B7576797F848385868795
:101230008786868D8E867A77716F6D7680868582B9
:101240007B7A77798286877C7675727173798287EB
:101250008D918D87847C77777A7A7D7C7D78767E98
:1012600084898C8A877C73686D7177767A7A7976CF
:10127000777D818182838883797272747675818C9F
:1012800093908A85827E7E7D81817A6F70767B7D68
:10129000858D8E877E7A77777476767D7C78767E7C
:1012A0007E7E818B8F8F8D877D7773737980868A21
:1012B00089868580848789837E766F6C6D73787C60
:1012C000848587837D7D7C7B77777A7E7A766F765F
:1012D0007980878C9391887F7A7772767B817D790C
:1012E000797D848385868984766F6E6F6C6F767F57
:1012F00083858480827F7E7D8488817A7A77727309
:101300007D879293908887827E797E807A757476C5
:10131000777B8087888888817A766F6F6F777D800A
:10132000828283848484888D908C817A74707479AD
:1013300081868B8784858685817E7D7B756F6C6ECB
:10134000747579848C89847E7C76706E767B817DE1
:101350007A7A7E7C818995918B807B76737476789E
:101360007E7C7A7F8484818386847C77726C6A69D0
:101370006F76828A8C8B8A837A7A7E8282857F7B63
:10138000747880878E91918E8B86807A7874767649
:10139000797777777C8086898A8B837B726B696C9F
:1013A0007680888A8883848384878888837B77771C
:1013B00076727A8088898A87847E7A777575746F69
:1013C0006D6E6F70727E868D8E8A8479736C6D758A
:1013D0007E7F8081818180878A8B8B87817B7571FD
:1013E0007073797F8082828583807D7C7C7C797735
:1013F0006E6A68737C899096918B84827F7C7D7EF7
:1014000080807D7D8084888B8D8E8987837E7772B6
:101410007072787E7E7E7B7E7C8184878781776F09
:101420006C6B707581888E8D8B8A8682817F7E7BC6
:101430007B797775767A8082878687817A746F71F7
:10144000717475767170717A80898A8A877F7873F2
:101450006E71747B81878888888B8A89838280807B
:1014600079777372737981858986827D7D7D7A7CB7
:101470007D7A767373747A808C9195918C83817C5C
:101480007777797E80818585878689888887837C40
:10149000736E6B6D727B7D7E807E7E7F81838380A9
:1014A0007D79736D6F737A81878E8F8E8A8481794F
:1014B000767375797977767A7D81878A88847B726D
:1014C000706E6D6F727A7A78767B7E83898A8B8371
:1014D0008179787474737A858A8F8E8F8B838280FA
:1014E000817D7978737274767D868D8C85827F7B21
:1014F0007776787678787A787B7F858C8E908F8EE9
:101500008781757374757D838886878587848484D5
:101510008079736E68696E767C828484807D807F3A
:101520007D7A787676767577757B80898F938E88CD
:10153000837C75747576777A7C7C7E7F85868784DC
:101540007E76716D6C6E737A7D80848885858384E8
:10155000868783817D7B7675787F888C92918E8754
:1015600085807E7A7776757376767A81888A8882A6
:101570007F7975747171747A80808483858388889B
:101580008A8B868178767271737C83888788838161
:1015900081827E7A716C696B6F76797E84878787AA
:1015A000817D777575767B7D7E7F7E7F81878D914E
:1015B000908C877C7771727376777D7E7F81868849
:1015C00085847F7A76706E6C6F737A828C8F8D884B
:1015D00085818080818280817C7A7A81838B9192DF
:1015E0008D86827F7B757471717073767A7F818549
:1015F0008787857C78726D6C70767984878B888715
:101600008484848684807A767272757980828786F3
:1016100083807E7C79736F6F6F6F6C70747B808951
:101620008C8E89807B747475787B828387858585B1
:101630008B8D8D8B867F7876787676767D808383AA
:10164000878482817E7D78777270717374808993CC
:1016500095938C857F7E7C7C7E7F7E7B7E8183865E
:101660008A8B8886817D7873716F707377797D7DC1
:101670008080848284817D766B6C6D7177818A8FA6
:101680008D8B878885827D7C7A757674777A7D7C70
:10169000808686827D7A7672707072727477787BBB
:1016A0007F848A8F90887E787473757A7F83888B25
:1016B0008E8D8D8B888784807976767573777B7E27
:1016C00084878784807E7D7A7B7D78767274757E50
:1016D000858E92928F87847D7B7677787B7D8084E0
:1016E000858886878684817A746F6E6D6B70757A53
:1016F0007D7D7D7F7D7E7F82807A73707073777D44
:10170000868B8E8D8B88837D7A7776767576777DDE
:10171000808082858782817C736E6E7275767A7A1C
:101720007D808083888E8E8B86817D79797B7C819C
:10173000878D8E8F908A8782817A77777674747698
:101740007B7D85898B837F7A7978777779777777CF
:10175000797E84878C8E908D87807D767472777980
:101760007E81848783847F7E7D7B736C6C6C6A71E1
:10177000767E808184817F7F7D7D7C7A77767777A6
:10178000787D82888A8F908F87827977777677774E
:101790007B7D7E7E84868684827D75706F7175798F
:1017A0007D7F85868887888A8A8887847E7D7A7807
:1017B0007B7C82878E8F8F8B87827B787675727029
:1017C0007173797D83878A87807A76727072757873
:1017D000797D7F838888888A8B8983827C77706D06
:1017E00071747B7F8585838281807D7A716D6A6962
:1017F000686E777C8286878784817D7D7A7A797D21
:101800007F818084858B8A8F91918B837A7677759F
:1018100074767A7B7E7F8586898885817B736F70FD
:1018200072767A82878B8C8E8C8887828281817E89
:101830007C7C7B7B80858C8D8C88847D77737070BD
:101840006E6C6F7074777E848886817D7A746F7019
:101850006E73777B82878B878587878584827F7984
:10186000737273767B7E828485807D7D7A777371D7
:101870006E6D6B6F767D81868B8E8F898580797892
:10188000787D81848687878B8B8B8D8D8B837D790B
:1018900075737578797E7E8081858384807F797683
:1018A00073727072787E858B9293908C83807D802A
:1018B0007D7C7C7D7D7A7D81868886857F7B757346
:1018C0006F706E6D6E7476797C808382817E7E7996
:1018D000736F6D73767C848B8F8E89898583807F0F
:1018E0007D78777474767B7C81838382817D7B763F
:1018F0007672747375757B7C81868B908E8E8881F1
:101900007D7878797F83888A8D8F8C8C8E8B84818B
:101910007C7973737274777A7C8082857F7E7D7E1A
:101920007A7878767474767B80888D91918D877CB7
:101930007B78777478797D7D8080848384807E79DC
:1019400075706E6C6B6B73757A7C7C7F7F817F8228
:1019500081807B767674777C838A8E8F8D8A87846C
:10196000807B7B75767577797C7E84858587837FA0
:101970007B75747276757A7D7F8081838B8C8F8D79
:101980008E87817C777A7E8084898C8B8A8A888412
:101990007F7B767672706F72767A7E828783817BA8
:1019A0007A7677757876787678797E84888E8E8B5D
:1019B00088807E79767475787B7D7F818281817F56
:1019C0007D7776716C6B6B6E747A7F838584827E93
:1019D0007F8281807D7C7A797A7E84878C8E8E8EE0
:1019E0008A87807E797676757A797D7F838686860A
:1019F00083817C756F6F73757A81868886898B8BFE
:101A00008C898987827D79797A7A7D84888B8A88A6
:101A100084817D767672706E6C6F71747A7F878543
:101A2000817A7774737174787A7C7F818386878AF0
:101A30008A8887837E7A76707374787A7F828381CE
:101A4000807F7D7A7775706D6A6F727D81868A8AF4
:101A500089828282807F7F8081828484868A8D8F42
:101A6000908E8E86827E76747376797B7A7D7F8285
:101A7000838785857F7672707073787D85878B8B81
:101A80008B88868482827E7D7C7D797B7B81848746
:101A90008786817C7672706F6E6C6D6E7072787EE8
:101AA0008585847F7E7975727375787C8487868955
:101AB0008788868783847F7E76767477787D808535
:101AC0008380807B7D797A7673727071757B7F8776
:101AD0008D928E8C8886817E7D7F81858588878B9F
:101AE000898B898C87857D7B75727476797B7B7E0B
:101AF0007F80807F817F7D7A74737173757A81872F
:101B00008B8E8E8C85827D7E797A797B7B797A7CCF
:101B1000818381807D7973706F6E6E70707275775E
:101B2000797C808383827F7E79767575777B8189E6
:101B30008E908E8A88868383817D79767677797C8C
:101B400082838582817D7A7A7978787A78797A7FCA
:101B500082858B8D908F8B87817C7A7A7E8184873A
:101B6000888A8888888883817B787470707076779B
:101B70007B7D807C7D7B7D7B7B787A7979777679BC
:101B80007D84878D8E8B86807D7976777578797A5E
:101B90007A7C7E8180817E7B74716E6F6D707176D0
:101BA000797C7D8080828183878684807B79797C43
:101BB00083888D8F8F8D898681807C7D78787775FD
:101BC0007A7C8283858483827E79787676787A7D42
:101BD00080818183868A8D8E8F8A87807D7A7A7DC7
:101BE00080838688878581817E7B7675706E6D6F38
:101BF0007176787E7E80817C77777776777A7B794D
:101C000078797C7E83898A8C8A867F7977757576E8
:101C1000797A7C7D7F8081807F7B7674706F6E6F38
:101C2000747A818588878786848587868784827E83
:101C30007D7E82878C90938F8B8983817B7B777568
:101C400076767A7B7E80818483827C7772716F74F2
:101C500079808287878687868888888884807B7653
:101C600077767A7D8083848483807C767671716ECA
:101C70006D6C6E72767A808483817A787476757AE8
:101C80007C808282838486888A8B8B86817D7A762B
:101C9000737376797D7F817F8080807F7E79777294
:101CA000716F747A80888A8E8D8B87828482858416
:101CB000848384838786898B8E8B8B87837D7775DE
:101CC0007173737576797A7C7E808281807D76737C
:101CD0006F6F737981868887878785828480817E0C
:101CE0007D797A7777797D808280817B7872716E59
:101CF000706E6E6F7072757B80878789847E7A7A4A
:101D0000787A7C7E8488898B898987888887848093
:101D10007E797875777B7D818382807E7D7C7D7BFB
:101D20007B76767276787F868B8F928E8E87858192
:101D300080808280848485848583858384817D7985
:101D4000767270707276757879797A797E7D7D7A1F
:101D50007874737074777B82868B8A8B8684817C9F
:101D60007D7B7A7B79797979797A7D7E7F7C7774CE
:101D700070727274737576777B7D808387898687AE
:101D8000837E7C7A7D7F848B8E8F928D8C878883F7
:101D9000827F7E79787577797D818082807E7D7C77
:101DA0007C7D797B7A7B7A7C7D80868A8C8E8E891D
:101DB000847F7E7A7A7D7F81828483838081807F25
:101DC0007D7774706C6E707377787A7A7B7A7B7BB0
:101DD0007D7E7E7B797878797B7F8487898B888408
:101DE000817C7B7978797B7B7C7C7D7F8180807F27
:101DF0007B7976767676797A7C7D8080818285851E
:101E00008587858582807D7F8084868A8C8987838B
:101E100082807F7D7C7A7A797A7C7E8080828180E4
:101E20007E7D7B7B7A7B7B7E7E7E7E8082828485CC
:101E3000868584817E7C7B7C7E7F808180807F7EA6
:101E40007D7D7B797776757577787A7C7E7F7F7EEE
:101E50007E7C7C7D7D7D7D7E7E7E7E7E8082848597
:101E60008583837F7E7D7E7D7E7F7E7F7E7F7E7F7E
:101E70007F7F7E7E7D7C7C7C7C7E7F808182828178
:101E80008282828282828180807F7F808082828340
:101E9000828180807E7E7E7D7E7D7E7E7E7E7E7F58
:101EA0007F807F7F7E7E7E7D7E7F7F808080808042
:101EB0008080818180807F7F7E7E7E7E7F7F80802C
:101EC000807F7F7F7F7F7F7F7F7F7F7F7F7F80801F
:101ED000808080807F0011241FBECFE5D2E0DEBF6E
:101EE000CDBF10E0A0E6B0E0E8EFFFE102C0059052
:101EF0000D92A036B107D9F720E0A0E6B0E001C00E
:101F00001D92A336B207E1F737D074C079C01F9293
:101F10000F920FB60F9211242F938F939F93EF93ED
:101F2000FF93E0916100F0916200CF0101969093E0
:101F3000620080936100E25EFF4FE491EEBD80910C
:101F4000610090916200873B9E4161F410926200B3
:101F50001092610080916000811104C019BE8FE76A
:101F60008EBDC498FF91EF919F918F912F910F900B
:101F70000FBE0F901F90189514BEA8959EE088E1A3
:101F80000FB6F894A89581BD0FBE91BD86E087BDC0
:101F900019BE81E680BF8FE78EBD83E08ABD8AE0EF
:101FA00083BF86E289BD82E187BBC39AC09AC49889
:101FB0007894A8952FEF83EC99E0215080409040D1
:101FC000E1F700C0000080E090E1A895813051F079
:101FD000823011F480E0F9CF10926000B399F5CF10
:101FE00081E0F3CFC49A8093600099BFB39BEDCF9B
:081FF00082E0EBCFF894FFCF73
:00000001FF
