:10000000B4CECECECDCECCCECBCECACEC9CEC8CE3F
:10001000C7CEC6CEC6CEC4CEC3CEC2CEC1CE8183DD
:1000200085888A8C8F919396989B9DA0A2A5A7AA5C
:10003000ACAFB2B4B7BABCBFC2C4C7CACDCFD2D5B9
:10004000D8DBDDE0E3E6E9ECEFF2EAE3DBD4CEC7B0
:10005000C1BBB5AFA9A49F9A95908C87837F7B770E
:1000600074706D6A6764615F5C5A58565352504EA3
:100070004C4B4A4847464544434342414141404036
:100080004040404040404041414142434344454557
:10009000464748494A4B4C4E4F5051535456575976
:1000A0005A5C5E5F61636566686A6C6E70727476D6
:1000B000787A7D7F818385888A8C8F919396989BAF
:1000C0009DA0A2A5A7AAACAFB2B4B7BABCBFC2C428
:1000D000C7CACDCFD2D5D8DBDDE0E3E6E9ECEFF25D
:1000E000EAE3DBD4CEC7C1BBB5AFA9A49F9A959074
:1000F0008C87837F7B7774706D6A6764615F5C5AFD
:1001000058565352504E4C4B4A4847464544434339
:1001100042414141404040404040404040414141D7
:10012000424343444545464748494A4B4C4E4F504D
:100130005253545657595A5C5E5F61636566686AEC
:100140006C6E70727476787A7D7F818385888A8CF4
:100150008F919396989B9DA0A2A5A7AAACAFB2B48D
:10016000B7BABCBFC2C4C7CACDCFD2D5D8DBDDE0D9
:10017000E3E6E9ECEFF2EAE3DBD4CEC7C1BBB5AF0F
:10018000A9A49F9A95908C87837F7B7774706D6A02
:100190006764615F5C5A58565352504E4C4B4A4804
:1001A000474645444343424141414040404040402E
:1001B0004040404141414243434445454647484908
:1001C0004A4B4C4E4F505253545657595A5C5E5FEF
:1001D00061636566686A6C6E70727476787A7D7F2A
:1001E000818385888A8C8F919396989B9DA0A2A5E8
:1001F000A7AAACAFB2B4B7BABCBFC2C4C7CACDCF4E
:10020000D2D5D8DBDDE0E3E6E9ECEFF2EAE3DBD4DC
:10021000CEC7C1BBB5AFA9A49F9A95908C87837FA9
:100220007B7774706D6A6764615F5C5A585653528D
:10023000504E4C4B4A484746454443434241414156
:10024000404040404040404040414141424343449F
:100250004545464748494A4B4C4E4F5051535456DA
:1002600057595A5C5E5F61636566686A6C6E70724E
:100270007476787A7D7F818385888A8C8F91939636
:10028000989B9DA0A2A5A7AAACAFB2B4B7BABCBFB9
:10029000C2C4C7CACDCFD2D5D8DBDDE0E3E6E9ECF6
:1002A000EFF2EAE3DBD4CEC7C1BBB5AFA9A49F9AF6
:1002B00095908C87837F7B7774706D6A6764615FCC
:1002C0005C5A58565352504E4D4B4A484746454447
:1002D0004343424141414040404040404040404112
:1002E0004141424343444545464748494A4B4C4EA9
:1002F0004F505253545657595A5C5E5F616365665E
:10030000686A6C6E70727476787A7D7F8183858876
:100310008A8C8F919396989B9DA0A2A5A7AAACAF1B
:10032000B2B4B7BABCBFC2C4C7CACDCFD2D5D8DB6E
:10033000DDE0E3E6E9ECEFF2EAE3DBD4CEC7C1BBF4
:10034000B5AFA9A49F9A95908C87837F7B777470B3
:100350006D6A6764615F5C5A58565352504E4C4BFD
:100360004A4847464544434342414141404040405A
:100370004040404040414141424343444545464757
:1003800048494A4B4C4E4F505253545657595A5C59
:100390005E5F61636566686A6C6E70727476787AA7
:1003A0007D7F818385888A8C8F919396989B9DA071
:1003B000A2A5A7AAACAFB2B4B7BABCBFC2C4C7CAE1
:1003C000CDCFD2D5D8DBDDE0E3E6E9ECEFF2EAE32E
:1003D000DBD4CEC7C1BBB5AFA9A49F9A95908C873B
:1003E000837F7B7774706D6A6764615F5C5A58566F
:1003F0005352504E4C4B4A48474645444343424172
:1004000041414040404040404040404141414243E2
:1004100043444545464748494A4B4C4E4F5052533A
:10042000545657595A5C5E5F61636566686A6C6EC4
:1004300070727476787A7D7F818385888A8C8F91BB
:100440009396989B9DA0A2A5A7AAACAFB2B4B7BA49
:10045000BCBFC2C4C7CACDCFD2D5D8DBDDE0E3E68E
:10046000E9ECEFF2EAE3DBD4CEC7C1BBB5AFA9A498
:100470009F9A95908C87837F7B7774706D6A676491
:10048000615F5C5A58565352504E4D4B4A4847464E
:100490004544434342414141404040404040404048
:1004A00040414141424343444545464748494A4B00
:1004B0004C4E4F505253545657595A5C5E5F6163CD
:1004C0006566686A6C6E70727476787A7D7F8183F7
:1004D00085888A8C8F919396989B9DA0A2A5A7AAA8
:1004E000ACAFB2B4B7BABCBFC2C4C7CACDCFD2D505
:1004F000D8DBDDE0E3E6E9ECEFF2EAE3DBD4CEC7FC
:10050000C1BBB5AFA9A49F9A95908C87837F7B7759
:1005100074706D6A6764615F5C5A58565352504EEE
:100520004D4B4A4847464544434342414141404080
:1005300040404040404040414141424343444545A2
:10054000464748494A4B4C4E4F50525354565759C0
:100550005A5C5E5F61636566686A6C6E7072747621
:10056000787A7D7F818385888A8C8F919396989BFA
:100570009DA0A2A5A7AAACAFB2B4B7BABCBFC2C473
:10058000C7CACDCFD2D5D8DBDDE0E3E6E9ECEFF2A8
:10059000EAE3DBD4CEC7C1BBB5AFA9A49F9A9590BF
:1005A0008C87837F7B7774706D6A6764615F5C5A48
:1005B00058565352504E4D4B4A4847464544434384
:1005C0004241414140404040404040404041414123
:1005D000424343444545464748494A4B4C4E4F5099
:1005E0005253545657595A5C5E5F61636566686A38
:1005F0006C6E70727476787A7D7F818385888A8C40
:100600008F919396989B9DA0A2A5A7AAACAFB2B4D8
:10061000B7BABCBFC2C4C7CACDCFD2D5D8DBDDE024
:10062000E3E6E9ECEFF2EAE3DBD4CEC7C1BBB5AF5A
:10063000A9A49F9A95908C87837F7B7774706D6A4D
:100640006764615F5C5A58565352504E4C4B4A484F
:100650004746454443434241414140404040404079
:100660004040404141414243434445454647484953
:100670004A4B4C4E4F505153545657595A5C5E5F3B
:1006800061636566686A6C6E70727476787A7D7F75
:10069000818385888A8C8F919396989B9DA0A2A533
:1006A000A7AAACAFB2B4B7BABCBFC2C4C7CACDCF99
:1006B000D2D5D8DBDDE0E3E6E9ECEFF2EAE3DBD428
:1006C000CEC7C1BBB5AFA9A49F9A95908C87837FF5
:1006D0007B7774706D6A6764615F5C5A58565352D9
:1006E000504E4D4B4A4847464544434342414141A1
:1006F00040404040404040404041414142434344EB
:100700004545464748494A4B4C4E4F505253545624
:1007100057595A5C5E5F61636566686A6C6E707299
:100720007476787A7D7F818385888A8C8F91939681
:10073000989B9DA0A2A5A7AAACAFB2B4B7BABCBF04
:10074000C2C4C7CACDCFD2D5D8DBDDE0E3E6E9EC41
:10075000EFF2EAE3DBD4CEC7C1BBB5AFA9A49F9A41
:1007600095908C87837F7B7774706D6A6764615F17
:100770005C5A58565352504E4C4B4A484746454493
:10078000434342414141404040404040404040415D
:100790004141424343444545464748494A4B4C4EF4
:1007A0004F505253545657595A5C5E5F61636566A9
:1007B000686A6C6E70727476787A7D7F81838588C2
:1007C0008A8C8F919396989B9DA0A2A5A7AAACAF67
:1007D000B2B4B7BABCBFC2C4C7CACDCFD2D5D8DBBA
:1007E000DDE0E3E6E9ECEFF2EAE3DBD4CEC7C1BB40
:1007F000B5AFA9A49F9A95908C87837F7B777470FF
:100800006D6A6764615F5C5A58565352504E4C4B48
:100810004A484746454443434241414140404040A5
:1008200040404040404141414243434445454647A2
:1008300048494A4B4C4E4F505153545657595A5CA5
:100840005E5F61636566686A6C6E70727476787AF2
:100850007D7F818385888A8C8F919396989B9DA0BC
:10086000A2A5A7AAACAFB2B4B7BABCBFC2C4C7CA2C
:10087000CDCFD2D5D8DBDDE0E3E6E9ECEFF2EAE379
:10088000DBD4CEC7C1BBB5AFA9A49F9A95908C8786
:10089000837F7B7774706D6A6764615F5C5A5856BA
:1008A0005352504E4D4B4A484746454443434241BC
:1008B000414140404040404040404041414142432E
:1008C00043444545464748494A4B4C4E4F50525386
:1008D000545657595A5C5E5F61636566686A6C6E10
:1008E00070727476787A7D7F818385888A8C8F9107
:1008F0009396989B9DA0A2A5A7AAACAFB2B4B7BA95
:10090000BCBFC2C4C7CACDCFD2D5D8DBDDE0E3E6D9
:10091000E9ECEFF2EAE3DBD4CEC7C1BBB5AFA9A4E3
:100920009F9A95908C87837F7B7774706D6A6764DC
:10093000615F5C5A58565352504E4D4B4A48474699
:100940004544434342414141404040404040404093
:1009500040414141424343444545464748494A4B4B
:100960004C4E4F505153545657595A5C5E5F616319
:100970006566686A6C6E70727476787A7D7F818342
:1009800085888A8C8F919396989B9DA0A2A5A7AAF3
:10099000ACAFB2B4B7BABCBFC2C4C7CACDCFD2D550
:1009A000D8DBDDE0E3E6E9ECEFF2EAE3DBD4CEC747
:1009B000C1BBB5AFA9A49F9A95908C87837F7B77A5
:1009C00074706D6A6764615F5C5A58565452504E39
:1009D0004C4B4A48474645444343424141414040CD
:1009E00040404040404040414141424343444545EE
:1009F000464748494A4B4C4E4F505253545657590C
:100A00005A5C5E5F61636566686A6C6E707274766C
:100A1000787A7D7F818385888A8C8F919396989B45
:100A20009DA0A2A5A7AAACAFB2B4B7BABCBFC2C4BE
:100A3000C7CACDCFD2D5D8DBDDE0E3E6E9ECEFF2F3
:100A4000EAE3DBD4CEC7C1BBB5AFA9A49F9A95900A
:100A50008C87837F7B7774706D6A6764615F5C5A93
:100A600058565352504E4C4B4A48474645444343D0
:100A7000424141414040404040404040404141416E
:100A8000424343444545464748494A4B4C4E4F50E4
:100A90005153545657595A5C5E5F61636566686A84
:100AA0006C6E70727476787A7D7F818385888A8C8B
:100AB0008F919396989B9DA0A2A5A7AAACAFB2B424
:100AC000B7BABCBFC2C4C7CACDCFD2D5D8DBDDE070
:100AD000E3E6E9ECEFF2EAE3DBD4CEC7C1BBB5AFA6
:100AE000A9A49F9A95908C87837F7B7774706D6A99
:100AF0006764615F5C5A58555452504E4C4B4A489B
:100B000047464544434342414141404040404040C4
:100B1000404040414141424343444545464748499E
:100B20004A4B4C4E4F505253545657595A5C5E5F85
:100B300061636566686A6C6E70727476787A7D7FC0
:100B4000818385888A8C8F919396989B9DA0A2A57E
:100B5000A7AAACAFB2B4B7BABCBFC2C4C7CACDCFE4
:100B6000D2D5D8DBDDE0E3E6E9ECEFF2EAE3DBD473
:100B7000CEC7C1BBB5AFA9A49F9A95908C87837F40
:100B80007B7874706D6A6764615F5C5A5856535223
:100B9000504E4C4B4A4847464544434342414141ED
:100BA0004040404040404040404141414243434436
:100BB0004545464748494A4B4C4E4F505253545670
:100BC00057595A5C5E5F61636566686A6C6E7072E5
:100BD0007476787A7D7F818385888A8C8F919396CD
:100BE000989B9DA0A2A5A7AAACAFB2B4B7BABCBF50
:100BF000C2C4C7CACDCFD2D5D8DBDDE0E3E6E9EC8D
:100C0000EFF2EAE3DBD4CEC7C1BBB5AFA9A49F9A8C
:100C100095908C87837F7B7774706D6A6764615F62
:100C20005C5A58565352504E4C4B4A4847464544DE
:100C300043434241414140404040404040404041A8
:100C40004141424343444545464748494A4B4C4E3F
:100C50004F505253545657595A5C5E5F61636566F4
:100C6000686A6C6E70727476787A7D7F818385880D
:100C70008A8C8F919396989B9DA0A2A5A7AAACAFB2
:100C8000B2B4B7BABCBFC2C4C7CACDCFD2D5D8DB05
:100C9000DDE0E3E6E9ECEFF2EAE3DBD4CEC7C1BB8B
:100CA000B5AFA9A49F9A95908C87837F7B7774704A
:100CB0006D6A6764615F5C5A58565352504E4D4B93
:100CC0004A484746454443434241414140404040F1
:100CD00040404040404141414243434445454647EE
:100CE00048494A4B4C4E4F505253545657595A5CF0
:100CF0005E5F61636566686A6C6E70727476787A3E
:100D00007D7F818385888A8C8F919396989B9DA007
:100D1000A2A5A7AAACAFB2B4B7BABCBFC2C4C7CA77
:100D2000CDCFD2D5D8DBDDE0E3E6E9ECEFF2EAE3C4
:100D3000DBD4CEC7C1BBB5AFA9A49F9A95908C87D1
:100D4000837F7B7774706D6A6764615F5C5A585506
:100D50005352504E4D4B4A48474645444343424107
:100D60004141404040404040404040414141424379
:100D700043444545464748494A4B4C4E4F505253D1
:100D8000545657595A5C5E5F61636566686A6C6E5B
:100D900070727476787A7D7F818385888A8C8F9152
:100DA0009396989B9DA0A2A5A7AAACAFB2B4B7BAE0
:100DB000BCBFC2C4C7CACDCFD2D5D8DBDDE0E3E625
:100DC000E9ECEFF2EAE3DBD4CEC7C1BBB5AFA9A42F
:100DD0009F9A95908C87837F7B7774706D6A676428
:100DE000615F5C5A58565352504E4C4B4A484746E6
:100DF00045444343424141414040404040404040DF
:100E000040414141424343444545464748494A4B96
:100E10004C4E4F505253545657595A5C5E5F616363
:100E20006566686A6C6E70727476787A7D7F81838D
:100E300085888A8C8F919396989B9DA0A2A5A7AA3E
:100E4000ACAFB2B4B7BABCBFC2C4C7CACDCFD2D59B
:100E5000D8DBDDE0E3E6E9ECEFF2EAE3DBD4CEC792
:100E6000C1BBB5AFA9A49F9A95908C87837F7B77F0
:100E700074706D6A6764615F5C5A58565352504E85
:100E80004C4B4A4847464544434342414141404018
:100E90004040404040404041414142434344454539
:100EA000464748494A4B4C4E4F5052535456575957
:100EB0005A5C5E5F61636566686A6C6E70727476B8
:100EC000787A7D7F818385888A8C8F919396989B91
:100ED0009DA0A2A5A7AAACAFB2B4B7BABCBFC2C40A
:100EE000C7CACDCFD2D5D8DBDDE0E3E6E9ECEFF23F
:100EF000EAE3DBD4CEC7C1BBB5AFA9A49F9A959056
:100F00008C87837F7B7774706D6A6764615F5C5ADE
:100F100058565352504E4C4B4A484746454443431B
:100F200042414141404040404040404040414141B9
:100F3000424343444545464748494A4B4C4E4F502F
:100F40005153545657595A5C5E5F61636566686ACF
:100F50006C6E70727476787A7D7F818385888A8CD6
:100F60008F919396989B9DA0A2A5A7AAACAFB2B46F
:100F7000B7BABCBFC2C4C7CACDCFD2D5D8DBDDE0BB
:100F8000E3E6E9ECEFF2EAE3DBD4CEC7C1BBB5AFF1
:100F9000A9A49F9A95908C87837F7B7774706D6AE4
:100FA0006764615F5C5A58565352504E4C4B4A48E6
:100FB0004746454443434241414140404040404010
:100FC00040404041414142434344454546474849EA
:100FD0004A4B4C4E4F505253545657595A5C5E5FD1
:100FE00061636566686A6C6E70727476787A7D7F0C
:100FF000818385888A8C8F919396989B9DA0A2A5CA
:10100000A7AAACAFB2B4B7BABCBFC2C4C7CACDCF2F
:10101000D2D5D8DBDDE0E3E6E9ECEFF2EAE3DBD4BE
:10102000CEC7C1BBB5AFA9A49F9A95908C87837F8B
:101030007B7774706D6A6764615F5C5A585653526F
:10104000504E4C4B4A484746454443434241414138
:101050004040404040404040404141414243434481
:101060004545464748494A4B4C4E4F5052535456BB
:1010700057595A5C5E5F61636566686A6C6E707230
:101080007476787A7D7F818385888A8C8F91939618
:10109000989B9DA0A2A5A7AAACAFB2B4B7BABCBF9B
:1010A000C2C4C7CACDCFD2D5D8DBDDE0E3E6E9ECD8
:1010B000EFF2EAE3DBD4CEC7C1BBB5AFA9A49F9AD8
:1010C00095908C87837F7B7774706D6A6764615FAE
:1010D0005C5A58565352504E4C4B4A48474645442A
:1010E00043434241414140404040404040404041F4
:1010F0004141424343444545464748494A4B4C4E8B
:101100004F505153545657595A5C5E5F6163656640
:10111000686A6C6E70727476787A7D7F8183858858
:101120008A8C8F919396989B9DA0A2A5A7AAACAFFD
:10113000B2B4B7BABCBFC2C4C7CACDCFD2D5D8DB50
:10114000DDE0E3E6E9ECEFF2EAE3DBD4CEC7C1BBD6
:10115000B5AFA9A49F9A95908C87837F7B77747095
:101160006D6A6764615F5C5A58565352504E4C4BDF
:101170004A4847464544434342414141404040403C
:101180004040404040414141424343444545464739
:1011900048494A4B4C4E4F505253545657595A5C3B
:1011A0005E5F61636566686A6C6E70727476787A89
:1011B0007D7F818385888A8C8F919396989B9DA053
:1011C000A2A5A7AAACAFB2B4B7BABCBFC2C4C7CAC3
:1011D000CDCFD2D5D8DBDDE0E3E6E9ECEFF2EAE310
:1011E000DBD4CEC7C1BBB5AFA9A49F9A95908C871D
:1011F000837F7B7774706D6A6764615F5C5A585651
:101200005352504E4C4B4A48474645444343424153
:1012100041414040404040404040404141414243C4
:1012200043444545464748494A4B4C4E4F5052531C
:10123000545657595A5C5E5F61636566686A6C6EA6
:1012400070727476787A7D7F818385888A8C8F919D
:101250009396989B9DA0A2A5A7AAACAFB2B4B7BA2B
:10126000BCBFC2C4C7CACDCFD2D5D8DBDDE0E3E670
:10127000E9ECEFF2EAE3DBD4CEC7C1BBB5AFA9A47A
:101280009F9A95908C87837F7B7774706D6A676473
:10129000615F5C5A58565352504E4C4B4A48474631
:1012A000454443434241414140404040404040402A
:1012B00040414141424343444545464748494A4BE2
:1012C0004C4E4F505253545657595A5C5E5F6163AF
:1012D0006566686A6C6E70727476787A7D7F8183D9
:1012E00085888A8C8F919396989B9DA0A2A5A7AA8A
:1012F000ACAFB2B4B7BABCBFC2C4C7CACDCFD2D5E7
:10130000D8DBDDE0E3E6E9ECEFF2EAE3DBD4CEC7DD
:10131000C1BBB5AFA9A49F9A95908C87837F7B773B
:1013200074706D6A6764615F5C5A58565352504ED0
:101330004D4B4A4847464544434342414141404062
:101340004040404040404041414142434344454584
:10135000464748494A4B4C4E4F50525354565759A2
:101360005A5C5E5F61636566686A6C6E7072747603
:10137000787A7D7F818385888A8C8F919396989BDC
:101380009DA0A2A5A7AAACAFB2B4B7BABCBFC2C455
:10139000C7CACDCFD2D5D8DBDDE0E3E6E9ECEFF28A
:1013A000EAE3DBD4CEC7C1BBB5AFA9A49F9A9590A1
:1013B0008C87837F7B7774706D6A6764615F5C5A2A
:1013C00058565352504E4C4B4A4847464544434367
:1013D0004241414140404040404040404041414105
:1013E000424343444545464748494A4B4C4E4F507B
:1013F0005253545657595A5C5E5F61636566686A1A
:101400006C6E70727476787A7D7F818385888A8C21
:101410008F919396989B9DA0A2A5A7AAACAFB2B4BA
:10142000B7BABCBFC2C4C7CACDCFD2D5D8DBDDE006
:10143000E3E6E9ECEFF2EAE3DBD4CEC7C1BBB5AF3C
:10144000A9A49F9A95908C87837F7B7774706D6A2F
:101450006764615F5C5A58565352504E4D4B4A4830
:10146000474645444343424141414040404040405B
:101470004040404141414243434445454647484935
:101480004A4B4C4E4F505253545657595A5C5E5F1C
:1014900061636566686A6C6E70727476787A7D7F57
:1014A000818385888A8C8F919396989B9DA0A2A515
:1014B000A7AAACAFB2B4B7BABCBFC2C4C7CACDCF7B
:1014C000D2D5D8DBDDE0E3E6E9ECEFF2EAE3DBD40A
:1014D000CEC7C1BBB5AFA9A49F9A95908C87837FD7
:1014E0007B7774706D6A6764615F5C5A58555352BC
:1014F000504E4C4B4A484746454443434241414184
:1015000040404040404040404041414142434344CC
:101510004545464748494A4B4C4E4F505153545607
:1015200057595A5C5E5F61636566686A6C6E70727B
:101530007476787A7D7F818385888A8C8F91939663
:10154000989B9DA0A2A5A7AAACAFB2B4B7BABCBFE6
:10155000C2C4C7CACDCFD2D5D8DBDDE0E3E6E9EC23
:10156000EFF2EAE3DBD4CEC7C1BBB5AFA9A49F9A23
:1015700095908C87837F7B7774706D6A6764615FF9
:101580005C5A58565352504E4C4B4A484746454475
:10159000434342414141404040404040404040413F
:1015A0004141424343444545464748494A4B4C4ED6
:1015B0004F505253545657595A5C5E5F616365668B
:1015C000686A6C6E70727476787A7D7F81838588A4
:1015D0008A8C8F919396989B9DA0A2A5A7AAACAF49
:1015E000B2B4B7BABCBFC2C4C7CACDCFD2D5D8DB9C
:1015F000DDE0E3E6E9ECEFF2EAE3DBD4CEC7C1BB22
:10160000B5AFA9A49F9A95908C87837F7B777470E0
:101610006D6A6764615F5C5A58565352504E4C4B2A
:101620004A48474645444343424141414040404087
:101630004040404040414141424343444545464784
:1016400048494A4B4C4E4F505253545657595A5C86
:101650005E5F61636566686A6C6E70727476787AD4
:101660007D7F818385888A8C8F919396989B9DA09E
:10167000A2A5A7AAACAFB2B4B7BABCBFC2C4C7CA0E
:10168000CDCFD2D5D8DBDDE0E3E6E9ECEFF2EAE35B
:10169000DBD4CEC7C1BBB5AFA9A49F9A95908C8768
:1016A000837F7B7774706D6A6764615F5C5A58569C
:1016B0005352504E4C4B4A4847464544434342419F
:1016C0004141404040404040404040414141424310
:1016D00043444545464748494A4B4C4E4F50525368
:1016E000545657595A5C5E5F61636566686A6C6EF2
:1016F00070727476787A7D7F818385888A8C8F91E9
:101700009396989B9DA0A2A5A7AAACAFB2B4B7BA76
:10171000BCBFC2C4C7CACDCFD2D5D8DBDDE0E3E6BB
:10172000E9ECEFF2EAE3DBD4CEC7C1BBB5AFA9A4C5
:101730009F9A95908C87837F7B7774706D6A6764BE
:10174000615F5C5A58565352504E4C4B4A4847467C
:101750004544434342414141404040404040404075
:1017600040414141424343444545464748494A4B2D
:101770004C4E4F505253545657595A5C5E5F6163FA
:101780006566686A6C6E70727476787A7D7F818324
:1017900085888A8C8F919396989B9DA0A2A5A7AAD5
:1017A000ACAFB2B4B7BABCBFC2C4C7CACDCFD2D532
:1017B000D8DBDDE0E3E6E9ECEFF2EAE3DBD4CEC729
:1017C000C1BBB5AFA9A49F9A95908C87837F7B7787
:1017D00074706D6A6764615F5C5A58565352504E1C
:1017E0004C4B4A48474645444343424141414040AF
:1017F00040404040404040414141424343444545D0
:10180000464748494A4B4C4E4F50525354565759ED
:101810005A5C5E5F61636566686A6C6E707274764E
:10182000787A7D7F818385888A8C8F919396989B27
:101830009DA0A2A5A7AAACAFB2B4B7BABCBFC2C4A0
:10184000C7CACDCFD2D5D8DBDDE0E3E6E9ECEFF2D5
:10185000EAE3DBD4CEC7C1BBB5AFA9A49F9A9590EC
:101860008C87837F7B7774706D6A6764615F5C5A75
:1018700058565352504E4C4B4A48474645444343B2
:101880004241414140404040404040404041414150
:10189000424343444545464748494A4B4C4E4F50C6
:1018A0005253545657595A5C5E5F61636566686A65
:1018B0006C6E70727476787A7D7F818385888A8C6D
:1018C0008F919396989B9DA0A2A5A7AAACAFB2B406
:1018D000B7BABCBFC2C4C7CACDCFD2D5D8DBDDE052
:1018E000E3E6E9ECEFF2EAE3DBD4CEC7C1BBB5AF88
:1018F000A9A49F9A95908C87837F7B7774706D6A7B
:101900006764615F5C5A58555352504E4C4B4A487D
:1019100047464544434342414141404040404040A6
:101920004040404141414243434445454647484980
:101930004A4B4C4E4F505153545657595A5C5E5F68
:1019400061636566686A6C6E70727476787A7D7FA2
:10195000818385888A8C8F919396989B9DA0A2A560
:10196000A7AAACAFB2B4B7BABCBFC2C4C7CACDCFC6
:10197000D2D5D8DBDDE0E3E6E9ECEFF2EAE3DBD455
:10198000CEC7C1BBB5AFA9A49F9A95908C87837F22
:101990007B7774706D6A6764615F5C5A5856535206
:1019A000504E4C4B4A4847464544434342414141CF
:1019B0004040404040404040404141414243434418
:1019C0004545464748494A4B4C4E4F505153545653
:1019D00057595A5C5E5F61636566686A6C6E7072C7
:1019E0007476787A7D7F818385888A8C8F919396AF
:1019F000989B9DA0A2A5A7AAACAFB2B4B7BABCBF32
:101A0000C2C4C7CACDCFD2D5D8DBDDE0E3E6E9EC6E
:101A1000EFF2EAE3DBD4CEC7C1BBB5AFA9A49F9A6E
:101A200095908C87837F7B7774706D6A6764615F44
:101A30005C5A58565352504E4C4B4A4847464544C0
:101A4000434342414141404040404040404040418A
:101A50004141424343444545464748494A4B4C4E21
:101A60004F505253545657595A5C5E5F61636566D6
:101A7000686A6C6E70727476787A7D7F81838588EF
:101A80008A8C8F919396989B9DA0A2A5A7AAACAF94
:101A9000B2B4B7BABCBFC2C4C7CACDCFD2D5D8DBE7
:101AA000DDE0E3E6E9ECEFF2EAE3DBD4CEC7C1BB6D
:101AB000B5AFA9A49F9A95908C87837F7B7774702C
:101AC0006D6A6764615F5C5A58565352504E4C4B76
:101AD0004A484746454443434241414140404040D3
:101AE00040404040404141414243434445454647D0
:101AF00048494A4B4C4E4F505253545657595A5CD2
:101B00005E5F61636566686A6C6E70727476787A1F
:101B10007D7F818385888A8C8F919396989B9DA0E9
:101B2000A2A5A7AAACAFB2B4B7BABCBFC2C4C7CA59
:101B3000CDCFD2D5D8DBDDE0E3E6E9ECEFF2EAE3A6
:101B4000DBD4CEC7C1BBB5AFA9A49F9A95908C87B3
:101B5000837F7B7774706D6A6764615F5C5A5856E7
:101B60005352504E4C4B4A484746454443434241EA
:101B7000414140404040404040404041414142435B
:101B800043444545464748494A4B4C4E4F505253B3
:101B9000545657595A5C5E5F61636566686A6C6E3D
:101BA00070727476787A7D7F818385888A8C8F9134
:101BB0009396989B9DA0A2A5A7AAACAFB2B4B7BAC2
:101BC000BCBFC2C4C7CACDCFD2D5D8DBDDE0E3E607
:101BD000E9ECEFF2EAE3DBD4CEC7C1BBB5AFA9A411
:101BE0009F9A95908C87837F7B7774706D6A67640A
:101BF000615F5C5A58565452504E4D4B4A484746C6
:101C000045444343424141414040404040404040C0
:101C100040414141424343444545464748494A4B78
:101C20004C4E4F505253545657595A5C5E5F616345
:101C30006566686A6C6E70727476787A7D7F81836F
:101C400085888A8C8F919396989B9DA0A2A5A7AA20
:101C5000ACAFB2B4B7BABCBFC2C4C7CACDCFD2D57D
:101C6000D8DBDDE0E3E6E9ECEFF2EAE3DBD4CEC774
:101C7000C1BBB5AFA9A49F9A95908C87837F7B77D2
:101C800074706D6A6764615F5C5A58565352504E67
:101C90004C4B4A48474645444343424141414040FA
:101CA000404040404040404141414243434445451B
:101CB000464748494A4B4C4E4F5052535456575939
:101CC0005A5C5E5F61636566686A6C6E707274769A
:101CD000787A7D7F818385888A8C8F919396989B73
:101CE0009DA0A2A5A7AAACAFB2B4B7BABCBFC2C4EC
:101CF000C7CACDCFD2D5D8DBDDE0E3E6E9ECEFF221
:101D0000EAE3DBD4CEC7C1BBB5AFA9A49F9A959037
:101D10008C87837F7B7774706D6A6764615F5C5AC0
:101D200058565352504E4C4B4A48474645444343FD
:101D3000424141414040404040404040404141419B
:101D4000424343444545464748494A4B4C4E4F5011
:101D50005153545657595A5C5E5F61636566686AB1
:101D60006C6E70727476787A7D7F11241FBECFE519
:101D7000D2E0DEBFCDBF10E0A0E6B0E0ECE8FEE1CF
:101D800002C005900D92A036B107D9F720E0A0E679
:101D9000B0E001C01D92A336B207E1F737D074C09E
:101DA0002FC11F920F920FB60F9211242F938F9372
:101DB0009F93EF93FF93E0916100F0916200CF0158
:101DC00001969093620080936100E25EFF4FE49180
:101DD000EEBD80916100909162008C349D4161F470
:101DE000109262001092610080916000811104C025
:101DF00019BE8FE78EBDC498FF91EF919F918F918F
:101E00002F910F900FBE0F901F90189514BEA8959C
:101E10009EE088E10FB6F894A89581BD0FBE91BDF4
:101E200086E087BD19BE81E680BF8FE78EBD83E067
:101E30008ABD8AE083BF88E389BD82E187BBC39AFC
:101E4000C09AC4987894A8952FEF83EC99E021501C
:101E500080409040E1F700C0000080E090E1A8954C
:101E6000813051F0823011F480E0F9CF109260009F
:101E7000B399F5CF81E0F3CFC49A8093600099BF06
:0C1E8000B39BF8CF82E0EBCFF894FFCFCB
:00000001FF
