:10000000F2CD0CCE0BCE0ACE09CE08CE07CE06CE50
:1000100005CE04CE04CE02CE01CE00CEFFCD7D7C37
:10002000A5496CD66C3DA3A34C969557839F7666E5
:10003000908B6A868E6E7F8C7F7776909457839CA8
:1000400066927D679A7A778B777C8B7D78837E84C6
:100050007F79867D7F827F7B847C8499418BC857A2
:1000600051AD8C52AA7E559B9468798F7D76888697
:100070006C888C757C7895875797856E9B677B9786
:100080007086807489847682857587807B827E8283
:100090007E807E80817E77A95755D8803497B04E78
:1000A00089A1587CA17B658C906A81936F7B8C823F
:1000B00078748D995A79A4648D8760997F738E7650
:1000C0007A8E7D76887C7F847A857C7E8380729E22
:1000D0008237B5B23F69B96E66AE6468A58362883F
:1000E0008F727B92786D958171817E997160A57711
:1000F0007892648D8A708B797A8A7E788680778709
:100100007E7F7E7E847B817E807F8174A46648CFE3
:10011000913488B8557CA55E769E80678790707B09
:100120009572768E817876879C616CA96C7F935EE0
:100130008F8D6F877D788A837383837E837A7F84B4
:100140007E817D80828073A46849CC8F3A85B557C3
:100150007DA9557AA5766A8E86737F907475927A9A
:10016000797E82996078A1688B8267997A788C729F
:10017000808B7C758A7F79857F807F7F837B82807F
:100180007E7D8574919037A3C3435BBC775DAA7471
:100190006196946875977B70927E6E8A8A79727E7A
:1001A0009F7957A37F6E9D657E966F87846E888E3C
:1001B000717A8B79857D7985817E807E827C7FA234
:1001C0004577D26048A9964DA5894E989B67769051
:1001D0007E7588886A8690727D7A92875799886939
:1001E0009E69779B6F8384748589787A8381827A0C
:1001F00080847886807C7F85778A983A91CD504B31
:10020000BB884EA8805B91986C6F95836B90856AD4
:10021000898B77787A988653988D679B6D739C70DD
:100220007E8874818D7779877D817E7D86788186D1
:100230007C7C86748C9A3795C84C57B58354AD77BF
:100240005A9F8D677D8F7B758D826B8E8474817CC8
:10025000947B5F9F7C74986088926B8A8073878997
:10026000757D867E837781887784807E7D8574998D
:100270008139B7B43969C16964AD6B649B916479A4
:10028000977770977A6E8D887675849B6F60A67766
:1002900074996185946B8882728A87708686768469
:1002A0008279847E807F80798F93399BC34B5BB446
:1002B0008054B07757A09063818E767A8D806C8E53
:1002C0008673817A9681579F826D9B667D96738334
:1002D0007F7989817883807B897880837C81807F26
:1002E0007F7F817C7DA6486CD9683AAC9F489C93FF
:1002F00055889E706A9587698B8C6C838A7D797826
:100300009090558A9C5E957F659B7B748C767C8FE4
:1003100077768E7B7C82807F807E837B82789584DB
:100320003AB4B03D6EBA6C62B26566A57F688A86E3
:10033000767E8E7871957E75807C9B6E64A66F7ECE
:10034000955D8F8C6D8A7C7A86837B7D7E858277B6
:1003500083837C817D837E807A859E4082D25844CF
:10036000B6904CA58557919C6B6C978566908A6A70
:10037000838E7C747C948B5492936599726C9D7778
:100380007989757D9176768B7B827E7D847F7C8179
:1003900078A55B55D57C3B96AB4F8DA04F87A16D63
:1003A00071917F75848C6E7F93727D7E84975D7E64
:1003B0009C67937D669D79768E747B8D7E76828236
:1003C000827D79887C7F81807E807C82A24374D804
:1003D000653BAC9F4A9A925587A27364958A678C55
:1003E0008B6A858E79767C8C945B7EA065907F6627
:1003F000997D7789787B8A7F75887D8083798480F1
:100400007C817F78A7535BDA74379FAA49959B4C10
:100410008DA16A71927D7687896B8294707D7B86CF
:100420009A587D9F699079689F77788B71828D7AD1
:1004300075887E827F7687817A847D807F82759AB7
:100440008039B8B4346DC36765AD6A689B8E6479D2
:100450009B75709679738C867777809A7956A3828C
:100460006F9A6281986C858474858B737F867B8498
:100470007C7F827D808176A65859D4794095A5539A
:10048000919B4D8BA16B728F7F7884896F828F7463
:100490007F7988975C7E9C68937A679D7977897667
:1004A000808A7C76887D80817A857D80807F7D844E
:1004B00073A36D3FCE9C2F80BF5678AA5B73A18437
:1004C0006285956E7A9671768F847478849A6F605F
:1004D000A6747A995B89956C868277858676818405
:1004E00079867B80817E7F8272A17839C4A6367836
:1004F000BC5D72B15572AA77668F867281917173F5
:10050000987B75807E9C6D64A57180905E918974E6
:1005100086787E8C7A758B7E79877A7F857B7F80E3
:100520008174A6624BD28E2F8CBC507EA55A78A3C4
:100530007E5F8B98667E986B7991827379869A6AD2
:1005400063A8737B92608F896F8E797391817087B6
:1005500081798A797E847D7A869E3E84D1544CB39B
:100560008D4BB07D4CA7925D829177798D806C8F99
:10057000877184788B92578B9667976F729D727E86
:10058000867684867780857984807B857B857C8070
:10059000769A8236B7B53A68C16A64AE69669D904C
:1005A00061799B75709A756F908577787D98825286
:1005B0009D8C689B69789B717F83778587767E8623
:1005C00079877E78897A7F837B76AA6343D5903456
:1005D00089B7537EAD4F7AAB70699382718691690A
:1005E0007B97747A7D829A636EA66B838D61918608
:1005F0007784788288787B8A7A7D887582847D7F0B
:100600007D827BA25260D77635A1AA4A929A577F03
:10061000A17A62908F658A9068818F7F737C8899B8
:10062000606EAB66868B60958475857781897C76F4
:100630008B797F897581857683A44076D85F42ACBB
:10064000994BA38A4E9999667A8D7E768D836792AF
:10065000896E827A899658819E66937A669E7A79A7
:100660008776808C7B77857E847E7A877D7C837697
:10067000A65C4EDA852E96B54E85A2587AA37F5C8D
:100680008D976680956F798F82717E8398735BA951
:10069000787695608C8E718778798F807085867872
:1006A000867B7F828074929332A5C43F5FBC755A6B
:1006B000B7685AAD865F898B757E90766F967E742B
:1006C000847596884F9B90639A70739B7280847533
:1006D000828A797A857E827C7F837D827C78AB5129
:1006E00057DE7930A2AB49939A5582A2795F9291F5
:1006F0006588906A7D927F6F8185966B63AB717A16
:10070000935E918D6E8481798A817286837D807AF1
:10071000857C7EA63F77D95A46AE954AA8894B9BE1
:100720009A6479907D758C84698E8871817E8592BA
:1007300065799B6D907968A077788C71828E7579D8
:100740008A7B7E8777847C8475948B32B1BE3567D3
:10075000C46862B169659B9164789B747297767482
:100760008C86767B808A91548A9D6294766E9D7782
:100770007A837A818B76778C7A7F827B837A80A763
:100780004171DC5F41AC9B47A68D489B9967788E91
:100790007E7392806594886E818082966471A56F65
:1007A000828369987C798476848977798B7A80854D
:1007B00074877F78A9456BDF6339AEA0499B92545B
:1007C00088A1726398876790886A848E7A74857B23
:1007D000997358B0747397608C8D72847D7C898313
:1007E0006F8B7F7A877B778BA13784D5544AB18E04
:1007F0004EB07A4FA591637F8E7B768E7F6A94820E
:10080000728479849B5C73AB668689609A827385F7
:100810007882887C77867F80817B837E77AC52511B
:10082000E1812B98B54D87A15976A683578E96679F
:1008300085916D7992836B857F8F85529E8D6798A8
:100840006A7B94787F7F768A8A6D82887787787DC5
:10085000AA3C78DD5744B29249B08247A5975F7BA6
:10086000957A6E96806693837482807A97755EA778
:100870007876916393876D8A7C7C8881748782788F
:1008800087788475A17338D0A32684C25277AE5B73
:100890006FA18B5D829D687A9971748C8A707B865A
:1008A00083945981A46192796C9D747B8876818C44
:1008B00076798F738583747F948B33A8C43C60BE34
:1008C0007557BA655BAD86618293767298786B9541
:1008D00083747D8184946274A56B8981679B767D26
:1008E0008B6F809275768E7A798C708B9F3291D6D1
:1008F0004747C3864BAD7D5695A06469A17F67933A
:10090000826D888C757789759B7754AD7B70976005
:100910008C8F71837E798C826B8E82758A7C71B1AB
:10092000544EE27B309AB3478FA4478AA76C6794F2
:100930008A688B8C66888C7878847E8B88559992AF
:1009400061996D7A9674817D7B89847283897585BE
:100950007D74B14F54E27C28A1B5458D9F5878A98C
:10096000805197976084966C7597816A897E869589
:100970004D8EA35C94766F9C7A76827D8488737C9E
:10098000907188778E9130B1BF3562C86D57BC6168
:100990005FAB88617C9875739A7070977F727F895E
:1009A00079946D65B06A7D905E988770847B82864D
:1009B0007F728B7D807C7EA93580E34D3CC1924760
:1009C000A883588EA46A5DA6865F928B6A8292790C
:1009D000708C77908A49A2955C976F7C93787C7F26
:1009E0007E858671818C73877B7AAE3976E1573C40
:1009F000B69942AC8747A09F606C9F8360998760DF
:100A0000918A7477887D8B8553A48A629C668098CE
:100A100071817A7F8A81718589738873A75F47E2C4
:100A2000892196C14A80A45E72A48C4C8DA35F7C00
:100A30009871738E8C6A7D8A7F96567BB15C8A84AE
:100A4000629D84707E818486797294787C7C9A7AA7
:100A500032D0AA2379CF5665C24D6CB47E59879E99
:100A6000677C9C617F9A757283867B97646BB369A0
:100A70007A886A9D7B708B7A7E8C7B6F8F7C7AA95B
:100A80003E6CE7662CAFA9479596577CAE794E9C95
:100A9000966285916D79948369838485954F86B03C
:100AA000588C7C6CA3786E887F83887475976C8F64
:100AB0009F1FA6DA364BCA824BB66E57A8955A745A
:100AC000A67369A07668968770778F78907E4FB10D
:100AD000855F986590906983827D89816B898F633A
:100AE0009B9426AAD6324DD17E4DA77E5D8CAA5FFF
:100AF0005FAD80638F896E7E957A698E808886501F
:100B0000A2935B9B697D9F6C768A7B848A698098BF
:100B10006788A62D8DE34739C6963FAC835097A3CF
:100B20006560A584619686658A93766C8E7E8889D9
:100B3000509F97559D7079996E817F7B88856A88D3
:100B4000849C574EE6861C9BC34585A15D73A49487
:100B5000418CB05C789775748D8D66818A799F5CC5
:100B600063C269738A659F8666828A79897E6A9480
:100B7000836AAF554BE7881C92CA4A7BA5587AA76F
:100B8000834E8FA2627D956D79948466819375956D
:100B90006070BA5C7E8E5FA47C6B86837E8975757F
:100BA0008F7DA33872F45527BEA643988F6075B326
:100BB0007E3DA7995E81907772918967828387993C
:100BC0004980BF4E8490619B846E798E7F83737C55
:100BD0008B937C30BFC4285AD76E50BE615FA79AF2
:100BE0005664B9775AA080668D94706D907F917627
:100BF00050B87D629F5C8D976B7A8483877B718010
:100C0000AC6539D1AF1B75DB5660B0715F96AA4EEB
:100C100066BC745F948A6D7B99796B8B7E967948FC
:100C2000B78A54A06B7BA06E7289887B856C8A81A1
:100C30008B9023BBD02457D7744EBA66629F9C5DBD
:100C400061B57863987D708492786A8F7D8F8349CF
:100C5000AA915C9965869D687B818780875CA7994E
:100C600014BECD2B52D286489B8F5E7EB66154ACAB
:100C7000945C799D776B9786678486898C4C93AB5F
:100C80004D997968A6796B88847C8D6E75999D37AE
:100C900071EE641EB4BD36909E567CAB823E9FAA18
:100CA000527B9D7470908C65808D7B99586EC25C70
:100CB0007C8B63A5796F82877D896A9C891FD6BAF0
:100CC0001371D56E58988A6180B8555EAF8A5F7986
:100CD0009F75689D806787828C8C4997A654977210
:100CE00071A86B76887F7D906587B71A91EC3E3648
:100CF000C89F4094936373B77443A5A15C749B7AB7
:100D00006C928968828585974C7CBE56877A70A7DD
:100D1000716E8B7E81847C993D88EB4028D6A53B03
:100D2000879B7262B2873A9CA968639097667F93AB
:100D300072798484956260C36967A15C9391697AD2
:100D40008B7F866E8F9826B7CF2254DD7E43A38596
:100D5000687AB36A46B4955C7697826892896983AB
:100D6000818E8C4599AE49967B69A9707383837C8B
:100D70009A7D30AFD24630BFB44A719782659F905A
:100D80004882B475598A9B74708E877278869B747A
:100D900046B88E52A06A79A46F6B8D8778839A4C7F
:100DA00064DE8B1580E75A549C85717FA95A5EB327
:100DB0008D5E71978D67838D74807F898E5190A928
:100DC0004D9A7D63A978688D779A9515A8F031338F
:100DD000C0B05A5A9D9A4F95A1586BA4985571A3CB
:100DE000836E788C87707A908F508DAC4C91905A2E
:100DF000988B6C799072A7662DE4AC225DCE934BF4
:100E000076A27D5CA9885180AA83557DA7796982E5
:100E10008C8373769A8350A88461A56275A86C70E0
:100E200084A67234B4CE4326CCBC465C94AE5A72CF
:100E3000A56D6C8F9770619594766C7F987B6B8EA7
:100E4000925295A6459396618D896A848A8C7F39E2
:100E5000A7D64C1FBCCF426288AA715CAD765F9169
:100E6000987B588CA66D6B839382658E93539B966B
:100E70004AA18A5C9A826A8395924070DB92176BD2
:100E8000E9804B66A3A2548292747A82937765902C
:100E9000907D6C7C957B719C6B61BE6D58A57C6F61
:100EA000927E668BB64B44CDB04C2EB9CE47549350
:100EB000A57860928A6686947F647D9E7F6C788C2C
:100EC000896F8F7D55B587499E876F8F7B6E85AE05
:100ED0006737AEC8681D94DF6B4870AC9C55759C35
:100EE0007974849179668C937D6F798E81779A621B
:100EF00065BF70599B8178887E64A79B1D94DD6EC9
:100F00002878D88C425FB5985D758D88737B927F09
:100F1000698291866F778B807E965D6CBF6A5C9FDD
:100F20007C7B887968A2A52279DD8A3157C8B150C7
:100F300047A0A774687C927E74888B71748C8D7BBB
:100F4000737C8784858E5081C15A6797827D7F77B5
:100F500092854894C0772585DF754A68A4A95C63AB
:100F60009F7F77837F8C6B7B93817B71828C77985B
:100F7000724FB5954C888D7F7F816A8CB43761D173
:100F8000A03A4ABAB46D3E83B97F60779188707F8A
:100F9000927671868B8379767C8C828C7351B0A12A
:100FA0004A7B958670859A5072B199634492BF8846
:100FB000406CAE9170678A8D7580878077738F9053
:100FC0007174808B7C868C508CB35A728E837F7F39
:100FD00076889D4970C29C374FCBA660507FB388FE
:100FE0005A7A8F837C78907A6E878889786F818E21
:100FF0008182815893B0566C978C6A8A9D3F7FC0DE
:101000008A4A5BA9A67D4E71A99168758683827A0A
:10101000897D737F888E766F84897C838F5A78BBB5
:10102000676292887C7B7F8395596AB2A4503CB4F6
:10103000BA665376A09E646595877B7888876D7DB8
:101040008B897E707A8D86798C7060B38952849595
:101050007C789B5A61B9A1564A9BB083566B99978D
:10106000766D8681808083847479868B817378889D
:10107000857A907758A795578091817483818F7472
:101080005999AB7F3F6FC29854618D9E8A5E7A9268
:101090007F7A7D8A7D708489867A71828C7E7B904E
:1010A0006472B3715F908B7490804F8FB97E3F7084
:1010B000B79B605E8A998969788B7E817D84847311
:1010C0007C89897C7280887B85925D73B372638D25
:1010D0008B7977848F81577FAC95564EA3B96E4E2E
:1010E00081979572668E887A7D82857778888780E9
:1010F000767887877A87815C999D5C78937D7998EB
:101100006859A8AE604590B3875A6A90997D678404
:101110008A7C7B818A7B70848D82777885837A8CC8
:10112000895788A965709086747B8B906D5D96A8B1
:10113000814E65AFA95C5A8D968D6A718E827D7FD6
:101140008280777F88817E787E85827C8D7760A49F
:10115000905B818F7D897B5F84B487406CB69C5C9B
:101160006587958D6974907F7A828481747F898187
:101170007F787C877F7E916D66A9855F8690797583
:10118000868F7E5D7FA5945F5495B37A517D93924F
:101190007B66858B7D7D81817B7C8483827B78846B
:1011A0008778848D5E83A8696B908483846572A53B
:1011B000A158519AB277577A91967966878B7C7D40
:1011C0007E857E7684877F797D867F788E875D8930
:1011D000A068758F82738286887C6186A391555C36
:1011E000A3AB6E588194936F6C8C887D7A81867BDB
:1011F0007A838584777886867787895E8CA0647405
:10120000908084846473A99E5255A0AD745B798FDD
:10121000977868868B7C7B81877B768487827A79D6
:1012200083827A8E885989A36775908073848787B3
:101230007B6086A590545AA3AC705A7C95976E6CCF
:101240008B857F7A81887877868981747A8686789B
:1012500085895E87A56A6E898A8B6E6987A78D49A5
:1012600067ABA4635F869191716C8B8A787C83866F
:101270007A778587817A7984837B8E7C5F96976481
:101280007B8F7F7387817F8C6373A1A25F4C96AF46
:10129000815D6F8C9C7C688189847B7C877F778073
:1012A00085887B737F89837C8A6A73AA7A63868F39
:1012B0007686915574B297555A97A4865D6E90972D
:1012C0007E67828C7E7A80749F7443BCA44468BB22
:1012D000735CA9766196946778927F718A886E8133
:1012E0008D7A777D9879609D806F956E7C936F8AFB
:1012F0007F728B83797D867A80847D807A85817AFE
:1013000081827D7E81827B8277918E3C9AC4534B11
:10131000B39452929065799F7E608A9969799578A5
:10132000748788797393885B948D679677709974C6
:101330007B8B757F8E75798D797D867981857883B4
:10134000817C79A26352C790407BBA626BAA6C68B9
:101350009B8A66808F7B748D816F8889777A80976E
:1013600073669E787A9265898E6E8B7C7888847796
:101370007C897C807D7F857D807C81837E7B838072
:101380008273968A3AA4BE4B53B988559A8767816F
:101390009A7767918E678393737788877871978937
:1013A00056978F61987B6C96787C87787D8A7D775D
:1013B000897B80847982847982807F7D8475928C18
:1013C0003BA5B94D5CB28357A47F5D90996A739435
:1013D000806F8A8B6F7C8E807678958559968B6925
:1013E00096747297738380758B7F7C7E86798285F5
:1013F000778281807E7E847B817F827C80789882E8
:101400003BADB84757BC7F599F8165849D74688DFB
:10141000916B7E9471778D8477729A84589B8668DD
:101420009A737099757D8776808B7A7889798286B0
:101430007583857A81827A82847785807E77A06FB2
:1014400047C09D4270B96B67A96B699B8B667E91A3
:101450007C728B876D858C767883966D6DA0727BA0
:10146000946488906D8A7C7A887E7B81857586837A
:10147000788082827C7E827F807C837E817A83A159
:101480004575D16E3AA0A85289946A73998A617E93
:101490009D736D977E7085897D718E91588D956253
:1014A000967C679C7C708E7E748A83748381808234
:1014B00078858179858178868073A7585FCA814055
:1014C0008AB3557FA35F73A18362859078758F7D02
:1014D000708E81797C7F9769759D6B878965948112
:1014E000748C757E897F7883817D857784837A810A
:1014F000817E81807C808575879C427FCF653EA7F9
:10150000A34F8D9763779E816385976F76967774E7
:101510008A8777748E925A859C628F8664958175CE
:1015200089797C8B7A788E777C8A797E857C7F82BC
:101530007D7F83797EA54D6ACC774491AC56839E9E
:10154000607A9C7A6D8A88747C9077738E837777C3
:1015500089975C7E9E668D8565987C758C777F8784
:101560007E78877F78857E807E7E857B8082817A8B
:10157000847598843BACB7475CBA7D5A9E84648579
:101580009C716A918E69809374778B81767998814A
:10159000589A89669A737198757D8876808A787969
:1015A0008B7D7C817E847E7B84807B847F7B83803B
:1015B00085777E8C7C76828876878C6177A3936032
:1015C000638FA086606E92987769819083747B8622
:1015D000867A7B83857E7B7F837A868D66799C7B0A
:1015E0007187817C82837A7C8A7E797F877F79810B
:1015F000827C848E676C9B9F6C5586A68B616C8EFB
:10160000997C687D9186737987877B7882868179DA
:101610007C80878F68729E7F6D88807A8881767CD7
:101620008F7E7484847C80827A7F87778C845B84CD
:10163000A889556A9F9E72607E998D6B738D88789C
:101640007A82857F788187807C7A808491736398A1
:1016500091687E8C7582877C788486787F817E8095
:10166000827F7A83847E7C80807D96735897AA7768
:101670004E79AC9260689096796D828B81767F8985
:1016800080757D8B8477797E879669689C886F8565
:101690007D778D81777C888177857F7B83807C8255
:1016A000837880867F758D90547BAE8D5562A59F23
:1016B0006D5E859B836A7A8D857579898678768655
:1016C0008A7B767F7F97795B95946C8185728A8A15
:1016D00074778C847485837881867E7B81837E8019
:1016E0007F8081817691885088AD854E70AE8D6601
:1016F0006E8D8D7C748389787B8684797C818581ED
:10170000787C80967A5E92926D83836F90876F80EB
:1017100086827983807C847E7F837E7B8484797DCE
:10172000867F7D799482508FAD7F4B76B08A646BD3
:10173000939074748A85737F8C80727E87867B76A3
:101740007D849A6B5FA18A698A7D719681707F8999
:101750008178847C7E877C7B83827B82827B7F8393
:101760007E807F7E78938B4B88B2814D72B2856488
:10177000739486737C8A816E8491796F87897E7970
:101780007D7C9384598D97707D886F87916A82875D
:101790007A83817C7D867F7985807D817E82807F52
:1017A0007D80827E7B83837E74938F4886B880445D
:1017B0007AB58063749687717B8E7D70898B78751E
:1017C00084897F75807E947E5A9690688C806E9016
:1017D00083777D857F7E87768188777C8980778116
:1017E000857C7F7F817F81778F8E4B88B57C487E1B
:1017F000B5776481927A76888674788F846F808CCE
:101800007E76807F829564749E79768B727D976FE9
:101810007C877985817C7C86807984807E817C82CE
:10182000837D7B84817D7E8180807788994C76BDA5
:10183000874571B882617895846E829171739383C4
:10184000707E8A82787B837E966D66A37D6E9271B0
:101850007B93777A83817B887B768D7F7582887B8B
:101860007C828080807B857E7D7A95824899B46A6F
:101870004897AC626F93846D878F76708A8E73748D
:101880008D87727E86788F8161928D6D88826C9350
:101890008370897B80857D7983837C817D80857859
:1018A00081867C7B867F7A84807F807982A0566265
:1018B000BE934769B684607F947A6E8F8D6A7598FF
:1018C000836C7E8E8174818181956371A47278911D
:1018D0006986907280827C808A76798D7C7C827D1C
:1018E00082817B8087797E847F7C83798E8E459010
:1018F000BC6C4693AF6172918070888F746F8F8ECD
:101900006C7A907E748484768D8363918B6F897FEB
:101910006F947E7090787D887C7A85837684837BD3
:10192000837E7C82827E807E7E837E7E807C857DBF
:101930007C9C556DC0854379B776638790757494A8
:1019400082678495747588877979877A8A8B598CB0
:101950009A68887F7092807484827A848377858085
:101960007D847D7D857F7986827B807F78A16A4FAB
:10197000B79F4F60B3865E8C8C707A967C6E838F37
:1019800077758B837383887481966B6DA07873925F
:101990006E7F936D83867783847C7B877B7F857A5C
:1019A0007F837F807F7F81807C837F7E7D839B4F51
:1019B00070C5823F7FBA6D678E89707D957C658B1F
:1019C000986B798D80787D8778868F5C84A066831C
:1019D000886D8E837484827887847286847784820B
:1019E0007C80807E837E7D837E7A859C506DC284E0
:1019F000437DBB65699B7E6B899471708E8B6E7F16
:101A00008E7978878178829169799C6E7F91678AD7
:101A10008B6E897D7A878376818779837D7C867FCB
:101A20007D7F8180827C80818077968145A0B65CB5
:101A30004AAA9F587E9279718F8B6B769A7E6B88BB
:101A40008B7877878372957D5C9F86689375779591
:101A50007678887E788C7C748B7E7C847B81837D99
:101A60007D857D7C838177869A4A7BC175488CB061
:101A70005D789A736E938B6D798E836F878A727E91
:101A8000897D7982906A799A717E8D6A8C8A6D8B54
:101A90007A7A8C7E7781877983807B837E80827B54
:101AA0007F857D7C837F7D8179A06355C197426E60
:101AB000BB785E8F8E6C79997D6688986C75908204
:101AC000767C897B7B966874A26D7C9266888F6E2B
:101AD00082857983877382897780827B83807C810A
:101AE000817B857F7B818474908D4397B8614FA102
:101AF0009E5888916B79987D6D858D79738D846EF4
:101B0000858978778E87618E8C6B917A7096767BDB
:101B10008A787D887F758A80788182827D7B8480C7
:101B20007D80847A81798E943F8AC567429FA85CC4
:101B300077957F688F9269709C8564868F787685AB
:101B400087748A8661948C66907E71927B79877B9C
:101B50007C897E738A807B837B80847C7F817E7F8F
:101B6000837D7E827E7D7E9E5766C3834382B7617E
:101B70006F9F746B948B6A7C8F816F898971808A67
:101B80007C77849369749F6F7D90688B89708A7B62
:101B90007A89817585867683817F817C8085797F4E
:101BA000857C7C86758E92408EC56243A4A7577B48
:101BB00098786A929067759C7F668C8D737889831C
:101BC0007291845A998F62907F719378778B7C7928
:101BD000887D79897C7B867E7B83807E807F7F8306
:101BE0007B7E867B7E0011241FBECFE5D2E0DEBF68
:101BF000CDBF10E0A0E6B0E0E0E2FFE102C005905A
:101C00000D92A836B107D9F720E0A8E6B0E001C0F0
:101C10001D92AD36B207E1F7ABD080C1F1C11F9282
:101C20000F920FB60F9211242F933F935F936F93F0
:101C30007F938F939F93AF93BF93EF93FF93809185
:101C40006900882351F0809165009091660090931F
:101C50006300809362001092690080916100E091BE
:101C60006A00F0916B008830B9F4809164008111B2
:101C700002C010926000CF010196E155FA4EE49146
:101C8000863326E09207B1F510926B0010926A003D
:101C9000809168008C5F38C08823E1F09F012F5F3E
:101CA0003F4FEA53FD4EE491293E92E0390729F077
:101CB00030936B0020936A0029C010926B00109241
:101CC0006A00815080936100837090916C00981B32
:101CD00099BD1CC080916400882319F081E0809335
:101CE0006000CF010196E25EFF4FE491883A22E165
:101CF000920729F090936B0080936A0007C01092BE
:101D00006B0010926A0088E080936100609162002D
:101D10007091630080916000E13860F0811107C02C
:101D2000F0E0E058F1099E2FDDD0605801C06FE768
:101D30006EBD0EC081110AC080E890E08E1B910933
:101D4000982F80E0CFD080E8861B01C08FE78EBD42
:101D5000FF91EF91BF91AF919F918F917F916F9183
:101D60005F913F912F910F900FBE0F901F9018958C
:101D700014BEA8959EE088E10FB6F894A89581BDA1
:101D80000FBE91BD86E087BD19BE81E680BF8FE79B
:101D90008EBD83E08ABD8AE083BF8FE380936C00B1
:101DA00087B3826187BBC39A7894C49A81E0809399
:101DB000640080E189BF2FEF30E742E021503040DE
:101DC0004040E1F700C00000E12CF12C00E010E100
:101DD000D1E0A895B3997EC0C70198D0982F97708D
:101DE000945C90936C0099BD10936600009365001D
:101DF000982F9695969596959370909368008295F6
:101E00008F70C82FCE70C701019652E0E50EF11C0D
:101E10007DD0882361F0A8959FEF20E732E09150B4
:101E200020403040E1F700C000008150F2CF109216
:101E300064008091650090916600813021E09207F6
:101E400098F0A89520916900211105C008979093FA
:101E5000660080936500D09369008FE99FE0019749
:101E6000F1F700C00000E5CF8C2F90E0409623E012
:101E7000880F991F2A95E1F720E0422F50E048177C
:101E80005907F4F4A8953FEF46E751E03150404040
:101E90005040E1F700C000002F5FEFCFA8952091E0
:101EA0006900211105C00896909366008093650033
:101EB000D09369008FE99FE00197F1F700C000001F
:101EC0008091650090916600811520E1920730F3C2
:101ED000D0936400E11432E0F30608F47ACFE12CE9
:101EE000F12C77CFAA1BBB1B51E107C0AA1FBB1F58
:101EF000A617B70710F0A61BB70B881F991F5A9596
:101F0000A9F780959095BC01CD010895E199FECF88
:101F10009FBB8EBBE09A99278DB30895F894FFCFAD
:081F200001080010010010008F
:00000001FF
